:1000000000000120D904000025050000290500009A
:10001000210500002105000021050000000000006E
:100020000000000000000000000000002D0500009E
:10003000210500000000000031050000350500002A
:10004000390500003D0500004105000045050000A0
:10005000490500004D050000510500005505000050
:10006000590500005D050000610500006505000000
:10007000690500006D0500007105000075050000B0
:100080007905000021050000210500002105000080
:1000900021050000210500002105000021050000C8
:1000A0007D05000081050000850500008905000030
:1000B0008D05000091050000210500009505000058
:1000C000990500009D050000A1050000A5050000A0
:1000D000A9050000AD050000B105000021050000E4
:1000E0002105000021050000210500002105000078
:1000F0002105000021050000210500002105000068
:100100002105000021050000210500002105000057
:100110002105000021050000210500002105000047
:100120002105000021050000210500002105000037
:100130002105000021050000210500002105000027
:1001400021050000B5050000B9050000BD0500004F
:10015000C1050000C50500002105000021050000C3
:100160002105000021050000C9050000CD050000A3
:10017000D1050000D5050000D9050000DD0500000F
:10018000E1050000E5050000210500002105000053
:1001900021050000210500002105000021050000C7
:1001A00021050000210500002105000021050000B7
:1001B00021050000210500002105000021050000A7
:1001C0002105000021050000210500002105000097
:1003F000210500002105000021050000FFFFFFFF8F
:10040000FFFFFFFFFFFFFFFFFFFFFFFFFEFFFFFFFD
:1004100010B5054C237833B9044B13B10448AFF33E
:1004200000800123237010BD7000FF1F000000003A
:100430008444000008B5064B1BB106480649AFF3DB
:1004400000800648036813B1054B03B1984708BD07
:1004500000000000844400007400FF1F6C00FF1FB8
:1004600000000000154B002B08BF134B9D46A3F561
:10047000803A00218B460F461348144A121A02F0A4
:1004800033F80F4B002B00D098470E4B002B00D0B9
:1004900098470020002104000D000D48002802D0DC
:1004A0000C48AFF3008001F0F9FF2000290000F0B4
:1004B000DBFD01F0CDFF00BF0000080000000120BF
:1004C00000000000000000007000FF1F3C01FF1F43
:1004D000000000000000000072B60A480A490160EE
:1004E0000A6882F30888094880470949094A0A4B83
:1004F0009A42BEBF51F8040B42F8040BF8E762B60B
:100500000648804708ED00E00000000015240000C8
:10051000AC4400000000FF1F7000FF1F65040000D6
:10052000FFF7FEBF304800473048004730480047DB
:1005300030480047304800473048004730480047BF
:1005400030480047304800473048004730480047AF
:10055000304800473048004730480047304800479F
:10056000304800473048004730480047304800478F
:10057000304800473048004730480047304800477F
:10058000304800473048004730480047304800476F
:10059000304800473048004730480047304800475F
:1005A000304800473048004730480047304800474F
:1005B000304800473048004730480047304800473F
:1005C000304800473048004730480047304800472F
:1005D0002F4800472E4800472D4800472C48004729
:1005E0002B4800472B48004725050000290500003F
:1005F0002D05000031050000350500000117000041
:10060000191700003117000049170000611700009A
:100610007917000091170000A9170000C11700000A
:10062000D9170000F1170000091800002118000078
:100630003918000051180000691800002105000059
:10064000DD190000F9190000F11400002D1500005B
:100650002105000021050000691F000021050000A0
:100660009D1F000021050000D11F00002105000092
:100670000520000021050000691500003920000058
:10068000210500006D20000021050000151A000062
:1006900081180000311A000080B586B002AFF86002
:1006A000B9607A603B607B68009304483968FA68F7
:1006B000BB6800F029F800BEFDE700BF0C36000063
:1006C00080B584B000AFF860B9603B601346FB7141
:1006D000FB79002B05D109486921094A094BFFF72D
:1006E000DBFFFB79F8681946BA683B6800F05AF9F5
:1006F000034618461037BD4680BD00BF4C3600008B
:1007000064420000703600000FB480B5A4B000AFA2
:100710000023C7F88C300023C7F888303A1D8023A7
:10072000104600211A4601F0DFFE07F19C03C7F8CE
:1007300084303B1DD7F89800D7F884101A460B4B2D
:1007400000F086FAC7F88C00D7F88C303A1D1046B6
:10075000194600F041F9C7F88800D7F888301846E4
:100760009037BD46BDE8804004B070477107000077
:1007700080B586B000AFF860B9603B601346FB718E
:1007800000237B6100237B611BE0BB681B68013396
:100790007F2B08D9BB681B68F868194600F01CF964
:1007A000BB6800221A60BB681B68FA681344FA79B8
:1007B0001A70BB681B685A1CBB681A607B690133DE
:1007C0007B617A693B689A42DFDB1837BD4680BDA2
:1007D00080B584B000AFF860B9607A60BB68002B68
:1007E00002D14FF0FF330EE0FB68012B05D0FB6810
:1007F000022B02D04FF0FF3305E07B68B868194642
:1008000000F0EAF87B6818461037BD4680BD00BF8F
:1008100080B584B000AFF860B9607A60FB68002BE7
:1008200002D04FF0FF3305E07B68B868194600F04E
:1008300013F9034618461037BD4680BD80B483B017
:1008400000AF78600B46FB70FB78002B08D07B680C
:10085000DB78DBB243F00803DAB27B68DA7007E0DA
:100860007B68DB78DBB223F00803DAB27B68DA70EE
:100870000C37BD465DF8047B704700BF80B483B081
:1008800000AF78600B46FB70FB78002B08D07B68CC
:10089000DB78DBB243F00403DAB27B68DA7007E09E
:1008A0007B68DB78DBB223F00403DAB27B68DA70B2
:1008B0000C37BD465DF8047B704700BF80B588B03B
:1008C00000AFF860B9607A603B60FB68002B05D12F
:1008D0001948F021194A1A4BFFF7DEFEFB681A7916
:1008E000184B1A71FB681A68164B1A60154B1B7966
:1008F000012B01D0062B1CD107F11403184601F07F
:1009000057FABB687B610F4B1A6807F11403104656
:1009100019467A6801F0FAF80A4B1B68184601215B
:10092000FFF78CFF074B1B6818460121FFF7A6FF56
:1009300000BF2037BD4680BD9C36000074420000D9
:10094000B43600008C00FF1F80B586B000AFF860A1
:10095000B9601346FB7100237B61114B1B79012B9E
:1009600001D0062B13D1FB79002B07D00C4B1B6851
:100970001846F968BA6801F073FA0BE0084B1B6877
:100980001846F968BA6801F08BFA786102E0012331
:100990007B6100BF7B6918461837BD4680BD00BF2C
:1009A0008C00FF1F80B586B000AFF8607A603B60B6
:1009B0000B46FB72FB683B61FB7A3B7507F110034A
:1009C000184679683A680023FFF778FF0023184635
:1009D0001837BD4680BD00BF80B582B000AF7860DB
:1009E00039607B68002B06D1074840F23F11074A67
:1009F000074BFFF751FE7868396800F00BF80346A3
:100A000018460837BD4680BDC03600007C42000055
:100A1000D836000080B584B000AF7860396000231C
:100A2000FB733B68002B11D07B68002B0ED0012399
:100A3000FB73FB7B002B09D0786839680122FFF734
:100A400083FF0346002B01D000233B603B68184620
:100A50001037BD4680BD00BF80B584B000AF786060
:100A600039607B68002B06D126484FF4B271264AC4
:100A7000264BFFF711FE0023FB600023FB6027E0FD
:100A8000FB687A681344184600F042F80346002BCE
:100A900002D04FF0FF3330E0FB687A6813441B78D4
:100AA0000D2B05D0FB687A6813441B780A2B0CD1F8
:100AB000FB68002B08D1FB687A68134400221A7087
:100AC0004FF0FF33FB6000E006E0FB680133FB60A2
:100AD000FA683B689A42D3D3FA683B689A4205D1D8
:100AE000FB687A68134400221A7005E0FB68013342
:100AF0007A68134400221A70FB6818461037BD4606
:100B000080BD00BFC036000088420000D83600001B
:100B100080B582B000AF7860786801210022FFF7CD
:100B200013FF0346002B01D0012300E000231846E9
:100B30000837BD4680BD00BF80B48DB000AFF860FF
:100B4000B9607A603B600023FB61FB68BB61BB69F5
:100B50005A1CBA6100221A707B68002B36D0BB6821
:100B60001B68FB62FB6A002B07D1BB6930221A703D
:100B7000FB690133FB61FB6964E023E0FA6A3B68CF
:100B800092FBF3F37B617B693A6802FB03F3FA6A39
:100B9000D31ABB62BB6A002B06DABB6A3B623B6AB4
:100BA000C3F13003BB6202E0BB6A3033BB627B69D6
:100BB000FB62BB695A1CBA61BA6AD2B21A70FB698D
:100BC0000133FB61FB6A002BD8D13AE0BB681B689C
:100BD0007B627B6A002B07D1BB6930221A70FB69EC
:100BE0000133FB61FB692DE028E03B687A6AB2FBC8
:100BF000F3F33B613B683A6902FB03F37A6AD31A69
:100C00003B623B6A092B03D83B6A30333B620AE004
:100C100097F83830002B01D0412300E061233A6A75
:100C200013440A3B3B623B697B62BB695A1CBA6155
:100C30003A6AD2B21A70FB690133FB617B6A002BFE
:100C4000D3D1FB6918463437BD465DF8047B704745
:100C500090B59DB002AFF860B9607A603B60002348
:100C60003B660023FB650023BB61002387F84A3005
:100C700000233B61FB687B66A7E17B6C252B0BD0D7
:100C80007B6CDBB207F118025BB23C6878681146F6
:100C90001A460123A04795E1012387F84B30002332
:100CA0007B650023BB651CE07B6E01337B667B6E3E
:100CB0001B785BB27B647B6C2F2B0DDD7B6C392B3F
:100CC0000ADC7A6D13469B0013445B001A467B6C6A
:100CD0001344303B7B6504E07B6E013B7B66012364
:100CE000BB65BB6D002BDFD006233B657B6E0133FC
:100CF0007B667B6E1B785BB22E2B25D100233B6578
:100D00000023BB651CE07B6E01337B667B6E1B782A
:100D10005BB27B647B6C2F2B0DDD7B6C392B0ADC8B
:100D20003A6D13469B0013445B001A467B6C1344D8
:100D3000303B3B6504E07B6E013B7B660123BB657A
:100D4000BB6D002BDFD002E07B6E013B7B667B6ED0
:100D500001337B667B6E1B785BB27B647B6C642BA0
:100D60001BD07B6C692B18D07B6C662B15D07B6CF1
:100D7000462B12D07B6C782B0FD07B6C582B0CD071
:100D80007B6C6F2B09D07B6C622B06D07B6C702B3D
:100D900003D07B6C752B40F0C7807B6C642B02D03A
:100DA0007B6C692B17D1BB681A1DBA601B687B610D
:100DB00007F11C0207F1140397F84B10009110463D
:100DC000194601220A23FFF7B7FEF86507F11C0256
:100DD000FB6D13443B667B6C582B02D07B6C782BED
:100DE0001DD17B6C782B02D1002387F84B30BB6878
:100DF0001A1DBA601B683B6107F11C0207F1100362
:100E000097F84B1000911046194600221023FFF767
:100E100093FEF86507F11C02FB6D13443B667B6C87
:100E20006F2B08D07B6C622B05D07B6C702B02D0B3
:100E30007B6C752B58D1BB681A1DBA601B683B616F
:100E40007B6C623B132B3BD801A252F823F000BF0E
:100E5000A90E0000C10E0000C10E0000C10E00006E
:100E6000C10E0000C10E0000C10E0000C10E000046
:100E7000C10E0000C10E0000C10E0000C10E000036
:100E8000C10E0000A10E0000B10E0000C10E000056
:100E9000C10E0000C10E0000C10E0000B90E00001E
:100EA000082387F84A300BE0022387F84A3007E02E
:100EB000102387F84A3003E00A2387F84A3000BF3E
:100EC00097F84A3007F11C0107F1100297F84B0020
:100ED0000090084611460022FFF72EFEF86507F144
:100EE0001C02FB6D13443B66FB6D7A6DD31A07F150
:100EF00018023C68786811462022A0473B6E002B00
:100F000011D00CE03B6E5A1E3A661B7807F11802AE
:100F10005BB23C68786811461A460123A0473B6ED5
:100F20001B78002BEED14DE07B6C632B12D1BB689C
:100F30001A1DBA601B68DBB25BB23B643B6CDBB270
:100F400007F118025BB23C68786811461A46012323
:100F5000A04737E07B6C732B29D1BB681A1DBA60A0
:100F60001B68FB64FB6C002B2CD0F86C01F044FB7D
:100F70000346FB65FB6D7A6DD31A07F118023C68D6
:100F8000786811462022A0470CE0FB6C5A1CFA64DA
:100F90001B7807F118025BB23C68786811461A4664
:100FA0000123A047FB6C1B78002BEED10AE07B6C81
:100FB000DBB207F118025BB23C68786811461A464A
:100FC0000123A0477B6E01337B667B6E1B785BB28F
:100FD0007B647B6C002B7FF450AEBB6918466C378A
:100FE000BD4690BD80B483B000AF786039607B6847
:100FF0003A685A600C37BD465DF8047B704700BF05
:1010000080B582B000AF7860396078683968FFF7E2
:10101000E9FF0837BD4680BD80B483B000AF78607B
:1010200039607B683A689A600C37BD465DF8047B8E
:10103000704700BF80B582B000AF786039607868D3
:101040003968FFF7E9FF0837BD4680BD80B483B03B
:1010500000AF786039607B683A68DA600C37BD466B
:101060005DF8047B704700BF80B586B000AF01F02B
:1010700053F801F015F801F001F807F108031846DC
:1010800000F096FE4FF4E133BB600123BB740123F3
:10109000FB7407F10803284819464FF0A07200F0CE
:1010A00035FD01233B7100237B713B1D2348162135
:1010B0001A4600F033FC3B1D204817211A4600F069
:1010C0002DFC1E484FF48001FFF79AFF1B484FF498
:1010D0000001FFF7AFFF1A4801F086FA01F0CCF9E2
:1010E0000346FB7597F91730622B11D0682B13D08C
:1010F000612B1BD1134801F0FFF910484FF4800118
:10110000FFF7A4FF0D484FF40001FFF79FFF11E028
:101110000D4801F0F1F90DE00C4801F0EDF90C4833
:1011200001F0EAF90B4801F0E7F903E00A4801F0A1
:10113000E3F900BFD2E700BF00A0064040F00F4037
:10114000F03600000837000020370000303700007C
:1011500048370000643700007837000080B582B05F
:1011600000AF174B1B7BDBB203F00103002B02D057
:10117000012B0ED01BE0134B1B68002B05D112482E
:10118000EC21124A124BFFF787FA0E4B1B687B606B
:1011900010E0104B1B68002B05D10B48F1210B4AC6
:1011A0000D4BFFF779FA0B4B1B687B6002E00023C5
:1011B0007B6000BF7B6818460837BD4680BD00BF16
:1011C000004006403401FF1F9037000098420000A5
:1011D000A83700003001FF1FB437000080B582B08F
:1011E00000AFFFF7BBFF78607B68002B01D17B6805
:1011F0004AE0274B1B78DBB203F03803DB08FB70B7
:10120000FB787A6822FA03F37B60214B5B78DBB2D0
:1012100003F030031B09BB701D4B1B7BDBB203F0DB
:1012200001037B70BB78002B2DD07B78002B2AD15B
:10123000FB78072B24D801A151F823F05D120000A0
:101240005D1200005D1200005D1200005D120000E2
:101250005D12000065120000731200007B685B09DC
:101260007B6010E07A680B4BA3FB02131B097B60C9
:1012700009E07A68084BA3FB0213DB087B6002E0FD
:1012800000237B6000BF7B6818460837BD4680BDE1
:1012900000400640CDCCCCCCABAAAAAA80B400AF0B
:1012A0000C4B9B79DBB203F00103002B02D10A4BFC
:1012B0001B6809E0094B1A68064B1B7ADBB203F086
:1012C0000E035B0822FA03F31846BD465DF8047B63
:1012D000704700BF004006400000FF1F0400FF1FD2
:1012E00080B500AF074B9B79DBB203F010031B09FD
:1012F000002B03D1FFF772FF034601E0024B1B688E
:10130000184680BD004006400000FF1F80B500AFBA
:10131000FFF724FF0346184680BD00BF80B500AF2D
:1013200000F010F80246064B03F5825304331B68A5
:1013300003F070631B0E0133B2FBF3F3184680BD5C
:101340000070044080B582B000AF164B9B79DBB2D1
:1013500003F00C039B083B603B68032B1AD801A2E7
:1013600052F823F07D130000851300008D13000058
:101370007513000000F052F878600EE000F014F8E9
:1013800078600AE0FFF78AFF786006E0FFF7E6FE84
:10139000786002E000237B6000BF7B681846083756
:1013A000BD4680BD0040064080B582B000AF194BFD
:1013B0005B78DBB203F00203002B06D1154B9B795F
:1013C000DBB203F02003002B01D000231DE0FFF768
:1013D00087FF78607B68002B01D17B6815E00D4B9F
:1013E000DB78DBB203F060035B09FB70094BDB7851
:1013F000DBB2DB09BB70F978BA78074B49000A44C5
:1014000033F812307A6802FB03F318460837BD46FA
:1014100080BD00BF00400640B042000080B582B0F1
:1014200000AF184B9B79DBB203F04003002B01D1D6
:10143000002322E0FFF76AFF78607B68002B06D16B
:10144000114840F27A21114A114BFFF725F90D4B53
:101450001B79DBB203F01F0301337A68B2FBF3F3AD
:101460007B60084B5B79DBB203F01F0303F11802CA
:101470007B6802FB03F37B607B6818460837BD4638
:1014800080BD00BF0040064090370000C042000011
:10149000C437000080B483B000AF78607B681B68FD
:1014A000DB0FDBB218460C37BD465DF8047B704796
:1014B00080B582B000AF786039607868FFF7EAFFE6
:1014C0000346002B05D0084B1B687868396898479D
:1014D00004E0064B1B68786839689847BFF34F8F64
:1014E0000837BD4680BD00BFA000FF1FA400FF1F3E
:1014F00080B500AF084B1B68002B06D1074840F2AF
:10150000E161074A074BFFF7C7F8034B1B68064822
:101510001946FFF7CDFF80BD9400FF1FD8370000AC
:10152000D44200005C38000000C0024080B500AF2B
:10153000084B5B68002B06D1074840F2E961074A77
:10154000074BFFF7A9F8034B5B6806481946FFF7FE
:10155000AFFF80BD9400FF1FD8370000EC420000B1
:101560006C38000000D0024080B500AF084B9B688B
:10157000002B06D1074840F2F161074A074BFFF7FD
:101580008BF8034B9B6806481946FFF791FF80BD17
:101590009400FF1FD8370000044300007C3800008F
:1015A00000C00A4090B589B000AF78607B68002B1E
:1015B00006D1504840F24B314F4A504BFFF76CF880
:1015C0007B689B687A68127CDA777B68DB68002B23
:1015D0000DD17B681B68002B09D07B681C687B6879
:1015E0005B687868194601220023A0477EE07B688B
:1015F0009A687B681B7C5B01134403F580531833A6
:101600001B687B617B689A687B681B7C5B01134469
:1016100003F5805318339B889BB203F08003002BA3
:101620000CBF00230123FB747B68DB687A69D31A43
:101630007B617B695B09FB60FB7C002B02D0FB6854
:10164000FB760EE0FB68002B04D0FB68DBB2013BAD
:10165000DBB205E07B681B7DDBB2DBB2013BDBB2BA
:10166000FB76FA7E7B685B7CDBB25BB29A4212D17E
:101670007B68DB7CDAB27B681B7DDBB252B25BB28B
:101680009A4205D17B68DB7CDBB25BB2FB6113E085
:101690000023FB6110E0FA7E7B685B7CDBB25BB20F
:1016A000D31AFB61FB69002B06DA7B681B7DDBB27A
:1016B0005BB2FA691344FB61FA7E7B685A747B68FB
:1016C000DB7CDBB2DAB2FB69DBB2D31ADBB2DAB2B3
:1016D0007B68DA747B681B68002B07D07B681C680A
:1016E0007B685968FB69FA7C7868A0472437BD4657
:1016F00090BD00BF8C3800001C43000084390000FE
:1017000080B500AF034B1B681846FFF74BFFBFF3D4
:101710004F8F80BDA800FF1F80B500AF034B5B68F3
:101720001846FFF73FFFBFF34F8F80BDA800FF1F94
:1017300080B500AF034B9B681846FFF733FFBFF33C
:101740004F8F80BDA800FF1F80B500AF034BDB6843
:101750001846FFF727FFBFF34F8F80BDA800FF1F7C
:1017600080B500AF034B1B691846FFF71BFFBFF3A3
:101770004F8F80BDA800FF1F80B500AF034B5B6992
:101780001846FFF70FFFBFF34F8F80BDA800FF1F64
:1017900080B500AF034B9B691846FFF703FFBFF30B
:1017A0004F8F80BDA800FF1F80B500AF034BDB69E2
:1017B0001846FFF7F7FEBFF34F8F80BDA800FF1F4D
:1017C00080B500AF034B1B6A1846FFF7EBFEBFF373
:1017D0004F8F80BDA800FF1F80B500AF034B5B6A31
:1017E0001846FFF7DFFEBFF34F8F80BDA800FF1F35
:1017F00080B500AF034B9B6A1846FFF7D3FEBFF3DB
:101800004F8F80BDA800FF1F80B500AF034BDB6A80
:101810001846FFF7C7FEBFF34F8F80BDA800FF1F1C
:1018200080B500AF034B1B6B1846FFF7BBFEBFF341
:101830004F8F80BDA800FF1F80B500AF034B5B6BCF
:101840001846FFF7AFFEBFF34F8F80BDA800FF1F04
:1018500080B500AF034B9B6B1846FFF7A3FEBFF3A9
:101860004F8F80BDA800FF1F80B500AF034BDB6B1F
:101870001846FFF797FEBFF34F8F80BDA800FF1FEC
:1018800080B500AF0A4B1B68002B06D1094840F613
:101890001601094A094BFEF7FFFE094B1B68044A73
:1018A0001268084811469847BFF34F8F80BD00BFAC
:1018B000E800FF1FD03A00002C430000B83D0000B4
:1018C000EC00FF1F0040024080B485B000AFF8601C
:1018D000B9601346FB71FB79002B05D1BB6801226F
:1018E0009A40FB689A6004E0BB6801229A40FB685A
:1018F0005A601437BD465DF8047B704780B584B0EC
:1019000000AFF860B9601346FB71FB79F868B968FD
:101910001A46FFF7D9FF1037BD4680BD80B584B0A9
:1019200000AFF860B9607A607B68002B05D114487D
:101930005F21144A144BFEF7AFFE7B681B78002B27
:101940000AD1FB685A69BB68012101FA03F3DB4342
:101950001A40FB685A610FE07B685B78F868B968E9
:101960001A46FFF7CBFFFB685A69BB68012101FAF1
:1019700003F31A43FB685A611037BD4680BD00BFB0
:10198000CC3D000044430000083E000080B582B01A
:1019900000AF786039607B68DB78DBB203F010035E
:1019A000002B06D17B689B78DBB203F02003002B71
:1019B00005D0084B1B6878683968984704E0064BE7
:1019C0001B68786839689847BFF34F8F0837BD4662
:1019D00080BD00BFFC00FF1F0001FF1F80B500AFEE
:1019E000034B1B6803481946FFF7D0FF80BD00BFBB
:1019F000F000FF1F0060064080B500AF034B5B683E
:101A000003481946FFF7C2FF80BD00BFF000FF1F6B
:101A10000070064080B500AF034B9B680348194631
:101A2000FFF7B4FF80BD00BFF000FF1F00600E4055
:101A300080B500AF0A4B1B68002B06D1094840F265
:101A40008B51094A094BFEF727FE094B1B68044AD4
:101A50001268084811469847BFF34F8F80BD00BFFA
:101A60000401FF1F343E00005443000028410000E1
:101A70000401FF1F00100B4080B485B000AF7860F8
:101A80007B681B0C03F1804303F58E23FB60FB682E
:101A9000FA6811687A6892B2012000FA02F20A43E9
:101AA0001A601437BD465DF8047B704780B584B07A
:101AB00000AF78600623BB600023FB600AE00F4B99
:101AC000FA6853F822207B689A4200D106E0FB684E
:101AD0000133FB60FA68BB689A42F0D3FA68BB68CE
:101AE0009A4205D30648A521064A074BFEF7D4FDC6
:101AF000FB6818461037BD4680BD00BF6C43000030
:101B0000384100009C4300005041000080B588B07F
:101B100000AFF860B9607A60BB68002B05D19948C6
:101B2000D021994A994BFEF7B7FDBB681B68002B83
:101B300005D19448D121944A954BFEF7ADFDFA6842
:101B4000944B9A420ED0FA68934B9A4208D0FA68A6
:101B5000924B9A4201D1012305E04FF0FF3302E09E
:101B6000082300E00823BA685279934205DA8548D1
:101B7000D321854A8A4BFEF78FFDFA68854B9A423E
:101B80000ED0FA68844B9A4208D0FA68834B9A4286
:101B900001D1012305E04FF0FF3302E0082300E00C
:101BA0000823BA689279934205DA7648D421764AB6
:101BB0007C4BFEF771FD0023FB8300237B77002322
:101BC000BB61BB681B681B017A68B2FBF3F3FB8344
:101BD000FB8B002B01D10123FB8300237B617B68FE
:101BE0005A00BB681B68B2FBF3F39AB2FB8B194631
:101BF000C902CB1A5B019BB213447B827B685A00FB
:101C0000FB8B59017B8A0B44B2FBF3F37B61BB680E
:101C10001A687B699A4204D2BB681B687A69D31A36
:101C200003E0BB681A687B69D31ABB61BB681A689A
:101C30005D4BA3FB02135A0913465B001A44BB69B0
:101C40009A4202D240F2F53398E0F868FFF72EFF8F
:101C50000246564B53F822301846FFF70DFFFB683B
:101C6000DB78DBB223F00C03DAB2FB68DA70FB68D6
:101C70001B78DBB223F01F03DAB2FB8B1B0A9BB28B
:101C8000DBB21343DAB2FB681A70FB8BDAB2FB6883
:101C90005A70FB689B7ADBB223F01F03DAB27B8AAF
:101CA000DBB203F01F03DBB21343DAB2FB689A72B4
:101CB000FB689B78DBB223F017037B77BB685B7A0A
:101CC0009B00DBB203F00403DAB27B7F13437B7724
:101CD000BB681B79002B07D0BB681A797B7F134345
:101CE000DBB243F010037B77FB687A7F9A70BB68A6
:101CF0005A79FB68DA74BB689A79FB685A75FB6895
:101D00001B7CDBB263F07703DAB2FB681A74FB6802
:101D10005B7CDBB263F03F03DAB2FB685A74BB68EA
:101D2000DB79002B07D0FB685B7BDBB243F0080359
:101D3000DAB2FB685A73BB681B7A002B07D0FB68CA
:101D40005B7BDBB243F00103DAB2FB685A73FB68DA
:101D5000DB787B77BB689B7A002B03D07B7F43F0DB
:101D600008037B77BB68DB7A002B03D07B7F43F0D3
:101D700004037B77FB687A7FDA70002318462037EC
:101D8000BD4680BD38410000B043000074410000F2
:101D90007C41000000A0064000B0064000C00640A4
:101DA00094410000D44100001F85EB5184430000A2
:101DB00080B582B000AF78607B68002B06D11348F5
:101DC00040F26F11124A134BFEF766FC7B684FF42A
:101DD000E1321A607B6800221A717B6800225A7116
:101DE0007B6801229A717B680022DA717B6800228D
:101DF0001A727B6800225A727B6800229A727B6892
:101E00000022DA720837BD4680BD00BF38410000AD
:101E1000BC4300007441000080B485B000AF78601E
:101E20007B681B79DBB21A467B685B79DBB21B02ED
:101E30001343FB607B681B7BDBB21B04FA68134314
:101E4000FB607B689B7CDBB21B06FA681343FB607C
:101E5000FB6818461437BD465DF8047B704700BF29
:101E600080B485B000AFF860B9607A600DE000BF63
:101E7000FB681B79DBB2DBB25BB2002BF8DABB6824
:101E80005A1CBA601A78FB68DA717B685A1E7A604D
:101E9000002BECD11437BD465DF8047B704700BFC2
:101EA00080B586B000AFF860B9607A60BB68002B7F
:101EB00006D1214840F25321204A214BFEF7ECFB8A
:101EC00030E023E0F868FFF7A7FF78617B6903F053
:101ED0000803002B02D040F2F13329E07B6903F0C4
:101EE0000403002B02D040F2F23321E07B6903F0BF
:101EF0000203002B02D040F2F33319E07B6903F0B8
:101F00000103002B02D04FF47D7311E0FB689B7D31
:101F1000DBB2002BD6D0BB685A1CBA60FA68D27903
:101F2000D2B21A707B685A1E7A60002BC9D1002386
:101F300018461837BD4680BD38410000D443000024
:101F40002442000080B500AF044B1B68044A1268AD
:101F5000044811469847BFF34F8F80BD2001FF1FF3
:101F60000801FF1F00A0064080B500AFFFF7EAFFA1
:101F7000BFF34F8F80BD00BF80B500AF044B1B681F
:101F8000044A5268044811469847BFF34F8F80BDFA
:101F90002001FF1F0801FF1F00B0064080B500AF01
:101FA000FFF7EAFFBFF34F8F80BD00BF80B500AFE2
:101FB000044B1B68044A9268044811469847BFF3D3
:101FC0004F8F80BD2001FF1F0801FF1F00C006408A
:101FD00080B500AFFFF7EAFFBFF34F8F80BD00BFB2
:101FE00080B500AF044B1B68044AD2680448114610
:101FF0009847BFF34F8F80BD2001FF1F0801FF1FCF
:1020000000D0064080B500AFFFF7EAFFBFF34F8F67
:1020100080BD00BF80B500AF044B1B68044A126945
:10202000044811469847BFF34F8F80BD2001FF1F22
:102030000801FF1F00A00E4080B500AFFFF7EAFFC8
:10204000BFF34F8F80BD00BF80B500AF044B1B684E
:10205000044A5269044811469847BFF34F8F80BD28
:102060002001FF1F0801FF1F00B00E4080B500AF28
:10207000FFF7EAFFBFF34F8F80BD00BF80B582B08E
:1020800000AFFFF74BF9786004484FF4E1310122CB
:102090007B68FEF715FB0837BD4680BD00A00640F3
:1020A00080B400AFBD465DF8047B704780B485B056
:1020B00000AF78607B681B0C03F1804303F58E232F
:1020C000FB60FB68FA6811687A6892B2012000FA36
:1020D00002F20A431A601437BD465DF8047B70476C
:1020E00080B485B000AFF860B9601346FB71FB683F
:1020F000BA6853F8223023F4E062FB791B0203F440
:10210000E06342EA0301FB68BA6843F8221014371F
:10211000BD465DF8047B704780B500AFB248FFF75D
:10212000C5FFB248FFF7C2FFB148FFF7BFFFB14894
:10213000FFF7BCFFB048FFF7B9FFB0480021072206
:10214000FFF7CEFFAD4801210722FFF7C9FFAB48DB
:102150000C210222FFF7C4FFA8480D210222FFF73D
:10216000BFFFA6480E210122FFF7BAFFA3480F21A7
:102170000122FFF7B5FFA14810210122FFF7B0FFB0
:102180009E4811210122FFF7ABFF9C48122101223A
:10219000FFF7A6FF994813210122FFF7A1FF9748F7
:1021A00002210722FFF79CFF944803210722FFF733
:1021B00097FF924804210122FFF792FF8F480521E3
:1021C0000122FFF78DFF8E4800210222FFF788FFD2
:1021D0008B4801210222FFF783FF89480A2101224F
:1021E000FFF77EFF86480B210122FFF779FF844825
:1021F00010210322FFF774FF814811210322FFF70A
:102200006FFF7F4812210122FFF76AFF7C481321EC
:102210000122FFF765FF7A4802210122FFF760FFE4
:10222000774814210122FFF75BFF75481521012231
:10223000FFF756FF724816210122FFF751FF704841
:1022400017210122FFF74CFF6D4803210122FFF700
:1022500047FF6B4809210122FFF742FF694800212F
:102260000122FFF73DFF674801210122FFF738FFF8
:1022700064480A210222FFF733FF62480B21022241
:10228000FFF72EFF5F480C210122FFF729FF5D4871
:102290000D210122FFF724FF5A480E210122FFF7EA
:1022A0001FFF58480F210122FFF71AFF5548102140
:1022B0000122FFF715FF534811210122FFF710FFFC
:1022C000504812210122FFF70BFF4E480221012244
:1022D000FFF706FF4B4803210222FFF701FF4948A1
:1022E00004210222FFF7FCFE464805210222FFF7E7
:1022F000F7FE444806210222FFF7F2FE414807217B
:102300000222FFF7EDFE3F4808210122FFF7E8FE19
:102310003C4809210122FFF7E3FE3B48002101224E
:10232000FFF7DEFE384801210322FFF7D9FE3648C9
:1023300002210322FFF7D4FE334803210322FFF7D3
:10234000CFFE314804210122FFF7CAFE2E480521A5
:102350000122FFF7C5FE2C4806210122FFF7C0FE2F
:10236000294807210122FFF7BBFE2848002104224B
:10237000FFF7B6FE254801210422FFF7B1FE2348EE
:1023800002210422FFF7ACFE204818210122FFF7AA
:10239000A7FE1E4819210122FFF7A2FE1B481A21A1
:1023A0000122FFF79DFE194803210422FFF798FE42
:1023B000164804210422FFF793FE14480521042245
:1023C000FFF78EFE114806210122FFF789FE104912
:1023D0000F4B03F5805310331B6823F0030201F504
:1023E000805310331A6080BD090038100A0038107D
:1023F0000B0038100C0038100D003810009004400D
:1024000000A0044000B0044000C0044000D00440DC
:102410000070044080B400AF0B4B0B4AD2F8882008
:1024200042F47002C3F88820084B4CF22052DA8143
:10243000064B4DF62812DA81044B4FF4E9721A80EC
:10244000BD465DF8047B704700ED00E000200540CC
:1024500008B5074B044613B10021AFF30080054BCC
:102460001868836A03B19847204601F0CDF800BF91
:1024700000000000EC430000074B10B51C6824B1BD
:10248000A36913B9204600F047FD20466168BDE806
:10249000104000F0E5BD00BF6800FF1F70B50E4B97
:1024A0000E4DED1AAD1000241E46AC4204D056F875
:1024B000242090470134F8E701F0E4FF084D094B70
:1024C000ED1AAD1000241E46AC4204D056F824206C
:1024D00090470134F8E770BDA4440000A444000014
:1024E000A8440000A444000002440346934202D0E2
:1024F00003F8011BFAE770470FB40A4B13B51C68C9
:1025000024B1A36913B9204600F006FD05AB2046AF
:10251000A168049A019300F09FF802B0BDE8104052
:1025200004B070476800FF1F70B50E46054618B12D
:1025300083690BB900F0F0FCAC68A389190701D5D9
:10254000236983B92846214600F064FB58B14FF057
:10255000FF3070BD002B0EDB236816F8012C1A70BB
:10256000236801332360A36816F8012B013BA360A5
:10257000002AEFD117E0A269934209DB236816F81D
:10258000012C1A70236819780A29EAD1284602E03A
:1025900016F8011C2846224600F0E8FAB0F1FF3296
:1025A00050425041D2E7002B16DAA269934208DB71
:1025B00023680A221A7023681978914210D128469C
:1025C00001E028460A21224600F0D0FAB0F1FF339C
:1025D0005842584130B1BAE723680A221A7023687A
:1025E000013323600A2070BD024B01461868FFF7D3
:1025F0009BBF00BF6800FF1F034613F8012B002A92
:10260000FBD1181A013870479368013B002B10B5B5
:10261000936005DA9469A34208DBCBB20A2B05D09C
:102620001368581C10601970C8B210BDBDE8104086
:1026300000F09CBAF8B505460E461446D718BC42C1
:1026400008D0284614F8011B3246FFF7DDFF431C73
:10265000F5D100E00020F8BD2DE9F0439DB00D4616
:1026600017460393064618B183690BB900F054FC72
:10267000734B9D4201D1756808E0724B9D4201D1B8
:10268000B56803E0704B9D4208BFF568AB89180739
:102690000AD52B6943B10023099320238DF82930F3
:1026A00030238DF82A3038E03046294600F0B2FA5F
:1026B0000028F0D04FF0FF30BFE0039A111D1268E0
:1026C0000391002A70DB0792013423782E2B7DD0F2
:1026D0005E4F21783846032200F03CFD30B1C71B25
:1026E000049B4020B84003430493013421785848A8
:1026F0008DF828100622671C00F02CFD002800F041
:102700008A80544B002B7DD1039B073323F00703B2
:1027100008330393099B434409933B461C4613F833
:10272000012B1AB9B4EB07090ED002E0252AF5D126
:10273000F8E7304629463A464B46FFF77BFF013023
:1027400076D0099B4B4409932378002B70D000234B
:102750004FF0FF3204930793059206938DF85330A0
:102760001A9304F101094C463B4F21783846052263
:1027700000F0F0FC09F10109049B28B1C71B0120FE
:10278000B84003430493EEE7D90644BF20228DF8F6
:1027900053201A0744BF2B228DF8532022782A2A6F
:1027A0008BD0079B214605E0524243F0020307927B
:1027B000049389E70C4601312278303A092A03D87C
:1027C0000A2000FB0323F5E707937EE763782A2BB3
:1027D0000AD1039B1A1D1B680392002B04F102040B
:1027E000B8BF4FF0FF330BE0611C00230C460131F2
:1027F0002278303A092A03D80A2000FB0323F5E7A0
:10280000059365E703AB0093304604A92A46134BB2
:10281000AFF3008007E003AB0093304604A92A46DB
:102820000E4B00F08FF8B0F1FF3F80467FF472AF9F
:10283000AB895B063FF53EAF09981DB0BDE8F0835C
:10284000244400004444000064440000F6430000B7
:10285000FA43000000000000F043000035260000AD
:102860002DE9F84315461F468A680B69DDF820807C
:102870009A42A8BF13462B6091F8432006460C46A7
:102880000AB101332B602368990602D52B68023305
:102890002B60236813F006091DD094F8433022689A
:1028A000003318BF012392061FD5E1185A1C3020AF
:1028B00081F84300224494F8451082F84310023313
:1028C00013E03046394604F119020123C0470130B4
:1028D00007D009F10109E2682B68D31A9945F0DBAA
:1028E000DBE74FF0FF30BDE8F8833046394604F1AE
:1028F0004302C0470130F4D023682A68E16803F03E
:102900000603042B08BFC2EB01052369A2680CBFB4
:1029100025EAE57500259A42C4BFC3EB0203ED1812
:102920004FF00009A9450ADA3046394604F11A0287
:102930000123C0470130D4D009F10109F2E700209A
:10294000BDE8F8832DE9FF470E7E0C9D6E2E804674
:102950000C4691469A4601F1430000F0A58011D83B
:10296000632E22D009D8002E00F0AF80582E40F000
:10297000BF8081F845607B4A4FE0642E1ED0692EEF
:102980001CD0B5E0732E00F0A48009D86F2E2BD098
:10299000702E40F0AD800B6843F020030B6038E0F0
:1029A000752E21D0782E34D0A2E02B681A1D1B681A
:1029B0002A6001F1420781F842309DE022682B68CD
:1029C00012F0800F03D01A1D2A601D6805E0510621
:1029D000F9D51A1D2A60B3F90050002D39DA2D23DC
:1029E0006D4284F8433034E022682B6812F0800F87
:1029F00003D01A1D2A601D6804E05206F9D51A1D7D
:102A00002A601D88237E574A6F2B14BF0A23082390
:102A10001BE07823544A84F845302368296813F072
:102A2000800F01F104062E6001D00D6802E05F0600
:102A3000FBD50D88DE0744BF43F0200323601DB99A
:102A4000236823F0200323601023002184F843101F
:102A500001E0444A0A236668A660002E03DB216871
:102A600021F00401216005B96EB104F14201B5FB0A
:102A7000F3F603FB16550F46555D01F8015935462F
:102A8000002EF4D100E00746082B0AD12368DD07A9
:102A900007D5626823699A4203DC302307F8013CBA
:102AA000013FC01B20612CE009682B68626911F0AE
:102AB000800F04D0191D29601B681A6005E04906C3
:102AC000F8D5191D29601B681A8000232361074669
:102AD00017E02B681A1D2A601F683846FFF78CFD27
:102AE00063682061984288BF23612369636005E0C1
:102AF00004F1420784F8426001232361002384F833
:102B00004330CDF800A04046214603AA4B46FFF7CC
:102B1000A7FE013002D14FF0FF301FE0404649468A
:102B20003A462369D0470130F5D023689B0705D486
:102B3000E068039B9842B8BF18460FE00025E268A2
:102B4000039BD31A9D42F3DA4046494604F1190229
:102B50000123D0470130DED00135F0E704B0BDE8F5
:102B6000F08700BF014400001244000070B50E461B
:102B70001446054618B183690BB900F0CDF9224B14
:102B80009C4201D16C6808E0204B9C4201D1AC68AA
:102B900003E01F4B9C4208BFEC68A369A360A389B4
:102BA0001A0709D523693BB123692068C01A6369F4
:102BB0009842F6B20FDB08E02846214600F02AF8DA
:102BC0000028F1D04FF0FF3070BD2846214600F0BC
:102BD00013F90028F6D1A368013BA36023685A1CAF
:102BE00022601E7063690130984204D0A389DB071C
:102BF00007D50A2E05D12846214600F0FDF8002809
:102C0000E0D1304670BD00BF2444000044440000C1
:102C100064440000324B70B51D6806460C4625B171
:102C2000AB6913B9284600F077F92E4B9C4201D1CD
:102C30006C6808E02C4B9C4201D1AC6803E02B4B44
:102C40009C4208BFEC68A28993B2190720D4DD0624
:102C500005D4092342F040023360A2813BE05807CB
:102C600012D5616B41B104F14403994202D0304660
:102C700000F080FA00236363A38923F02403A38177
:102C80000023636023692360A38943F00803A381C1
:102C900023694BB9A38903F42073B3F5007F03D0F4
:102CA0003046214600F008FAA38913F0010205D04E
:102CB0000022A26062695242A26103E0990758BFF4
:102CC0006269A26022694AB903F0800080B230B123
:102CD00043F04003A3814FF0FF3070BD002070BD72
:102CE0006800FF1F244400004444000064440000C6
:102CF0008A892DE9F041054610070C4657D44B68E8
:102D0000002B02DC0B6C002B18DDE66AB6B102F476
:102D10008052002392B22F682B600AB1626D10E0DE
:102D2000216A28460123B047411C024609D12B687D
:102D30003BB11D2B01D0162B46D12F600020BDE8E2
:102D4000F081A3895B0705D56368D21A636B0BB169
:102D5000236CD21AE66A216A28460023B047461C33
:102D6000A28905D12B681BB11D2B01D0162B19D1BF
:102D700000236360D1042369236004D5421C01D180
:102D80002B6803B96065616B2F600029D6D004F110
:102D90004403994202D0284600F0ECF90020606319
:102DA000BDE8F08142F04002A281BDE8F0810E69E9
:102DB000002EC3D00B680E60C6EB030893070CBF50
:102DC0004B6900238B6012E0A38943F04003A38189
:102DD0004FF0FF30BDE8F081A76A216A28463246ED
:102DE0004346B8470028EFDD0644C0EB0808B8F1B9
:102DF000000FF1DCA2E7000038B50B6905460C4670
:102E0000DBB118B183690BB900F086F80C4B9C421A
:102E100001D16C6808E00B4B9C4201D1AC6803E027
:102E2000094B9C4208BFEC68B4F90C302BB1284622
:102E30002146BDE83840FFF75BBF002038BD00BF2A
:102E4000244400004444000064440000014620B9CA
:102E5000044B0549186800F0E5B8044B1868FFF703
:102E6000CBBF00BFEC430000F92D00006800FF1F3E
:102E7000F8B5074600F1480494B1A5686668013EBC
:102E80000CD4AB89012B07D9B5F90E30013303D02F
:102E900038462946FFF7B0FF6835F0E72468EBE7CE
:102EA000F8BD0000002310B5044603604360836052
:102EB00081814366C28103614361836119465C304D
:102EC0000822FFF711FB054B6362054BA362054B1C
:102ED000E362054B2462236310BD00BF1D33000075
:102EE0003F330000773300009B33000070B54B1E6A
:102EF00068255D430E4605F1740100F07FF9044634
:102F000040B1002180E842000C30A06005F1680269
:102F1000FFF7EAFA204670BD836910B5044633BB5B
:102F20008364C3640365124B124A1B688262984231
:102F300004BF0123836100F01FF86060204600F0A9
:102F40001BF8A060204600F017F80421E060002282
:102F50006068FFF7A7FFA06809210122FFF7A2FF21
:102F6000E06812210222FFF79DFF0123A36110BD3B
:102F7000EC430000712E0000F8B51B4B1E68B369CE
:102F8000074613B93046FFF7C7FF4836B468736881
:102F9000013B04D4B4F90C5075B16834F8E73368D8
:102FA0002BB938460421FFF7A1FF306008B136681D
:102FB000ECE70C233B60F8BD4FF6FF73E381012380
:102FC000A38165662560A560656025616561A56171
:102FD00004F15C0029460822FFF786FA6563A563C1
:102FE000A564E5642046F8BDEC4300002DE9F041FE
:102FF000884600F1480400268CB1A5686768013F47
:103000000BD4AB89012B06D9B5F90E30013302D0B0
:103010002846C04706436835F1E72468ECE73046A8
:10302000BDE8F0812DE9F8438046894600F1480467
:10303000002694B1A5686768013F0CD4AB89012BC9
:1030400007D9B5F90E30013303D040462946C847A9
:1030500006436835F0E72468EBE73046BDE8F883BF
:1030600038B50C46054618B183690BB9FFF754FF14
:103070000E4B9C4201D16C6808E00D4B9C4201D183
:10308000AC6803E00B4B9C4208BFEC686368013BF3
:10309000002B636005DA28462146BDE8384000F081
:1030A00001B923685A1C2260187838BD24440000F6
:1030B0004444000064440000F0B58B899E0791B041
:1030C00005460C4626D4B1F90E10002909DAA38969
:1030D00013F0800F4FF0000714BF40264FF48066B6
:1030E0000DE001AA00F080F90028F0DB029F07F450
:1030F0007047B7F500514F424F414FF48066284664
:10310000314600F07BF860B9A3899A051DD443F0DD
:103110000203A38104F14703236023610123636158
:1031200013E00B4BAB62A389206043F08003A381C3
:10313000206166614FB12846B4F90E1000F066F9BF
:1031400018B1A38943F00103A38111B0F0BD00BF02
:10315000712E000010B5C9B202449042034606D059
:103160001C788C4200F10100F7D1184610BD0020F8
:1031700010BD000030B500293CD051F8042C0B1FC5
:103180001D49002AB8BF9B180A680C4612B95A603C
:103190000B6030BD93420DD219685818904203D18C
:1031A0005A581144426819605A60236030BD9942F0
:1031B00003D80A4651680029F9D1146815199D42AF
:1031C0000AD11B682344D0188842136012D10868C2
:1031D000034413604B680CE002D90C23036030BD3C
:1031E00018681C188C4203D10C6849682044186088
:1031F0005960536030BD00BF2801FF1F70B5CD1C62
:1032000025F0030508350C2D38BF0C25002D06468A
:103210003FDB8D423DD3214B1C6818462146A1B1AE
:103220000B685B1B0ED40B2B03D90B60CC18CD5055
:103230001FE08C4202D1626802601AE04B68636052
:103240000C4616E00C464968E9E7154C23681BB9A3
:10325000304600F053F820602946304600F04EF822
:10326000431C014615D0C41C24F0030484420AD137
:10327000256004F10B00231D20F00700C31A0BD0BA
:103280005A42E25070BD3046611A00F037F8013002
:10329000EED10C233360002070BD00BF2801FF1F5A
:1032A0002401FF1F38B50C46054618B183690BB9D8
:1032B000FFF732FE0E4B9C4201D16C6808E00D4BCB
:1032C0009C4201D1AC6803E00B4B9C4208BFEC6808
:1032D0002846214600F0D8F838B96368013B63609E
:1032E00023685A1C2260187838BD4FF0FF3038BD73
:1032F00024440000444400006444000038B5064CF7
:10330000002305460846236000F064F9431C02D1FF
:10331000236803B12B6038BD3801FF1F10B50C4680
:10332000B1F90E1000F094F8002803DB636D03443C
:10333000636510BDA38923F48053A38110BD2DE9DB
:10334000F0411D468B89DB0507460C46164605D520
:10335000B1F90E100022022300F068F8A389B4F935
:103360000E1023F48053A381384632462B46BDE825
:10337000F04100F017B810B50C46B1F90E1000F08E
:1033800055F8431CA38903D123F48053A38110BDB6
:1033900043F48053A381606510BDB1F90E1000F0B5
:1033A00013B8000038B5074C0546002020600846D9
:1033B00011461A46FDF70CFA431C02D1236803B1EB
:1033C0002B6038BD3801FF1F38B5064C0023054679
:1033D0000846236000F0DEF8431C02D1236803B1E5
:1033E0002B6038BD3801FF1F38B5074C0023054658
:1033F00008461146236000F0D5F8431C02D123682B
:1034000003B12B6038BD00BF3801FF1F38B5064C33
:10341000002305460846236000F0CCF8431C02D187
:10342000236803B12B6038BD3801FF1F38B5074C46
:10343000054600202060084611461A4600F0C2F8F2
:10344000431C02D1236803B12B6038BD3801FF1F34
:1034500038B5074C054600202060084611461A463C
:10346000FDF7D6F9431C02D1236803B12B6038BDA8
:103470003801FF1F838903F00903092B01D1FFF7EE
:10348000E5BC002070470000F8B50C46054618B1B1
:1034900083690BB9FFF740FD394B9C4201D16C6841
:1034A00008E0384B9C4201D1AC6803E0364B9C42AB
:1034B00008BFEC68A2890023636093B29E065AD4C9
:1034C00058071AD4D90605D4092342F040022B60CC
:1034D000A28150E01A070BD528462146FFF78CFC45
:1034E000002848D1A389A06023F00803A381A0612C
:1034F000A38943F00403A38110E0616B71B104F16F
:103500004403994202D02846FFF734FE236C6360DF
:103510000020606313B1E36B2360F8BD23691BB91E
:1035200028462146FFF7C8FDA789BEB2B3070FD0D2
:103530000123A381154B1649186806F00906FFF709
:1035400055FD092EA78103D128462146FFF7D0FB60
:1035500022692260666A216A63692846B0470028AA
:1035600060600BDCA38917BF002243F0200343F007
:1035700040036260A3814FF0FF30F8BD0020F8BD2A
:10358000244400004444000064440000EC43000074
:1035900075340000024B58221A604FF0FF3070471C
:1035A0003801FF1F024B58221A604FF0FF3070475E
:1035B0003801FF1F024B58221A600020704700BFDD
:1035C0003801FF1F024B58221A604FF0FF3070473E
:1035D0003801FF1F094A136863B1184469468842DD
:1035E00002D8106018467047054B0C221A604FF045
:1035F000FF307047034B1360EFE700BF2C01FF1F44
:103600003801FF1F00000020FEE700BF4153534573
:103610005254204552524F52202220257320223AE4
:103620002066696C652022257322204C696E652016
:10363000222564222066756E6374696F6E206E6148
:103640006D652022257322200A0000002E2E2F7582
:1036500074696C69746965732F66736C5F64656205
:1036600075675F636F6E736F6C652E63000000009B
:1036700064657669636520213D2044454255475F76
:10368000434F4E534F4C455F4445564943455F5465
:103690005950455F4E4F4E45000000002E2E2F75AD
:1036A00074696C69746965732F66736C5F696F2EDA
:1036B000630000004E554C4C20213D20696F0000F6
:1036C0002E2E2F7574696C69746965732F66736C1F
:1036D0005F6C6F672E63000062756620213D204E8F
:1036E000554C4C00636820213D204E554C4C000049
:1036F0000D5072657373206820666F7220636F6D62
:103700006D616E64730D00000D436F6D6D616E64CD
:10371000202761272064657465637465640A0D0061
:103720000D48656C6C6F20776F726C640A0D000039
:103730000D537570706F7274656420636F6D6D6189
:103740006E64733A0A0D00000D61202D20546F67DE
:10375000676C657320443120616E642044320A0D29
:10376000000000000D62202D2048656C6C6F2077F2
:103770006F726C640A0D00000D556E7265636F67A1
:103780006E697A656420636F6D6D616E640A0D0009
:103790002E2E2F647269766572732F66736C5F6369
:1037A0006C6F636B2E630000675F7874616C3046EA
:1037B00072657100675F7874616C3332467265714F
:1037C000000000006D6367706C6C30636C6B000010
:1037D000636F6E66696700002E2E2F6472697665CE
:1037E00072732F66736C5F647370692E63000000E0
:1037F000696E7374616E6365203C20415252415979
:103800005F53495A4528735F6473706942617365F9
:10381000732900006D6173746572436F6E6669672A
:103820000000000066616C7365000000736C6176D7
:1038300065436F6E66696700636F6D6D616E6400EE
:1038400068616E646C6500007472616E73666572A7
:10385000000000007866657200000000675F647316
:10386000706948616E646C655B305D00675F6473AE
:10387000706948616E646C655B315D00675F64739D
:10388000706948616E646C655B325D002E2E2F643A
:103890007269766572732F66736C5F65646D612EF5
:1038A00063000000696E7374616E6365203C2041A3
:1038B000525241595F53495A4528735F65646D619F
:1038C00042617365732900006368616E6E656C20E8
:1038D0003C2046534C5F464541545552455F454454
:1038E0004D415F4D4F44554C455F4348414E4E4519
:1038F0004C00000074636420213D204E554C4C0068
:10390000282875696E7433325F74297463642026C5
:1039100020307831465529203D3D20300000000000
:10392000636F6E66696720213D204E554C4C000048
:10393000282875696E7433325F74296E6578745403
:103940006364202620307831465529203D3D2030C3
:10395000000000006C696E6B65644368616E6E65A3
:103960006C203C2046534C5F464541545552455FC0
:1039700045444D415F4D4F44554C455F4348414E92
:103980004E454C0068616E646C6520213D204E55AB
:103990004C4C0000282875696E7433325F742974AA
:1039A0006364506F6F6C2026203078314655292093
:1039B0003D3D20300000000073726341646472205A
:1039C000213D204E554C4C00646573744164647213
:1039D00020213D204E554C4C00000000287372639E
:1039E0005769647468203D3D20315529207C7C2036
:1039F000287372635769647468203D3D20325529ED
:103A0000207C7C20287372635769647468203D3D74
:103A100020345529207C7C20287372635769647494
:103A200068203D3D2031365529207C7C202873724A
:103A3000635769647468203D3D2033325529000086
:103A400028646573745769647468203D3D2031555E
:103A500029207C7C2028646573745769647468200D
:103A60003D3D20325529207C7C20286465737457A5
:103A700069647468203D3D20345529207C7C2028D1
:103A8000646573745769647468203D3D2031365510
:103A900029207C7C202864657374576964746820CD
:103AA0003D3D2033325529007472616E7366657234
:103AB000427974657320252062797465734561636A
:103AC0006852657175657374203D3D2030000000BB
:103AD0002E2E2F647269766572732F66736C5F6623
:103AE0006C657863616E2E6300000000696E73740C
:103AF000616E6365203C2041525241595F53495ADF
:103B00004528735F666C657863616E4261736573A7
:103B1000290000006D62496478203C2046534C5FC8
:103B2000464541545552455F464C455843414E5FCA
:103B30004841535F4D4553534147455F42554646C3
:103B400045525F4D41585F4E554D4245526E286279
:103B500061736529000000002128626173652D3EB4
:103B60004D435220262043414E5F4D43525F4D440A
:103B700049535F4D41534B29000000006261756459
:103B8000526174655F427073203C3D2031303030AB
:103B90003030305500000000707269446976203C76
:103BA0003D20736F75726365436C6F636B5F487A1A
:103BB00000000000636F6E666967000028636F6E27
:103BC0006669672D3E6D61784D624E756D203E20B1
:103BD00030292026262028636F6E6669672D3E6D8A
:103BE00061784D624E756D203C3D2046534C5F46DA
:103BF0004541545552455F464C455843414E5F48F8
:103C000041535F4D4553534147455F4255464645F5
:103C1000525F4D41585F4E554D4245526E2862618C
:103C200073652929000000006D61736B4964782079
:103C30003C3D2028626173652D3E4D435220262075
:103C400043414E5F4D43525F4D41584D425F4D41A0
:103C5000534B29006D62496478203C3D2028626105
:103C600073652D3E4D435220262043414E5F4D4308
:103C7000525F4D41584D425F4D41534B290000006A
:103C800021464C455843414E5F49734D624F636333
:103C9000757069656428626173652C206D62496482
:103CA000782900002828636F6E66696729207C7C6C
:103CB000202866616C7365203D3D20656E61626CF5
:103CC0006529290028636F6E66696729207C7C203E
:103CD0002866616C7365203D3D20656E61626C6590
:103CE00029000000636F6E6669672D3E696446694E
:103CF0006C7465724E756D203C3D20313238000089
:103D0000282873657475705F6D62202D2038292016
:103D10002D202832202A207266666E2929203E2016
:103D20003000000074784672616D650074784672E8
:103D3000616D652D3E6C656E677468203C3D203872
:103D40000000000072784672616D650068616E6403
:103D50006C65000078666572000000007866657228
:103D60002D3E6D62496478203C3D20286261736578
:103D70002D3E4D435220262043414E5F4D43525F1E
:103D80004D41584D425F4D41534B290021464C4512
:103D90005843414E5F49734D624F63637570696567
:103DA0006428626173652C20786665722D3E6D62B1
:103DB0004964782900000000735F666C6578636170
:103DC0006E48616E646C655B305D00002E2E2F6462
:103DD0007269766572732F66736C5F6770696F2E98
:103DE00063000000696E7374616E6365203C20415E
:103DF000525241595F53495A4528735F6770696F42
:103E00004261736573290000636F6E666967000025
:103E10002E2E2F647269766572732F66736C5F73D2
:103E20006468632E68000000696E646578203C2039
:103E3000345500002E2E2F647269766572732F66DA
:103E4000736C5F736468632E63000000696E737443
:103E5000616E6365203C2041525241595F53495A7B
:103E60004528735F736468634261736529000000CD
:103E700068616E646C652D3E636F6D6D616E64008C
:103E800068616E646C652D3E6461746100000000C1
:103E9000636F6E6669670000636F6E6669672D3ECB
:103EA000646D614D6F646520213D206B5344484330
:103EB0005F446D614D6F646541646D613100000068
:103EC00028636F6E6669672D3E7772697465576106
:103ED0007465726D61726B4C6576656C203E3D2039
:103EE0003155292026262028636F6E6669672D3E8E
:103EF000777269746557617465726D61726B4C6538
:103F000076656C203C3D2031323855290000000098
:103F100028636F6E6669672D3E72656164576174D0
:103F200065726D61726B4C6576656C203E3D20312B
:103F300055292026262028636F6E6669672D3E72FC
:103F400065616457617465726D61726B4C6576650D
:103F50006C203C3D2031323855290000636170618E
:103F600062696C6974790000737263436C6F636B90
:103F70005F487A20213D203055000000286275738B
:103F8000436C6F636B5F487A20213D2030552920B8
:103F900026262028627573436C6F636B5F487A2016
:103FA0003C3D20737263436C6F636B5F487A2900FA
:103FB000636F6E6669672D3E64617461426C6F6306
:103FC0006B53697A65203C3D2028534448435F4247
:103FD0004C4B415454525F424C4B53495A455F4DF0
:103FE00041534B203E3E20534448435F424C4B419B
:103FF0005454525F424C4B53495A455F53484946CB
:1040000054290000636F6E6669672D3E64617461B8
:10401000426C6F636B436F756E74203C3D20285378
:104020004448435F424C4B415454525F424C4B43D3
:104030004E545F4D41534B203E3E20534448435F16
:10404000424C4B415454525F424C4B434E545F538D
:104050004849465429000000636F6E6669672D3E2B
:1040600061636B54696D656F7574436F756E742011
:104070003C3D2028534448435F4D4D43424F4F54ED
:104080005F44544F435641434B5F4D41534B203E99
:104090003E20534448435F4D4D43424F4F545F448D
:1040A000544F435641434B5F5348494654290000FF
:1040B000636F6E6669672D3E626C6F636B436F75ED
:1040C0006E74203C3D2028534448435F4D4D43428D
:1040D0004F4F545F424F4F54424C4B434E545F4DF1
:1040E00041534B203E3E20534448435F4D4D434295
:1040F0004F4F545F424F4F54424C4B434E545F53CB
:1041000048494654290000007472616E73666572F6
:104110000000000068616E646C65000063616C6C97
:104120006261636B00000000735F736468634861E1
:104130006E646C655B305D002E2E2F64726976654F
:1041400072732F66736C5F756172742E630000006A
:10415000696E7374616E6365203C20756172744191
:1041600072726179436F756E7400000068616E64ED
:104170006C650000636F6E6669670000636F6E6652
:1041800069672D3E62617564526174655F42707348
:104190000000000046534C5F464541545552455F70
:1041A000554152545F4649464F5F53495A456E2820
:1041B0006261736529203E3D20636F6E6669672DDD
:1041C0003E74784669666F57617465726D61726B93
:1041D0000000000046534C5F464541545552455F30
:1041E000554152545F4649464F5F53495A456E28E0
:1041F0006261736529203E3D20636F6E6669672D9D
:104200003E72784669666F57617465726D61726B54
:104210000000000062617564526174655F427073F2
:1042200000000000646174610000000072696E6744
:10423000427566666572000078666572000000006F
:10424000786665722D3E6461746153697A65000019
:10425000786665722D3E646174610000636F756EEF
:1042600074000000446267436F6E736F6C655F4952
:104270006E697400494F5F496E6974004C4F475F27
:1042800050757368000000004C4F475F52656164D1
:104290004C696E6500000000434C4F434B5F47651F
:1042A000744D6367457874436C6B467265710000AA
:1042B0008002DC020005B80580079508000A710B32
:1042C000434C4F434B5F476574506C6C304672658E
:1042D00071000000535049305F447269766572493D
:1042E000525148616E646C65720000005350493150
:1042F0005F44726976657249525148616E646C65BB
:1043000072000000535049325F4472697665724909
:10431000525148616E646C657200000045444D4125
:104320005F48616E646C65495251000043414E30F4
:104330005F44726976657249525148616E646C657A
:10434000720000004750494F5F50696E496E6974B2
:1043500000000000534448435F4472697665724927
:10436000525148616E646C657200000000A0064006
:1043700000B0064000C0064000D0064000A00E403D
:1043800000B00E400A0034100B0034100C00341042
:104390000D0034100A0028100B002810554152540B
:1043A0005F476574496E7374616E63650000000059
:1043B000554152545F496E69740000005541525492
:1043C0005F47657444656661756C74436F6E6669BA
:1043D00067000000554152545F52656164426C6F42
:1043E000636B696E67000000430000000800FF1F58
:1043F000232D302B2000686C4C00656667454647CE
:104400000030313233343536373839414243444550
:1044100046003031323334353637383961626364BF
:1044200065660000000000000000000000000000C1
:10443000000000000000000000000000000000007C
:10444000000000000000000000000000000000006C
:10445000000000000000000000000000000000005C
:10446000000000000000000000000000000000004C
:10447000000000000000000000000000000000003C
:1044800000000000F8B500BFF8BC08BC9E467047AD
:0C449000F8B500BFF8BC08BC9E467047A1
:08449C00C8BFFF7F0100000012
:0444A40035040000DB
:0444A80011040000FB
:1044AC000080000000093D000000000024440000D2
:1044BC0044440000644400000000000000000000C0
:1044CC000000000000000000E843000000000000B5
:1044DC0000000000000000000000000000000000D0
:1044EC0000000000000000000000000000000000C0
:1044FC0000000000000000000000000000000000B0
:10450C0000000000000000000800FF1F0000000079
:04000003000004D91C
:00000001FF
