:1000000000000120D904000025050000290500009A
:10001000210500002105000021050000000000006E
:100020000000000000000000000000002D0500009E
:10003000210500000000000031050000350500002A
:10004000390500003D0500004105000045050000A0
:10005000490500004D050000510500005505000050
:10006000590500005D050000610500006505000000
:10007000690500006D0500007105000075050000B0
:100080007905000021050000210500002105000080
:1000900021050000210500002105000021050000C8
:1000A0007D05000081050000850500008905000030
:1000B0008D05000091050000210500009505000058
:1000C000990500009D050000A1050000A5050000A0
:1000D000A9050000AD050000B105000021050000E4
:1000E0002105000021050000210500002105000078
:1000F0002105000021050000210500002105000068
:100100002105000021050000210500002105000057
:100110002105000021050000210500002105000047
:100120002105000021050000210500002105000037
:100130002105000021050000210500002105000027
:1001400021050000B5050000B9050000BD0500004F
:10015000C1050000C50500002105000021050000C3
:100160002105000021050000C9050000CD050000A3
:10017000D1050000D5050000D9050000DD0500000F
:10018000E1050000E5050000210500002105000053
:1001900021050000210500002105000021050000C7
:1001A00021050000210500002105000021050000B7
:1001B00021050000210500002105000021050000A7
:1001C0002105000021050000210500002105000097
:1003F000210500002105000021050000FFFFFFFF8F
:10040000FFFFFFFFFFFFFFFFFFFFFFFFFEFFFFFFFD
:1004100010B5054C237833B9044B13B10448AFF33E
:1004200000800123237010BD6800FF1F0000000042
:100430000423000008B5064B1BB106480649AFF37C
:1004400000800648036813B1054B03B1984708BD07
:1004500000000000042300006C00FF1F6400FF1F69
:1004600000000000154B002B08BF134B9D46A3F561
:10047000803A00218B460F461348144A121A01F0A5
:10048000ADFB0F4B002B00D098470E4B002B00D03C
:1004900098470020002104000D000D48002802D0DC
:1004A0000C48AFF3008001F073FB2000290000F03E
:1004B000ADFB01F059FB00BF000008000000012067
:1004C00000000000000000006800FF1F2001FF1F67
:1004D000000000000000000072B60A480A490160EE
:1004E0000A6882F30888094880470949094A0A4B83
:1004F0009A42BEBF51F8040B42F8040BF8E762B60B
:100500000648804708ED00E0000000002D1B0000B9
:100510002C2300000000FF1F6800FF1F650400007F
:10052000FFF7FEBF304800473048004730480047DB
:1005300030480047304800473048004730480047BF
:1005400030480047304800473048004730480047AF
:10055000304800473048004730480047304800479F
:10056000304800473048004730480047304800478F
:10057000304800473048004730480047304800477F
:10058000304800473048004730480047304800476F
:10059000304800473048004730480047304800475F
:1005A000304800473048004730480047304800474F
:1005B000304800473048004730480047304800473F
:1005C000304800473048004730480047304800472F
:1005D0002F4800472E4800472D4800472C48004729
:1005E0002B4800472B48004725050000290500003F
:1005F0002D0500003105000035050000A1130000A5
:10060000B5130000C9130000DD130000F113000052
:1006100005140000191400002D14000041140000FE
:1006200055140000691400007D14000091140000AE
:10063000A5140000B9140000CD140000210500002D
:10064000191600003516000091110000CD110000B0
:1006500021050000210500008D1600002105000085
:10066000B916000021050000E51600002105000074
:100670001117000021050000091200003D170000BD
:100680002105000069170000210500005116000037
:10069000E1140000210500000FB480B582B000AF66
:1006A0000B4B1B78002B02D14FF0FF3309E007F111
:1006B00014033B60074839693A6800F0D5F8786060
:1006C0007B6818460837BD46BDE8804004B07047D7
:1006D0008400FF1FD906000080B582B000AF7860AB
:1006E0000A4B1B78002B02D14FF0FF3309E0074B78
:1006F0009B68064A51683A1D0846114601229847F0
:10070000012318460837BD4680BD00BF8400FF1F87
:1007100080B586B000AFB9607A603B600346FB737A
:10072000BB687B610CE097F90F203B6A1046984745
:100730003B681B685A1C3B681A607B6901337B610C
:100740007A697B689A42EEDB1837BD4680BD00BFF0
:1007500080B48DB000AFF860B9607A603B60002370
:10076000FB61FB68BB61BB695A1CBA6100221A704D
:100770007B68002B36D0BB681B68FB62FB6A002BD2
:1007800007D1BB6930221A70FB690133FB61FB6939
:1007900064E023E0FA6A3B6892FBF3F37B617B69D8
:1007A0003A6802FB03F3FA6AD31ABB62BB6A002BF6
:1007B00006DABB6A3B623B6AC3F13003BB6202E00C
:1007C000BB6A3033BB627B69FB62BB695A1CBA618E
:1007D000BA6AD2B21A70FB690133FB61FB6A002B63
:1007E000D8D13AE0BB681B687B627B6A002B07D1DB
:1007F000BB6930221A70FB690133FB61FB692DE094
:1008000028E03B687A6AB2FBF3F33B613B683A69E4
:1008100002FB03F37A6AD31A3B623B6A092B03D8C3
:100820003B6A30333B620AE097F83830002B01D046
:10083000412300E061233A6A13440A3B3B623B696F
:100840007B62BB695A1CBA613A6AD2B21A70FB6900
:100850000133FB617B6A002BD3D1FB691846343727
:10086000BD465DF8047B704780B59CB002AFF86070
:10087000B9607A6000233B660023FB650023BB61FF
:10088000002387F84A3000233B61BB687B6693E115
:100890007B6C252B06D0FB68786C9847BB690133CD
:1008A000BB6186E1012387F84B3000237B65002381
:1008B000BB651CE07B6E01337B667B6E1B785BB295
:1008C0007B647B6C2F2B0DDD7B6C392B0ADC7A6D06
:1008D00013469B0013445B001A467B6C1344303B69
:1008E0007B6504E07B6E013B7B660123BB65BB6DD2
:1008F000002BDFD006233B657B6E01337B667B6E6E
:100900001B785BB22E2B25D100233B650023BB65F2
:100910001CE07B6E01337B667B6E1B785BB27B6475
:100920007B6C2F2B0DDD7B6C392B0ADC3A6D13466B
:100930009B0013445B001A467B6C1344303B3B65C1
:1009400004E07B6E013B7B660123BB65BB6D002B26
:10095000DFD002E07B6E013B7B667B6E01337B6602
:100960007B6E1B785BB27B647B6C642B1BD07B6CD7
:10097000692B18D07B6C662B15D07B6C462B12D064
:100980007B6C782B0FD07B6C582B0CD07B6C6F2B37
:1009900009D07B6C622B06D07B6C702B03D07B6CF8
:1009A000752B40F0C5807B6C642B02D07B6C692B6F
:1009B00017D17B681A1D7A601B687B6107F11C02E6
:1009C00007F1140397F84B100091104619460122C5
:1009D0000A23FFF7BDFEF86507F11C02FB6D134407
:1009E0003B667B6C582B02D07B6C782B1DD17B6CCB
:1009F000782B02D1002387F84B307B681A1D7A6070
:100A00001B683B6107F11C0207F1100397F84B10BC
:100A100000911046194600221023FFF799FEF86551
:100A200007F11C02FB6D13443B667B6C6F2B08D0F7
:100A30007B6C622B05D07B6C702B02D07B6C752B92
:100A400059D17B681A1D7A601B683B617B6C623BE5
:100A5000132B3BD801A252F823F000BFB50A0000C7
:100A6000CD0A0000CD0A0000CD0A0000CD0A00002A
:100A7000CD0A0000CD0A0000CD0A0000CD0A00001A
:100A8000CD0A0000CD0A0000CD0A0000CD0A00000A
:100A9000AD0A0000BD0A0000CD0A0000CD0A00002A
:100AA000CD0A0000CD0A0000C50A0000082387F81F
:100AB0004A300CE0022387F84A3008E0102387F818
:100AC0004A3004E00A2387F84A3000E000BF97F874
:100AD0004A3007F11C0107F1100297F84B00009013
:100AE000084611460022FFF733FEF86507F11C02A5
:100AF000FB6D13443B667A6D07F11803F9680091AA
:100B00002020F96DFFF704FE3B6E002B0FD00AE0AA
:100B10003B6E5A1E3A661B785AB2FB6810469847DD
:100B2000BB690133BB613B6E1B78002BF0D140E009
:100B30007B6C632B0DD17B681A1D7A601B68DBB25E
:100B40005BB23B64FB68386C9847BB690133BB619F
:100B50002FE07B6C732B26D17B681A1D7A601B6893
:100B6000FB64FB6C002B24D0F86C01F03FF80346CB
:100B7000FB657A6D07F11803F96800912020F96D83
:100B8000FFF7C6FD0AE0FB6C5A1CFA641B785AB2E8
:100B9000FB6810469847BB690133BB61FB6C1B784F
:100BA000002BF0D105E0FB68786C9847BB690133F6
:100BB000BB617B6E01337B667B6E1B785BB27B64B3
:100BC0007B6C002B7FF464AEBB6918466837BD466A
:100BD00080BD00BF80B483B000AF786039607B68AF
:100BE0003A685A600C37BD465DF8047B704700BF19
:100BF00080B483B000AF786039607B683A689A60EF
:100C00000C37BD465DF8047B704700BF80B58CB0E3
:100C100000AF00F02FFE00F0D5FD00F0ABFD254B3E
:100C2000FB624FF0C043BB62234A07F124031288E2
:100C30001A8007F1240321480D211A4600F08CFC8C
:100C400007F124031D480C211A4600F085FC07F12A
:100C500024031A4812211A4600F07EFC07F12403EF
:100C6000164811211A4600F077FC07F124031348B7
:100C700010211A4600F070FC07F124030F480F21E1
:100C80001A4600F069FC0D484FF48051FFF7B0FFA1
:100C9000002000F02BF809484FF48051FFF7A8FF1F
:100CA000F86A00F00DF805484FF48051FFF792FF05
:100CB000F1E700BF404B4C00001C000080F00F40EB
:100CC00080B485B000AF78600023FB600023FB6038
:100CD00003E000BFFB680133FB607A68FB689A425F
:100CE000F7D81437BD465DF8047B704780B582B0F5
:100CF00000AF786063484FF40041FFF76BFF7B68FB
:100D0000072B00F2BB8001A252F823F02D0D00004A
:100D1000570D0000810D0000AB0D0000D50D000047
:100D2000FF0D0000290E0000530E000055484FF43F
:100D30008021FFF75DFF53484FF40031FFF758FF64
:100D400050484FF48031FFF753FF4E484FF40041B5
:100D5000FFF74EFF92E04B484FF48021FFF73AFF38
:100D600048484FF40031FFF743FF46484FF48031C5
:100D7000FFF73EFF43484FF40041FFF739FF7DE0A6
:100D800040484FF48021FFF725FF3E484FF40031E3
:100D9000FFF720FF3B484FF48031FFF729FF394828
:100DA0004FF40041FFF724FF68E036484FF48021FC
:100DB000FFF71EFF33484FF40031FFF70BFF3148B8
:100DC0004FF48031FFF714FF2E484FF40041FFF736
:100DD0000FFF53E02B484FF48021FFF709FF29480C
:100DE0004FF40031FFF7F6FE26484FF48031FFF74D
:100DF000F1FE24484FF40041FFF7FAFE3EE021489F
:100E00004FF48021FFF7E6FE1E484FF40031FFF754
:100E1000E1FE1C484FF48031FFF7DCFE19484FF427
:100E20000041FFF7E5FE29E016484FF48021FFF767
:100E3000D1FE14484FF40031FFF7DAFE11484FF4A9
:100E40008031FFF7C7FE0F484FF40041FFF7D0FE97
:100E500014E00C484FF48021FFF7CAFE09484FF414
:100E60000031FFF7C5FE07484FF48031FFF7B2FEAF
:100E700004484FF40041FFF7BBFE00BF0837BD46F2
:100E800080BD00BF80F00F4080B483B000AF7860B9
:100E9000074B074A126822F440217A68920402F450
:100EA00040220A431A600C37BD465DF8047B704748
:100EB0000070044080B483B000AF78600A490A4BE8
:100EC00003F5805304331B6823F480327B681B04D2
:100ED00003F480331A4301F5805304331A600C374E
:100EE000BD465DF8047B70470070044080B582B059
:100EF00000AF7860094B7A68526803F58253043377
:100F00001A607B681B781846FFF7D4FF7B685B7814
:100F10001846FFF7B9FF0837BD4680BD0070044092
:100F200080B485B000AF13460246FA710A46BA7122
:100F30007B713B4B9B79DBB203F00C039B08FB609E
:100F4000374B9B79DBB203F00103FB72344B1B7A06
:100F5000DBB203F00E035B08BB727A79BB7A9A426C
:100F60002CD0FB7A012B19D1FB68012B06D02C4B1E
:100F70001B78DBB203F00203002B0FD0284B284A6A
:100F80005278D2B222F00102D2B25A7000BF244B82
:100F90009B79DBB203F00103002BF8D1204B204AF0
:100FA000127AD2B222F02F02D1B27A795200D2B2A2
:100FB00002F00E02D2B20A43D2B21A72184B184A89
:100FC0005278D2B222F00102D1B2BA7902F0010213
:100FD000D2B20A43D2B25A70114B114A1278D2B22D
:100FE00022F00302D1B2FA790A43D2B21A70FB6836
:100FF000012B04D0FB7903F00203002B08D000BFC3
:10100000074B9B79DBB203F00102BB799A42F7D11F
:10101000002318461437BD465DF8047B704700BFB7
:101020000040064080B584B000AF0B463A600246EF
:10103000FA71BB710023FB732A4BDB78BB73294B1E
:101040009B79DBB203F010031B09002B09D10123AC
:10105000FB73244B234AD278D2B282F02002D2B260
:10106000DA70204B1F4A1278D2B202F03B02D2B2A1
:1010700042F00402D2B21A7000BF1A4B9B79DBB265
:1010800003F010031B09012BF7D1FB7B002B02D0CF
:10109000144BBA7BDA70134BBA7B02F01F02D1B249
:1010A000FA79D201D0B2BA795201D2B202F060021A
:1010B000D2B20243D2B20A43D2B2DA7000BF094BB5
:1010C0009B79DBB203F00C039B08002BF7D13B6844
:1010D000002B01D03B689847002318461037BD46C7
:1010E00080BD00BF0040064080B582B000AF0B4617
:1010F0003A600246FA71BB71FA79BB79104619461B
:101100003A68FFF78FFF034618460837BD4680BD93
:1011100080B586B002AFF860B9607A603B607B68EA
:10112000009304483968FA68BB68FFF7B5FA00BE57
:10113000FDE700BF041C000080B483B000AF7860FE
:101140007B681B68DB0FDBB218460C37BD465DF8C9
:10115000047B704780B582B000AF786039607868F2
:10116000FFF7EAFF0346002B05D0074B1B687868A2
:101170003968984704E0054B1B68786839689847D8
:101180000837BD4680BD00BFA000FF1FA400FF1FA1
:1011900080B500AF084B1B68002B06D1074840F212
:1011A0005661074A074BFFF7B3FF034B1B6806481E
:1011B0001946FFF7CFFF80BD9400FF1F441C0000BD
:1011C00074220000C01C000000C0024080B500AFC7
:1011D000084B5B68002B06D1074840F25E61074A66
:1011E000074BFFF795FF034B5B6806481946FFF76F
:1011F000B1FF80BD9400FF1F441C00008C22000042
:10120000D01C000000D0024080B500AF084B9B68A6
:10121000002B06D1074840F26661074A074BFFF7EB
:1012200077FF034B9B6806481946FFF793FF80BD85
:101230009400FF1F441C0000A4220000E01C0000DA
:1012400000C00A4090B589B000AF78607B68002B81
:1012500006D1504840F235314F4A504BFFF758FF06
:101260007B689B687A68127CDA777B68DB68002B86
:101270000DD17B681B68002B09D07B681C687B68DC
:101280005B687868194601220023A0477EE07B68EE
:101290009A687B681B7C5B01134403F58053183309
:1012A0001B687B617B689A687B681B7C5B011344CD
:1012B00003F5805318339B889BB203F08003002B07
:1012C0000CBF00230123FB747B68DB687A69D31AA7
:1012D0007B617B695B09FB60FB7C002B02D0FB68B8
:1012E000FB760EE0FB68002B04D0FB68DBB2013B11
:1012F000DBB205E07B681B7DDBB2DBB2013BDBB21E
:10130000FB76FA7E7B685B7CDBB25BB29A4212D1E1
:101310007B68DB7CDAB27B681B7DDBB252B25BB2EE
:101320009A4205D17B68DB7CDBB25BB2FB6113E0E8
:101330000023FB6110E0FA7E7B685B7CDBB25BB272
:10134000D31AFB61FB69002B06DA7B681B7DDBB2DD
:101350005BB2FA691344FB61FA7E7B685A747B685E
:10136000DB7CDBB2DAB2FB69DBB2D31ADBB2DAB216
:101370007B68DA747B681B68002B07D07B681C686D
:101380007B685968FB69FA7C7868A0472437BD46BA
:1013900090BD00BFF01C0000BC220000E81D000052
:1013A00080B500AF024B1B681846FFF74BFF80BDAE
:1013B000A800FF1F80B500AF024B5B681846FFF71F
:1013C00041FF80BDA800FF1F80B500AF024B9B68A6
:1013D0001846FFF737FF80BDA800FF1F80B500AF9C
:1013E000024BDB681846FFF72DFF80BDA800FF1FEA
:1013F00080B500AF024B1B691846FFF723FF80BD85
:10140000A800FF1F80B500AF024B5B691846FFF7CD
:1014100019FF80BDA800FF1F80B500AF024B9B697C
:101420001846FFF70FFF80BDA800FF1F80B500AF73
:10143000024BDB691846FFF705FF80BDA800FF1FC0
:1014400080B500AF024B1B6A1846FFF7FBFE80BD5C
:10145000A800FF1F80B500AF024B5B6A1846FFF77C
:10146000F1FE80BDA800FF1F80B500AF024B9B6A54
:101470001846FFF7E7FE80BDA800FF1F80B500AF4C
:10148000024BDB6A1846FFF7DDFE80BDA800FF1F98
:1014900080B500AF024B1B6B1846FFF7D3FE80BD33
:1014A000A800FF1F80B500AF024B5B6B1846FFF72B
:1014B000C9FE80BDA800FF1F80B500AF024B9B6B2B
:1014C0001846FFF7BFFE80BDA800FF1F80B500AF24
:1014D000024BDB6B1846FFF7B5FE80BDA800FF1F6F
:1014E00080B500AF094B1B68002B06D1084840F2BD
:1014F0003C51084A084BFFF70BFE084B1B68034A98
:10150000126807481146984780BD00BFE800FF1FDA
:10151000341F0000CC2200001C220000EC00FF1F42
:101520000040024080B485B000AFF860B960134657
:10153000FB71FB79002B05D1BB6801229A40FB6847
:101540009A6004E0BB6801229A40FB685A60143735
:10155000BD465DF8047B704780B584B000AFF8608D
:10156000B9607A607B68002B05D114484B21144A7E
:10157000144BFFF7CDFD7B681B78002B0AD1FB686D
:101580005A69BB68012101FA03F3DB431A40FB6887
:101590005A610FE07B685B78F868B9681A46FFF714
:1015A000C1FFFB685A69BB68012101FA03F31A43C2
:1015B000FB685A611037BD4680BD00BF3022000075
:1015C000E42200006C22000080B582B000AF786099
:1015D00039607B68DB78DBB203F01003002B06D1A7
:1015E0007B689B78DBB203F02003002B05D0084B0F
:1015F0001B6878683968984704E0064B1B68786870
:1016000039689847BFF34F8F0837BD4680BD00BF8C
:10161000FC00FF1F0001FF1F80B500AF034B1B68DC
:1016200003481946FFF7D0FF80BD00BFF000FF1F41
:101630000060064080B500AF034B5B680348194665
:10164000FFF7C2FF80BD00BFF000FF1F0070064023
:1016500080B500AF034B9B6803481946FFF7B4FF02
:1016600080BD00BFF000FF1F00600E4080B500AFDE
:10167000034B1B68034A126803481146984780BD14
:101680001C01FF1F0401FF1F00A0064080B500AF32
:10169000FFF7ECFF80BD00BF80B500AF034B1B68B8
:1016A000034A526803481146984780BD1C01FF1F3A
:1016B0000401FF1F00B0064080B500AFFFF7ECFF4C
:1016C00080BD00BF80B500AF034B1B68034A926822
:1016D00003481146984780BD1C01FF1F0401FF1FEE
:1016E00000C0064080B500AFFFF7ECFF80BD00BF33
:1016F00080B500AF034B1B68034AD268034811460C
:10170000984780BD1C01FF1F0401FF1F00D0064049
:1017100080B500AFFFF7ECFF80BD00BF80B500AF24
:10172000034B1B68034A126903481146984780BD62
:101730001C01FF1F0401FF1F00A00E4080B500AF79
:10174000FFF7ECFF80BD00BF80B500AF034B1B6807
:10175000034A526903481146984780BD1C01FF1F88
:101760000401FF1F00B00E4080B500AFFFF7ECFF93
:1017700080BD00BF80B400AFBD465DF8047B7047FC
:1017800080B400AF044B03F582530433034A1A605C
:10179000BD465DF8047B70470070044000000713ED
:1017A00080B483B000AF47F230537B6000E000BFED
:1017B0007B685A1E7A60002BF9D10C37BD465DF864
:1017C000047B704780B500AFFFF7DAFF00210022ED
:1017D0000123084611461A46FFF7A2FB0022032305
:1017E00010461946054AFFF77FFC0548FFF77EFBC8
:1017F000044B4FF0A0621A6080BD00BFA11700002B
:10180000F42200000000FF1F80B485B000AF7860B4
:101810007B681B0C03F1804303F58E23FB60FB68A0
:10182000FA6811687A6892B2012000FA02F20A435B
:101830001A601437BD465DF8047B704780B485B0EC
:1018400000AFF860B9601346FB71FB68BA6853F8E3
:10185000223023F4E062FB791B0203F4E06342EAE6
:101860000301FB68BA6843F822101437BD465DF8DF
:10187000047B704780B500AFA248FFF7C5FFA248C0
:10188000FFF7C2FFA148FFF7BFFFA148FFF7BCFF6A
:10189000A048FFF7B9FFA04800210222FFF7CEFFC2
:1018A0009D4801210222FFF7C9FF9B480221022225
:1018B000FFF7C4FF984803210222FFF7BFFF9648B5
:1018C00004210222FFF7BAFF934805210122FFF706
:1018D000B5FF914806210122FFF7B0FF8F48002194
:1018E0000722FFF7ABFF8D4801210722FFF7A6FF74
:1018F0008A4802210722FFF7A1FF88480321072217
:10190000FFF79CFF85480C210222FFF797FF8348D1
:101910000D210222FFF792FF80480E210122FFF7DE
:101920008DFF7E480F210122FFF788FF7B481021A1
:101930000122FFF783FF794811210122FFF77EFF83
:10194000764812210122FFF779FF74481321012202
:10195000FFF774FF724800210222FFF76FFF704803
:1019600001210222FFF76AFF6D4802210222FFF7E0
:1019700065FF6B4803210122FFF760FF68480921DA
:101980000122FFF75BFF66480A210322FFF756FF9B
:1019900063480B210322FFF751FF61481021012208
:1019A000FFF74CFF5E4811210122FFF747FF5C481B
:1019B00014210122FFF742FF594815210122FFF7A8
:1019C0003DFF574816210122FFF738FF54481721E1
:1019D0000122FFF733FF534803210522FFF72EFFB3
:1019E00050480C210122FFF729FF4E480D2101220A
:1019F000FFF724FF4B480E210122FFF71FFF494844
:101A00000F210122FFF71AFF464810210122FFF79C
:101A100015FF444811210122FFF710FF4148122110
:101A20000122FFF70BFF404801210122FFF706FFCB
:101A30003D4807210122FFF701FF39481221052205
:101A4000FFF7FCFE374800210522FFF7F7FE354877
:101A500001210522FFF7F2FE324802210522FFF79D
:101A6000EDFE304804210522FFF7E8FE2D48052150
:101A70000522FFF7E3FE2B4806210522FFF7DEFED5
:101A8000284807210522FFF7D9FE2648082105220C
:101A9000FFF7D4FE234809210522FFF7CFFE214896
:101AA0000A210522FFF7CAFE1F4802210522FFF77F
:101AB000C5FE1D4803210522FFF7C0FE1A48042178
:101AC0000522FFF7BBFE184805210522FFF7B6FEE9
:101AD000154806210522FFF7B1FE12480321052211
:101AE000FFF7ACFE104800210522FFF7A7FE0D48C6
:101AF0000B210522FFF7A2FE094813210522FFF75B
:101B00009DFE80BD090038100A0038100B00381007
:101B10000C0038100D00381000D004400090044034
:101B200000A0044000B0044000C0044080B400AFF6
:101B30000B4B0B4AD2F8882042F47002C3F888207D
:101B4000084B4CF22052DA81064B4DF62812DA810E
:101B5000044B4FF4E9721A80BD465DF8047B704770
:101B600000ED00E00020054008B5074B044613B126
:101B70000021AFF30080054B1868836A03B19847D2
:101B8000204600F03BF800BF0000000000230000EA
:101B900070B50E4B0E4DED1AAD1000241E46AC4232
:101BA00004D056F8242090470134F8E700F0AAFB4F
:101BB000084D094BED1AAD1000241E46AC4204D06E
:101BC00056F8242090470134F8E770BD2423000024
:101BD000242300002823000024230000024403469D
:101BE000934202D003F8011BFAE77047034613F84B
:101BF000012B002AFBD1181A01387047FEE700BFFD
:101C000001010000415353455254204552524F5256
:101C1000202220257320223A2066696C6520222527
:101C20007322204C696E6520222564222066756E21
:101C30006374696F6E206E616D65202225732220AA
:101C40000A0000002E2E2F647269766572732F666B
:101C5000736C5F647370692E63000000696E737447
:101C6000616E6365203C2041525241595F53495A8D
:101C70004528735F6473706942617365732900005E
:101C80006D6173746572436F6E6669670000000072
:101C900066616C7365000000736C617665436F6EFE
:101CA00066696700636F6D6D616E640068616E6484
:101CB0006C6500007472616E7366657200000000EE
:101CC000675F6473706948616E646C655B305D006A
:101CD000675F6473706948616E646C655B315D0059
:101CE000675F6473706948616E646C655B325D0048
:101CF0002E2E2F647269766572732F66736C5F6522
:101D0000646D612E63000000696E7374616E6365BB
:101D1000203C2041525241595F53495A4528735F34
:101D200065646D6142617365732900006368616E6B
:101D30006E656C203C2046534C5F464541545552DD
:101D4000455F45444D415F4D4F44554C455F4348C9
:101D5000414E4E454C00000074636420213D204EEE
:101D6000554C4C00282875696E7433325F742974A1
:101D70006364202620307831465529203D3D2030AF
:101D800000000000636F6E66696720213D204E559C
:101D90004C4C0000282875696E7433325F74296ECC
:101DA00065787454636420262030783146552920A4
:101DB0003D3D2030000000006C696E6B6564436837
:101DC000616E6E656C203C2046534C5F4645415425
:101DD0005552455F45444D415F4D4F44554C455F1D
:101DE0004348414E4E454C0068616E646C6520214D
:101DF0003D204E554C4C0000282875696E743332D6
:101E00005F7429746364506F6F6C202620307831C2
:101E1000465529203D3D203000000000737263418B
:101E200064647220213D204E554C4C0064657374EF
:101E30004164647220213D204E554C4C000000004E
:101E4000287372635769647468203D3D20315529B9
:101E5000207C7C20287372635769647468203D3D40
:101E600020325529207C7C20287372635769647462
:101E700068203D3D20345529207C7C2028737263E6
:101E80005769647468203D3D2031365529207C7C9B
:101E900020287372635769647468203D3D20333293
:101EA0005529000028646573745769647468203D7F
:101EB0003D20315529207C7C202864657374576946
:101EC000647468203D3D20325529207C7C202864A4
:101ED0006573745769647468203D3D20345529202A
:101EE0007C7C2028646573745769647468203D3D68
:101EF0002031365529207C7C20286465737457690D
:101F0000647468203D3D2033325529007472616E3F
:101F100073666572427974657320252062797465F1
:101F2000734561636852657175657374203D3D202A
:101F3000300000002E2E2F647269766572732F6652
:101F4000736C5F666C657863616E2E6300000000E1
:101F5000696E7374616E6365203C20415252415931
:101F60005F53495A4528735F666C657863616E42BA
:101F700061736573290000006D62496478203C201C
:101F800046534C5F464541545552455F464C455873
:101F900043414E5F4841535F4D4553534147455F71
:101FA0004255464645525F4D41585F4E554D42455C
:101FB000526E286261736529000000002128626169
:101FC00073652D3E4D435220262043414E5F4D43C5
:101FD000525F4D4449535F4D41534B29000000006F
:101FE00062617564526174655F427073203C3D208C
:101FF00031303030303030550000000070726944AC
:102000006976203C3D20736F75726365436C6F6326
:102010006B5F487A00000000636F6E6669670000BE
:1020200028636F6E6669672D3E6D61784D624E75EF
:102030006D203E2030292026262028636F6E666999
:10204000672D3E6D61784D624E756D203C3D20469A
:10205000534C5F464541545552455F464C455843A5
:10206000414E5F4841535F4D4553534147455F42A1
:1020700055464645525F4D41585F4E554D4245527B
:102080006E28626173652929000000006D61736B21
:10209000496478203C3D2028626173652D3E4D43A4
:1020A0005220262043414E5F4D43525F4D41584DD3
:1020B000425F4D41534B29006D62496478203C3D9D
:1020C0002028626173652D3E4D43522026204341F6
:1020D0004E5F4D43525F4D41584D425F4D41534B12
:1020E0002900000021464C455843414E5F49734D3D
:1020F000624F6363757069656428626173652C2043
:102100006D624964782900002828636F6E666967EC
:1021100029207C7C202866616C7365203D3D20650C
:102120006E61626C6529290028636F6E6669672994
:10213000207C7C202866616C7365203D3D20656EA7
:1021400061626C6529000000636F6E6669672D3EF1
:10215000696446696C7465724E756D203C3D203132
:1021600032380000282873657475705F6D62202D09
:10217000203829202D202832202A207266666E29D8
:1021800029203E203000000074784672616D6500A1
:1021900074784672616D652D3E6C656E677468205B
:1021A0003C3D20380000000072784672616D650089
:1021B00068616E646C6500007866657200000000FE
:1021C000786665722D3E6D62496478203C3D20281A
:1021D000626173652D3E4D435220262043414E5F80
:1021E0004D43525F4D41584D425F4D41534B290085
:1021F00021464C455843414E5F49734D624F6363DE
:10220000757069656428626173652C2078666572F3
:102210002D3E6D624964782900000000735F666C92
:10222000657863616E48616E646C655B305D00006B
:102230002E2E2F647269766572732F66736C5F67DA
:1022400070696F2E63000000696E7374616E636560
:10225000203C2041525241595F53495A4528735FEF
:102260006770696F4261736573290000636F6E6602
:1022700069670000535049305F447269766572495E
:10228000525148616E646C657200000053504931D0
:102290005F44726976657249525148616E646C653B
:1022A00072000000535049325F447269766572498A
:1022B000525148616E646C657200000045444D41A6
:1022C0005F48616E646C65495251000043414E3075
:1022D0005F44726976657249525148616E646C65FB
:1022E000720000004750494F5F50696E496E697433
:1022F0000000000000000000000013014300000087
:102300000400FF1FF8B500BFF8BC08BC9E4670472C
:0C231000F8B500BFF8BC08BC9E46704742
:08231C0048E1FF7F0100000011
:04232400350400007C
:04232800110400009C
:10232C000000400100000000000000000000000060
:10233C000000000000000000000000000000000091
:10234C0000000000FC220000000000000000000063
:10235C000000000000000000000000000000000071
:10236C000000000000000000000000000000000061
:10237C000000000000000000000000000000000051
:08238C00000000000000000049
:04000003000004D91C
:00000001FF
