:1000000000000120D904000025050000290500009A
:10001000210500002105000021050000000000006E
:100020000000000000000000000000002D0500009E
:10003000210500000000000031050000350500002A
:10004000390500003D0500004105000045050000A0
:10005000490500004D050000510500005505000050
:10006000590500005D050000610500006505000000
:10007000690500006D0500007105000075050000B0
:100080007905000021050000210500002105000080
:1000900021050000210500002105000021050000C8
:1000A0007D05000081050000850500008905000030
:1000B0008D05000091050000210500009505000058
:1000C000990500009D050000A1050000A5050000A0
:1000D000A9050000AD050000B105000021050000E4
:1000E0002105000021050000210500002105000078
:1000F0002105000021050000210500002105000068
:100100002105000021050000210500002105000057
:100110002105000021050000210500002105000047
:100120002105000021050000210500002105000037
:100130002105000021050000210500002105000027
:1001400021050000B5050000B9050000BD0500004F
:10015000C1050000C50500002105000021050000C3
:100160002105000021050000C9050000CD050000A3
:10017000D1050000D5050000D9050000DD0500000F
:10018000E1050000E5050000210500002105000053
:1001900021050000210500002105000021050000C7
:1001A00021050000210500002105000021050000B7
:1001B00021050000210500002105000021050000A7
:1001C0002105000021050000210500002105000097
:1003F000210500002105000021050000FFFFFFFF8F
:10040000FFFFFFFFFFFFFFFFFFFFFFFFFEFFFFFFFD
:1004100010B5054C237833B9044B13B10448AFF33E
:1004200000800123237010BD7800FF1F0000000032
:10043000A086000008B5064B1BB106480649AFF37D
:1004400000800648036813B1054B03B1984708BD07
:1004500000000000A08600007C00FF1F7400FF1F4A
:1004600000000000154B002B08BF134B9D46A3F561
:10047000803A00218B460F461348144A121A05F0A1
:100480003DFB0F4B002B00D098470E4B002B00D0AC
:1004900098470020002104000D000D48002802D0DC
:1004A0000C48AFF3008005F003FB2000290001F0A9
:1004B000ABFF05F0D7FA00BF0000080000000120E4
:1004C00000000000000000007800FF1F7402FF1F02
:1004D000000000000000000072B60A480A490160EE
:1004E0000A6882F30888094880470949094A0A4B83
:1004F0009A42BEBF51F8040B42F8040BF8E762B60B
:100500000648804708ED00E0000000007157000039
:10051000C88600000000FF1F7800FF1F6504000070
:10052000FFF7FEBF304800473048004730480047DB
:1005300030480047304800473048004730480047BF
:1005400030480047304800473048004730480047AF
:10055000304800473048004730480047304800479F
:10056000304800473048004730480047304800478F
:10057000304800473048004730480047304800477F
:10058000304800473048004730480047304800476F
:10059000304800473048004730480047304800475F
:1005A000304800473048004730480047304800474F
:1005B000304800473048004730480047304800473F
:1005C000304800473048004730480047304800472F
:1005D0002F4800472E4800472D4800472C48004729
:1005E0002B4800472B48004725050000290500003F
:1005F0002D0500003105000035050000713D0000AB
:10060000893D0000A13D0000B93D0000D13D000042
:10061000E93D0000013E0000193E0000313E0000AF
:10062000493E0000613E0000793E0000913E00001E
:10063000A93E0000C13E0000D93E00002105000097
:10064000054C0000214C0000613B00009D3B000078
:100650002105000021050000E951000021050000EE
:100660001D5200002105000051520000210500002C
:100670008552000021050000D93B0000B95200005E
:1006800021050000ED520000210500003D4C000056
:1006900001420000594C000081F0004102E000BF1F
:1006A00083F0004330B54FEA41044FEA430594EA32
:1006B000050F08BF90EA020F1FBF54EA000C55EA6D
:1006C000020C7FEA645C7FEA655C00F0E2804FEA3E
:1006D0005454D4EB5555B8BF6D420CDD2C4480EA20
:1006E000020281EA030382EA000083EA010180EA50
:1006F000020281EA0303362D88BF30BD11F0004F9E
:100700004FEA01314FF4801C4CEA113102D04042D3
:1007100061EB410113F0004F4FEA03334CEA13330E
:1007200002D0524263EB430394EA050F00F0A78026
:10073000A4F10104D5F1200E0DDB02FA0EFC22FA21
:1007400005F2801841F1000103FA0EF2801843FA15
:1007500005F359410EE0A5F120050EF1200E012A06
:1007600003FA0EFC28BF4CF0020C43FA05F3C01844
:1007700051EBE37101F0004507D54FF0000EDCF1BD
:10078000000C7EEB00006EEB0101B1F5801F1BD366
:10079000B1F5001F0CD349085FEA30004FEA3C0C6A
:1007A00004F101044FEA445212F5800F80F09A8060
:1007B000BCF1004F08BF5FEA500C50F1000041EB64
:1007C000045141EA050130BD5FEA4C0C404141EB68
:1007D000010111F4801FA4F10104E9D191F0000F8F
:1007E00004BF01460020B1FA81F308BF2033A3F112
:1007F0000B03B3F120020CDA0C3208DD02F1140C09
:10080000C2F10C0201FA0CF021FA02F10CE002F143
:100810001402D8BFC2F1200C01FA02F120FA0CFC3C
:10082000DCBF41EA0C019040E41AA2BF01EB045185
:10083000294330BD6FEA04041F3C1CDA0C340EDC83
:1008400004F11404C4F1200220FA04F001FA02F3C6
:1008500040EA030021FA04F345EA030130BDC4F184
:100860000C04C4F1200220FA02F001FA04F340EA79
:100870000300294630BD21FA04F0294630BD94F02A
:10088000000F83F4801306BF81F480110134013D11
:100890004EE77FEA645C18BF7FEA655C29D094EA82
:1008A000050F08BF90EA020F05D054EA000C04BF00
:1008B0001946104630BD91EA030F1EBF00210020EB
:1008C00030BD5FEA545C05D14000494128BF41F08A
:1008D000004130BD14F580043CBF01F5801130BDEE
:1008E00001F0004545F0FE4141F470014FF0000079
:1008F00030BD7FEA645C1ABF194610467FEA655C2A
:100900001CBF0B46024650EA013406BF52EA0335CB
:1009100091EA030F41F4002130BD00BF90F0000FB9
:1009200004BF0021704730B54FF4806404F13204F5
:100930004FF000054FF0000150E700BF90F0000FAE
:1009400004BF0021704730B54FF4806404F13204D5
:1009500010F0004548BF40424FF000013EE700BFA5
:1009600042004FEAE2014FEA31014FEA02701FBF35
:1009700012F07F4393F07F4F81F06051704792F007
:10098000000F14BF93F07F4F704730B54FF4607481
:1009900001F0004521F0004120E700BF50EA0102CC
:1009A00008BF704730B54FF000050AE050EA010279
:1009B00008BF704730B511F0004502D5404261EBE9
:1009C00041014FF4806404F132045FEA915C3FF42A
:1009D000DCAE4FF003025FEADC0C18BF03325FEAC3
:1009E000DC0C18BF033202EBDC02C2F1200300FA78
:1009F00003FC20FA02F001FA03FE40EA0E0021FA9D
:100A000002F11444C1E600BF70B54FF0FF0C4CF486
:100A1000E06C1CEA11541DBF1CEA135594EA0C0F3C
:100A200095EA0C0F00F0DEF82C4481EA030621EA77
:100A30004C5123EA4C5350EA013518BF52EA0335B2
:100A400041F4801143F4801338D0A0FB02CE4FF064
:100A50000005E1FB02E506F00042E0FB03E54FF094
:100A60000006E1FB03569CF0000F18BF4EF0010E8C
:100A7000A4F1FF04B6F5007F64F5407404D25FEA88
:100A80004E0E6D4146EB060642EAC62141EA55513B
:100A90004FEAC52040EA5E504FEACE2EB4F1FD0C7D
:100AA00088BFBCF5E06F1ED8BEF1004F08BF5FEAFB
:100AB000500E50F1000041EB045170BD06F00046AD
:100AC00046EA010140EA020081EA0301B4EB5C045A
:100AD000C2BFD4EB0C0541EA045170BD41F4801152
:100AE0004FF0000E013C00F3AB8014F1360FDEBF77
:100AF000002001F0004170BDC4F10004203C35DA53
:100B00000C341BDC04F11404C4F1200500FA05F3D5
:100B100020FA04F001FA05F240EA020001F0004276
:100B200021F0004110EBD37021FA04F642EB0601EC
:100B30005EEA430E08BF20EAD37070BDC4F10C0416
:100B4000C4F1200500FA04F320FA05F001FA04F2DA
:100B500040EA020001F0004110EBD37041F10001C6
:100B60005EEA430E08BF20EAD37070BDC4F12005D1
:100B700000FA05F24EEA020E20FA04F301FA05F239
:100B800043EA020321FA04F001F0004121FA04F2E1
:100B900020EA020000EBD3705EEA430E08BF20EAB1
:100BA000D37070BD94F0000F0FD101F000464000EB
:100BB00041EB010111F4801F08BF013CF7D041EA6D
:100BC000060195F0000F18BF704703F00046520071
:100BD00043EB030313F4801F08BF013DF7D043EA42
:100BE0000603704794EA0C0F0CEA135518BF95EAF8
:100BF0000C0F0CD050EA410618BF52EA4306D1D17F
:100C000081EA030101F000414FF0000070BD50EA9D
:100C1000410606BF1046194652EA430619D094EA27
:100C20000C0F02D150EA013613D195EA0C0F05D111
:100C300052EA03361CBF104619460AD181EA030165
:100C400001F0004141F0FE4141F470014FF000001D
:100C500070BD41F0FE4141F4780170BD70B54FF0B8
:100C6000FF0C4CF4E06C1CEA11541DBF1CEA135538
:100C700094EA0C0F95EA0C0F00F0A7F8A4EB05041A
:100C800081EA030E52EA03354FEA013100F0888011
:100C90004FEA03334FF0805545EA131343EA1263DA
:100CA0004FEA022245EA111545EA10654FEA00268F
:100CB0000EF000419D4208BF964244F1FD0404F548
:100CC000407402D25B084FEA3202B61A65EB0305A4
:100CD0005B084FEA32024FF480104FF4002CB6EB61
:100CE000020E75EB030E22BFB61A754640EA0C00E1
:100CF0005B084FEA3202B6EB020E75EB030E22BF21
:100D0000B61A754640EA5C005B084FEA3202B6EB61
:100D1000020E75EB030E22BFB61A754640EA9C0020
:100D20005B084FEA3202B6EB020E75EB030E22BFF0
:100D3000B61A754640EADC0055EA060E18D04FEAAE
:100D4000051545EA16754FEA06164FEAC30343EA4E
:100D500052734FEAC2025FEA1C1CC0D111F4801F1B
:100D60000BD141EA00014FF000004FF0004CB6E714
:100D700011F4801F04BF01430020B4F1FD0C88BFB3
:100D8000BCF5E06F3FF6AFAEB5EB030C04BFB6EBBE
:100D9000020C5FEA500C50F1000041EB045170BDB1
:100DA0000EF0004E4EEA113114EB5C04C2BFD4EBDE
:100DB0000C0541EA045170BD41F480114FF0000E62
:100DC000013C90E645EA060E8DE60CEA135594EADE
:100DD0000C0F08BF95EA0C0F3FF43BAF94EA0C0FE1
:100DE0000AD150EA01347FF434AF95EA0C0F7FF456
:100DF00025AF104619462CE795EA0C0F06D152EAAA
:100E000003353FF4FDAE1046194622E750EA41068D
:100E100018BF52EA43067FF4C5AE50EA41047FF49E
:100E20000DAF52EA43057FF4EBAE12E74FF0FF3C03
:100E300006E000BF4FF0010C02E000BF4FF0010CD4
:100E40004DF804CD4FEA410C7FEA6C5C4FEA430C4D
:100E500018BF7FEA6C5C1BD001B050EA410C0CBF9C
:100E600052EA430C91EA030F02BF90EA020F0020FE
:100E7000704710F1000F91EA030F58BF994208BF65
:100E800090422CBFD8176FEAE37040F00100704722
:100E90004FEA410C7FEA6C5C02D150EA013C07D179
:100EA0004FEA430C7FEA6C5CD6D152EA033CD3D0C4
:100EB0005DF8040B704700BF8446104662468C46BE
:100EC0001946634600E000BF01B5FFF7B7FF0028F1
:100ED00048BF10F1000F01BD4DF808EDFFF7F4FF1A
:100EE0000CBF012000205DF808FB00BF4DF808EDA5
:100EF000FFF7EAFF34BF012000205DF808FB00BFC8
:100F00004DF808EDFFF7E0FF94BF012000205DF8E9
:100F100008FB00BF4DF808EDFFF7CEFF94BF01209E
:100F200000205DF808FB00BF4DF808EDFFF7C4FF97
:100F300034BF012000205DF808FB00BF4FEA4102EA
:100F4000B2F1E04324BFB3F5001CDCF1FE5C0DD927
:100F500001F0004C4FEAC0024CEA5070B2F1004F71
:100F600040EB830008BF20F00100704711F0804F74
:100F700021D113F13872BCBF01F00040704741F439
:100F800080114FEA5252C2F11802C2F1200C10FA3D
:100F90000CF320FA02F018BF40F001004FEAC12321
:100FA0004FEAD32303FA0CFC40EA0C0023FA02F3C5
:100FB0004FEA4303CCE77FEA625307D150EA01339B
:100FC0001EBF4FF0FE4040F44000704701F000406B
:100FD00040F0FE4040F40000704700BF80B586B08E
:100FE00002AFF860B9607A603B607B6800930448A8
:100FF0003968FA68BB6800F029F800BEFDE700BF59
:10100000206C000080B584B000AFF860B9603B6030
:101010001346FB71FB79002B05D109486921094A68
:10102000094BFFF7DBFFFB79F8681946BA683B68A4
:1010300000F05AF9034618461037BD4680BD00BF80
:10104000606C0000AC810000846C00000FB480B5BF
:10105000A4B000AF0023C7F88C300023C7F8883055
:101060003A1D8023104600211A4604F047FD07F17F
:101070009C03C7F884303B1DD7F89800D7F884103C
:101080001A460B4B00F086FAC7F88C00D7F88C3064
:101090003A1D1046194600F041F9C7F88800D7F804
:1010A000883018469037BD46BDE8804004B0704790
:1010B000B510000080B586B000AFF860B9603B6045
:1010C0001346FB7100237B6100237B611BE0BB683F
:1010D0001B6801337F2B08D9BB681B68F868194669
:1010E00000F01CF9BB6800221A60BB681B68FA6834
:1010F0001344FA791A70BB681B685A1CBB681A60E3
:101100007B6901337B617A693B689A42DFDB183780
:10111000BD4680BD80B584B000AFF860B9607A602C
:10112000BB68002B02D14FF0FF330EE0FB68012BB0
:1011300005D0FB68022B02D04FF0FF3305E07B683F
:10114000B868194600F0EAF87B6818461037BD46C3
:1011500080BD00BF80B584B000AFF860B9607A6030
:10116000FB68002B02D04FF0FF3305E07B68B868C6
:10117000194600F013F9034618461037BD4680BDE6
:1011800080B483B000AF78600B46FB70FB78002B17
:1011900008D07B68DB78DBB243F00803DAB27B6807
:1011A000DA7007E07B68DB78DBB223F00803DAB2A1
:1011B0007B68DA700C37BD465DF8047B704700BF72
:1011C00080B483B000AF78600B46FB70FB78002BD7
:1011D00008D07B68DB78DBB243F00403DAB27B68CB
:1011E000DA7007E07B68DB78DBB223F00403DAB265
:1011F0007B68DA700C37BD465DF8047B704700BF32
:1012000080B588B000AFF860B9607A603B60FB6879
:10121000002B05D11948F021194A1A4BFFF7DEFEC1
:10122000FB681A79184B1A71FB681A68164B1A601A
:10123000154B1B79012B01D0062B1CD107F1140390
:10124000184603F0F5FEBB687B610F4B1A6807F187
:101250001403104619467A6803F06CFD0A4B1B68AC
:1012600018460121FFF78CFF074B1B681846012128
:10127000FFF7A6FF00BF2037BD4680BDB06C000061
:10128000BC810000C86C00009400FF1F80B586B0D0
:1012900000AFF860B9601346FB7100237B61114B0E
:1012A0001B79012B01D0062B13D1FB79002B07D022
:1012B0000C4B1B681846F968BA6803F011FF0BE085
:1012C000084B1B681846F968BA6803F029FF786173
:1012D00002E001237B6100BF7B6918461837BD46D9
:1012E00080BD00BF9400FF1F80B586B000AFF860DE
:1012F0007A603B600B46FB72FB683B61FB7A3B7597
:1013000007F11003184679683A680023FFF778FF61
:10131000002318461837BD4680BD00BF80B582B097
:1013200000AF786039607B68002B06D1074840F237
:101330003F11074A074BFFF751FE7868396800F004
:101340000BF8034618460837BD4680BDD46C000034
:10135000C4810000EC6C000080B584B000AF786000
:1013600039600023FB733B68002B11D07B68002B96
:101370000ED00123FB73FB7B002B09D07868396802
:101380000122FFF783FF0346002B01D000233B60BF
:101390003B6818461037BD4680BD00BF80B584B09D
:1013A00000AF786039607B68002B06D126484FF487
:1013B000B271264A264BFFF711FE0023FB60002383
:1013C000FB6027E0FB687A681344184600F042F897
:1013D0000346002B02D04FF0FF3330E0FB687A6801
:1013E00013441B780D2B05D0FB687A6813441B78D7
:1013F0000A2B0CD1FB68002B08D1FB687A681344D8
:1014000000221A704FF0FF33FB6000E006E0FB683B
:101410000133FB60FA683B689A42D3D3FA683B68B1
:101420009A4205D1FB687A68134400221A7005E0DD
:10143000FB6801337A68134400221A70FB6818466F
:101440001037BD4680BD00BFD46C0000D0810000C5
:10145000EC6C000080B582B000AF78607868012144
:101460000022FFF713FF0346002B01D0012300E009
:10147000002318460837BD4680BD00BF80B48DB03C
:1014800000AFF860B9607A603B600023FB61FB68E5
:10149000BB61BB695A1CBA6100221A707B68002BC1
:1014A00036D0BB681B68FB62FB6A002B07D1BB69A7
:1014B00030221A70FB690133FB61FB6964E023E0B1
:1014C000FA6A3B6892FBF3F37B617B693A6802FB43
:1014D00003F3FA6AD31ABB62BB6A002B06DABB6A53
:1014E0003B623B6AC3F13003BB6202E0BB6A30334C
:1014F000BB627B69FB62BB695A1CBA61BA6AD2B231
:101500001A70FB690133FB61FB6A002BD8D13AE00A
:10151000BB681B687B627B6A002B07D1BB693022EA
:101520001A70FB690133FB61FB692DE028E03B6821
:101530007A6AB2FBF3F33B613B683A6902FB03F35F
:101540007A6AD31A3B623B6A092B03D83B6A303371
:101550003B620AE097F83830002B01D0412300E0CD
:1015600061233A6A13440A3B3B623B697B62BB6975
:101570005A1CBA613A6AD2B21A70FB690133FB6134
:101580007B6A002BD3D1FB6918463437BD465DF822
:10159000047B704790B59DB002AFF860B9607A6087
:1015A0003B6000233B660023FB650023BB610023F7
:1015B00087F84A3000233B61FB687B66A7E17B6CC0
:1015C000252B0BD07B6CDBB207F118025BB23C68B9
:1015D000786811461A460123A04795E1012387F850
:1015E0004B3000237B650023BB651CE07B6E013321
:1015F0007B667B6E1B785BB27B647B6C2F2B0DDD77
:101600007B6C392B0ADC7A6D13469B0013445B001C
:101610001A467B6C1344303B7B6504E07B6E013BD8
:101620007B660123BB65BB6D002BDFD006233B65CA
:101630007B6E01337B667B6E1B785BB22E2B25D1D4
:1016400000233B650023BB651CE07B6E01337B669A
:101650007B6E1B785BB27B647B6C2F2B0DDD7B6C10
:10166000392B0ADC3A6D13469B0013445B001A4683
:101670007B6C1344303B3B6504E07B6E013B7B6637
:101680000123BB65BB6D002BDFD002E07B6E013B0D
:101690007B667B6E01337B667B6E1B785BB27B6403
:1016A0007B6C642B1BD07B6C692B18D07B6C662BFE
:1016B00015D07B6C462B12D07B6C782B0FD07B6CBB
:1016C000582B0CD07B6C6F2B09D07B6C622B06D017
:1016D0007B6C702B03D07B6C752B40F0C7807B6CD0
:1016E000642B02D07B6C692B17D1BB681A1DBA60C2
:1016F0001B687B6107F11C0207F1140397F84B107C
:1017000000911046194601220A23FFF7B7FEF8653B
:1017100007F11C02FB6D13443B667B6C582B02D017
:101720007B6C782B1DD17B6C782B02D1002387F842
:101730004B30BB681A1DBA601B683B6107F11C0285
:1017400007F1100397F84B1000911046194600223C
:101750001023FFF793FEF86507F11C02FB6D13449D
:101760003B667B6C6F2B08D07B6C622B05D07B6C4F
:10177000702B02D07B6C752B58D1BB681A1DBA60D8
:101780001B683B617B6C623B132B3BD801A252F878
:1017900023F000BFED170000051800000518000039
:1017A00005180000051800000518000005180000C5
:1017B00005180000051800000518000005180000B5
:1017C0000518000005180000E5170000F5170000D7
:1017D0000518000005180000051800000518000095
:1017E000FD170000082387F84A300BE0022387F832
:1017F0004A3007E0102387F84A3003E00A2387F8CD
:101800004A3000BF97F84A3007F11C0107F1100277
:1018100097F84B000090084611460022FFF72EFE75
:10182000F86507F11C02FB6D13443B66FB6D7A6D96
:10183000D31A07F118023C68786811462022A047A5
:101840003B6E002B11D00CE03B6E5A1E3A661B78A3
:1018500007F118025BB23C68786811461A4601230A
:10186000A0473B6E1B78002BEED14DE07B6C632BC9
:1018700012D1BB681A1DBA601B68DBB25BB23B6455
:101880003B6CDBB207F118025BB23C68786811462A
:101890001A460123A04737E07B6C732B29D1BB6824
:1018A0001A1DBA601B68FB64FB6C002B2CD0F86C13
:1018B00004F0ACF90346FB65FB6D7A6DD31A07F1B2
:1018C00018023C68786811462022A0470CE0FB6CA7
:1018D0005A1CFA641B7807F118025BB23C687868FE
:1018E00011461A460123A047FB6C1B78002BEED152
:1018F0000AE07B6CDBB207F118025BB23C687868E7
:1019000011461A460123A0477B6E01337B667B6E2E
:101910001B785BB27B647B6C002B7FF450AEBB69A1
:1019200018466C37BD4690BD80B582B000AF786078
:10193000074804F0EBF8074802F018FE78680549FC
:101940004FF0A07202F09EFD0837BD4680BD00BF7B
:10195000046D00000002FF1F80B58AB000AFF86080
:10196000B9607A603B600F4804F0D0F800233B6117
:10197000BB68DBB23B7500237B757B68BB613B6852
:10198000DBB23B773B6B3B623B687B62064804F013
:10199000BDF807F11003F868194603F01BF8283763
:1019A000BD4680BD1C6D0000386D000080B58AB05A
:1019B00000AFF860B9607A603B600F4804F0A6F8A9
:1019C00000233B61BB68DBB23B7501237B757B6801
:1019D000BB613B68DBB23B773B6B3B623B687B6246
:1019E000064804F093F807F11003F868194602F06E
:1019F000F1FF2837BD4680BD1C6D0000486D00001A
:101A000080B584B002AF2D48FFF78EFF2C4804F05C
:101A10007DF82C4BE5221A702A4B009327480E21A3
:101A200010220123FFF798FF274804F06FF8274B97
:101A3000009322480E2110220123FFF7B7FF234B0A
:101A40001B782348194604F061F8224804F05EF838
:101A50001E4B009319480E2107220123FFF7A6FF12
:101A60001A4B1B781A48194604F050F81A4804F02B
:101A70004DF8164B009311480E2107220823FFF75B
:101A800095FF164804F042F800237B600AE00F4AF5
:101A90007B6813441B781248194604F037F87B68BA
:101AA00001337B607B68072BF1DD0E4804F0A6F85C
:101AB000002318460837BD4680BD00BF00600640C1
:101AC000586D0000A400FF1F806D00009C00FF1FE8
:101AD000A06D0000BC6D0000D86D0000EC6D000032
:101AE000006E0000086E000080B586B002AF1D4891
:101AF00004F00CF81C4B00931C480E21012201231A
:101B0000FFF754FF184B1B78BB60174B0093174827
:101B10000E2102220123FFF749FF134B1B787B6044
:101B20001348B9687A6803F0F1FFBB687F2B0BDDBF
:101B3000104BFB60BB681B02FA681343FB60FA683A
:101B40007B681343FB6004E0BB681A027B681343A5
:101B5000FB600948F96803F0D9FF002318461037E5
:101B6000BD4680BD0C6E00009C00FF1F006006405B
:101B70001C6E00000000FFFF3C6E000080B586B0C8
:101B800002AF1D4803F0C2FF1C4B00931C480E21FE
:101B900003220123FFF70AFF184B1B78BB60174B8A
:101BA000009317480E2104220123FFF7FFFE134B79
:101BB0001B787B601348B9687A6803F0A7FFBB689D
:101BC0007F2B0BDD104BFB60BB681B02FA681343D5
:101BD000FB60FA687B681343FB6004E0BB681A0291
:101BE0007B681343FB600948F96803F08FFF00230B
:101BF00018461037BD4680BD506E00009C00FF1F88
:101C0000006006401C6E00000000FFFF606E0000D8
:101C100080B586B002AF1D4803F078FF1C4B0093DF
:101C20001C480E2105220123FFF7C0FE184B1B782C
:101C3000BB60174B009317480E2106220123FFF7C4
:101C4000B5FE134B1B787B601348B9687A6803F0C4
:101C50005DFFBB687F2B0BDD104BFB60BB681B027D
:101C6000FA681343FB60FA687B681343FB6004E087
:101C7000BB681A027B681343FB600948F96803F0EC
:101C800045FF002318461037BD4680BD746E000026
:101C90009C00FF1F006006401C6E00000000FFFF5C
:101CA000846E000080B500AF244803F02FFF244865
:101CB00001F0F4FA234822494FF0A07201F02AFA09
:101CC000214803F023FF214B214A1A601F4B214A70
:101CD0005A601E4B02229A601C4B4FF48012DA604D
:101CE0001B4BF5221A701A4B00225A70184B1B78A6
:101CF0001A46174B1B78184811461A4603F006FF80
:101D0000164803F003FF0F48104901F0C5FC114BC2
:101D10001B781A460F4B1B78114811461A4603F0E0
:101D2000F5FE0C4B5B781A460A4B5B780D48114662
:101D30001A4603F0EBFE0023184680BD986E0000A3
:101D40000002FF1F00C00240B06E00005C01FF1FD8
:101D5000B000FF1FAC00FF1FCC6E0000E86E00005B
:101D6000FC6E0000246F000080B500AF384803F01F
:101D7000CDFE384801F092FA374836494FF0A0724C
:101D800001F0C8F9354803F0C1FE354B354A1A60F9
:101D9000334B354A5A60324B02229A60304B4FF433
:101DA0008012DA602F4BC3221A702E4BFF225A701A
:101DB0002C4BC4229A702B4BFF22DA7026482849FC
:101DC00001F06AFC284B1B781A02274B5B781343FF
:101DD0002648194603F09AFE224BC5221A70214B61
:101DE000FF225A701F4BC6229A701E4BFF22DA70D8
:101DF00019481B4901F050FC1B4B1B781A021A4B67
:101E00005B7813431A48194603F080FE154BC7222E
:101E10001A70144BFF225A70124BC8229A70114B41
:101E2000FF22DA700C480E4901F036FC0E4B1B788D
:101E30001A020D4B5B7813430E48194603F066FEF9
:101E40000D4803F0DBFE41F2883000F0CBFBA9E740
:101E5000986E00000002FF1F00C00240B06E00003C
:101E60005C01FF1FB000FF1FAC00FF1F4C6F0000A4
:101E70006C6F00008C6F0000AC6F000080B500AF8D
:101E80001D4803F043FE1D4801F008FA1C481B4999
:101E90004FF0A07201F03EF91A4803F037FE1A4BDA
:101EA0001A4A1A60184B1A4A5A60174B02229A6053
:101EB000154B4FF48012DA60144BC1221A70134B89
:101EC000FF225A70114BC2229A70104BFF22DA7017
:101ED0000B480D4901F0E0FB0D4B1B781A020C4B2F
:101EE0005B7813430B48194603F010FE41F288302B
:101EF00000F078FBE0E700BF986E00000002FF1FD3
:101F000000C00240B06E00005C01FF1FB000FF1F68
:101F1000AC00FF1F4C6F000080B582B000AF78604E
:101F200039603B68012B06D907484FF4FD71074A19
:101F3000074BFFF753F87B683A68043253F82230B6
:101F400018460837BD4680BDB06F0000E081000034
:101F5000C86F00000000000080B584B000AF9A4850
:101F600003F0D4FD994800F027FC9948974900F008
:101F700097FB984803F042FE974B10221A60964B4D
:101F800000221A71944B00225A71944B1B6890489E
:101F90001946914A00F042FC904B1B688C48194648
:101FA00000F07CFC02468E4B1A608C4B1B68884804
:101FB0001946FFF7B1FF02468A4B1A60884B196831
:101FC000884B1A68874B1B68874803F09FFD08E021
:101FD000824B1B687E48194600F060FC0246804B2D
:101FE0001A607F4B1B6803F08003002BF0D07B4B03
:101FF0001B6877481946FFF78FFF0246794B1A6036
:10200000774B1968774B1A68764B1B68764803F054
:102010007DFD744B1A6813465B011A44734BA3FB96
:102020000213DB08FB60FB684FF47A7202FB03F3D8
:10203000FB60FB686E4A82FB03121A44D212DB1764
:10204000D31AFB60FB686B4A82FB03129211DB1709
:10205000D31ABB60BB68684A02FB03F2FB681344F7
:102060007B60664803F052FD6548B9687A6803F002
:102070004DFD644803F0C2FD634803F047FDFB6873
:10208000C3F5A563043307EE103AF8EEC77AC7ED3F
:10209000007A3868FEF764FC02460B461046194683
:1020A00041A3D3E90023FEF7AFFC02460B461046DE
:1020B0001946FEF743FF03463B603868FEF750FCC5
:1020C00002460B461046194639A3D3E90023FEF712
:1020D000E9FA02460B4610461946FEF72FFF034663
:1020E0003B603868FEF73CFC02460B4643EC102B85
:1020F00003F05CFB53EC102B10461946FEF71EFF55
:1021000003463B603868FEF72BFC02460B462AA1CB
:10211000D1E90001FEF7C4FA02460B461046194603
:10212000FEF70CFF03463B603868FEF719FC0246D9
:102130000B461046194622A3D3E90023FEF78EFD75
:1021400002460B4610461946FEF7F8FE03463B6072
:1021500097ED007AF3EE0E7A77EE277AC7ED007AE4
:10216000D7ED007AFDEEE77A17EE903ABB60BB68D8
:1021700007EE103AF8EEC77A97ED007A37EE677AF5
:10218000DFED227A67EE277AFDEEE77A17EE903AD6
:102190007B601F48B9687A6803F0B8FC18461037AE
:1021A000BD4680BDAFF3008066BD18CA8976853F05
:1021B000EDFB709010C9504017D9CEF75363204003
:1021C00066BD18CA897675BFE46F00002802FF1F3C
:1021D00000B00B40FC6F00003C02FF1FB400FF1F6B
:1021E0003402FF1F2402FF1F04700000CDCCCCCCB2
:1021F00081000880D34D621018FCFFFF287000009A
:102200003C700000447000004C70000000007A44F4
:1022100064700000AFF3008080B500AF104801F09B
:10222000AFFF0F4B00225A700D4B0122DA740C4B9A
:1022300001221A750A4B4FF0C0425A60084BFF2228
:102240009A60074B01229A75054B01225A75044B7F
:102250000122DA750348024901F08CFE80BD00BFFF
:102260004402FF1F00C0004080B582B000AF384874
:1022700003F0C4FCFFF7D0FF364803F0BFFC36483C
:1022800003F0BCFC354B7B607B681B78FB70FB78F4
:102290003348194603F03AFC324B7B607B681B786D
:1022A000FB70FB783048194603F030FC4FF0C04318
:1022B0007B607B681B78FB70FB782C48194603F029
:1022C00025FC2B4803F09AFC2A4B7B607B68AA22F2
:1022D0001A70294803F01AFC284B7B607B68552252
:1022E0001A70274803F012FC224B7B607B68902217
:1022F0001A70244803F082FC4FF0C0437B607B6877
:102300001B78FB70FB781948194603F0FFFB1E4B46
:102310007B607B681B78FB70FB781C48194603F0D8
:10232000F5FB1B4B7B607B681B78FB70FB781948C7
:10233000194603F0EBFB184B7B607B681B78FB7046
:10234000FB781648194603F0E1FB0837BD4680BD0F
:10235000807000009C700000B070000055000060AC
:10236000CC700000AA000060E8700000047100005A
:1023700020710000AA0A0060387100005405006056
:102380004C71000060710000010000607471000079
:102390000E000060907100000F000060AC71000042
:1023A00080B483B000AF786039607B683A685A6067
:1023B0000C37BD465DF8047B704700BF80B582B026
:1023C00000AF7860396078683968FFF7E9FF08374F
:1023D000BD4680BD80B483B000AF786039607B6853
:1023E0003A68DA600C37BD465DF8047B704700BF81
:1023F00080B582B000AF7860396078683968FFF7DF
:10240000E9FF0837BD4680BD80B582B000AF03F05C
:102410001BF802F0A7FF02F071FF5A4803F076FBA9
:1024200001233B7100237B713B1D574806211A464F
:1024300001F034FF3B1D544807211A4601F02EFFDE
:1024400051484021FFF7BAFF4F488021FFF7D0FFE6
:1024500000F0C8F803F01AFB0346FB7197F9073048
:10246000613B142B00F2878001A252F823F000BFD9
:10247000C52400007725000077250000772500009F
:1024800077250000DF240000F1240000452500002E
:102490000325000077250000772500007725000040
:1024A00077250000772500007725000077250000BC
:1024B0007725000077250000CD24000021250000AD
:1024C00033250000314803F021FB58E0304803F089
:1024D0001DFB304803F01AFBFFF7E4FB4FE02E48EA
:1024E00003F014FB2D4803F011FBFFF7BDFE46E09F
:1024F0002B4803F00BFB2B4803F008FBFFF734FCE1
:102500003DE0294803F002FB284803F0FFFAFFF7FB
:1025100077FAFFF7E9FAFFF731FBFFF779FB2EE0D7
:10252000234803F0F3FA234803F0F0FAFFF7A6FC80
:1025300025E0214803F0EAFA204803F0E7FAFFF724
:102540000BFD1CE01E4803F0E1FA1E4803F0DEFA22
:102550001D4803F0DBFA1D4803F0D8FA1C4803F0CD
:10256000D5FA1C4803F0D2FA1B4803F0CFFA1B48F7
:1025700003F0CCFA03E01A4803F0C8FA00BF00BF2A
:1025800062E700BFE072000000F00F40F47200004C
:102590000C730000247300003873000050730000B7
:1025A000647300007C7300008C730000A47300004F
:1025B000BC730000D4730000F073000008740000C6
:1025C0002874000040740000547400006874000017
:1025D0007C74000098740000B8740000DC74000083
:1025E000FC74000080B483B000AF00237B60002344
:1025F0007B6003E000BF7B6801337B607A68044B3B
:102600009A42F7D90C37BD465DF8047B704700BF8E
:102610009F86010080B485B000AF78607B681B0C9A
:1026200003F1804303F58E23FB60FB68FA681168B1
:102630007A6892B2012000FA02F20A431A60143753
:10264000BD465DF8047B704780B584B000AF78600C
:102650000023FB600AE00E4BFA6853F822207B68E7
:102660009A4200D105E0FB680133FB60FB68012B57
:10267000F1D9FB68012B05D906484A21064A074BC8
:10268000FEF7ACFCFB6818461037BD4680BD00BFA6
:102690000082000014750000108200002C750000FC
:1026A00080B584B000AF786039603B68002B05D1FD
:1026B0003D4851213D4A3E4BFEF790FC7868FFF7BC
:1026C000C3FF02463B4B53F822301846FFF7A2FFE8
:1026D0003B685B7803F003023B681B799B0003F0C7
:1026E0000C031343FB603B685B79042B03D0FB684E
:1026F00043F01003FB603B68DB785B0103F0600391
:10270000FA681343FB603B68DB79002B03D0FB685E
:1027100043F08003FB607B68FA689A607B68DB6843
:1027200023F00F03FB603B685B79042B06D03B680A
:102730005B7903F00303FA681343FB603B689B7902
:10274000002B03D0FB6843F00403FB603B689B78DD
:10275000002B03D0FB6843F00803FB607B68FA683A
:10276000DA607B681B6A23F00303FB603B681B781D
:1027700003F00303FA681343FB607B68FA681A628C
:102780003B681B7A002B06D07B685B6A43F008022B
:102790007B685A6205E07B685B6A23F008027B680D
:1027A0005A621037BD4680BD1475000024820000B7
:1027B000507500000882000080B582B000AF7860DC
:1027C0007B68002B05D112489121124A124BFEF76B
:1027D00005FC7B6800221A707B6803225A707B68B4
:1027E00001229A707B680322DA707B6801221A71D9
:1027F0007B6804225A717B6800229A717B680022F0
:10280000DA717B6800221A720837BD4680BD00BFAE
:1028100014750000308200005075000080B586B04D
:1028200000AFF860B9607A60BB68012B06D9174821
:1028300040F25711164A174BFEF7D0FB7B68002B6E
:1028400006D112484FF4AC71114A134BFEF7C6FB88
:102850007B681B6803F01F037B617B685B79002B3F
:1028600003D07B6943F020037B617B681B79002BDD
:1028700003D07B6943F040037B61FB68BA687969E8
:1028800043F822101837BD4680BD00BF1475000004
:1028900048820000607500005075000080B584B06B
:1028A00000AF786039603B68012B06D90C4840F2D4
:1028B0006D110C4A0C4BFEF791FB0023FB607B680B
:1028C0003A6853F8223003F08003002B03D0FB68F2
:1028D00043F08003FB60FB6818461037BD4680BD9F
:1028E00014750000608200006075000080B483B041
:1028F00000AF7860074B074A126822F440217A68DB
:10290000920402F440220A431A600C37BD465DF877
:10291000047B70470070044080B483B000AF7860DF
:102920000A490A4B03F5805304331B6823F48032B1
:102930007B681B0403F480331A4301F5805304338E
:102940001A600C37BD465DF8047B70470070044088
:1029500080B582B000AF174B1B7BDBB203F00103E5
:10296000002B02D0012B0ED01BE0134B1B68002B59
:1029700005D11248EC21124A124BFEF72FFB0E4BE9
:102980001B687B6010E0104B1B68002B05D10B48C7
:10299000F1210B4A0D4BFEF721FB0B4B1B687B60B3
:1029A00002E000237B6000BF7B6818460837BD4605
:1029B00080BD00BF004006406C02FF1F8075000014
:1029C0007C820000987500006802FF1FA47500005B
:1029D00080B582B000AFFFF7BBFF78607B68002B4B
:1029E00001D17B684AE0274B1B78DBB203F0380348
:1029F000DB08FB70FB787A6822FA03F37B60214BDB
:102A00005B78DBB203F030031B09BB701D4B1B7BF3
:102A1000DBB203F001037B70BB78002B2DD07B78F9
:102A2000002B2AD1FB78072B24D801A151F823F0E1
:102A3000512A0000512A0000512A0000512A0000AA
:102A4000512A0000512A0000592A0000672A00007C
:102A50007B685B097B6010E07A680B4BA3FB021379
:102A60001B097B6009E07A68084BA3FB0213DB08B3
:102A70007B6002E000237B6000BF7B68184608375C
:102A8000BD4680BD00400640CDCCCCCCABAAAAAAA6
:102A900080B400AF0C4B9B79DBB203F00103002B39
:102AA00002D10A4B1B6809E0094B1A68064B1B7AD6
:102AB000DBB203F00E035B0822FA03F31846BD46AF
:102AC0005DF8047B704700BF004006400000FF1F18
:102AD0000400FF1F80B500AF074B9B79DBB203F00A
:102AE00010031B09002B03D1FFF772FF034601E01F
:102AF000024B1B68184680BD004006400000FF1FC7
:102B000080B500AFFFF724FF0346184680BD00BF25
:102B100080B500AF00F02AF80246064B03F5825359
:102B200004331B6803F070631B0E0133B2FBF3F335
:102B3000184680BD0070044080B582B000AF786058
:102B4000094B7A68526803F5825304331A607B6834
:102B50001B781846FFF7E0FE7B685B781846FFF7A6
:102B6000C5FE0837BD4680BD0070044080B582B008
:102B700000AF164B9B79DBB203F00C039B083B6064
:102B80003B68032B1AD801A252F823F0A52B0000B2
:102B9000AD2B0000B52B00009D2B000000F052F87B
:102BA00078600EE000F014F878600AE0FFF770FF3C
:102BB000786006E0FFF7CCFE786002E000237B60DF
:102BC00000BF7B6818460837BD4680BD0040064000
:102BD00080B582B000AF194B5B78DBB203F0020323
:102BE000002B06D1154B9B79DBB203F02003002BA1
:102BF00001D000231DE0FFF76DFF78607B68002B9C
:102C000001D17B6815E00D4BDB78DBB203F060038C
:102C10005B09FB70094BDB78DBB2DB09BB70F97831
:102C2000BA78074B49000A4433F812307A6802FB3D
:102C300003F318460837BD4680BD00BF004006407C
:102C40009482000080B582B000AF184B9B79DBB254
:102C500003F04003002B01D1002322E0FFF750FFD7
:102C600078607B68002B06D1114840F27A21114A26
:102C7000114BFEF7B3F90D4B1B79DBB203F01F03C9
:102C800001337A68B2FBF3F37B60084B5B79DBB20C
:102C900003F01F0303F118027B6802FB03F37B6060
:102CA0007B6818460837BD4680BD00BF004006401F
:102CB00080750000A4820000B475000080B485B067
:102CC00000AF13460246FA710A46BA717B713B4B5C
:102CD0009B79DBB203F00C039B08FB60374B9B79BD
:102CE000DBB203F00103FB72344B1B7ADBB203F05F
:102CF0000E035B08BB727A79BB7A9A422CD0FB7ABE
:102D0000012B19D1FB68012B06D02C4B1B78DBB2B1
:102D100003F00203002B0FD0284B284A5278D2B27E
:102D200022F00102D2B25A7000BF244B9B79DBB271
:102D300003F00103002BF8D1204B204A127AD2B2C3
:102D400022F02F02D1B27A795200D2B202F00E02F2
:102D5000D2B20A43D2B21A72184B184A5278D2B27F
:102D600022F00102D1B2BA7902F00102D2B20A43D2
:102D7000D2B25A70114B114A1278D2B222F0030229
:102D8000D1B2FA790A43D2B21A70FB68012B04D08F
:102D9000FB7903F00203002B08D000BF074B9B799F
:102DA000DBB203F00102BB799A42F7D10023184647
:102DB0001437BD465DF8047B704700BF00400640F5
:102DC00080B584B000AF0B463A600246FA71BB7121
:102DD0000023FB732A4BDB78BB73294B9B79DBB257
:102DE00003F010031B09002B09D10123FB73244BB3
:102DF000234AD278D2B282F02002D2B2DA70204BCB
:102E00001F4A1278D2B202F03B02D2B242F0040260
:102E1000D2B21A7000BF1A4B9B79DBB203F01003D9
:102E20001B09012BF7D1FB7B002B02D0144BBA7B83
:102E3000DA70134BBA7B02F01F02D1B2FA79D201D9
:102E4000D0B2BA795201D2B202F06002D2B20243D9
:102E5000D2B20A43D2B2DA7000BF094B9B79DBB21F
:102E600003F00C039B08002BF7D13B68002B01D02B
:102E70003B689847002318461037BD4680BD00BF09
:102E80000040064080B582B000AF0B463A60024673
:102E9000FA71BB71FA79BB79104619463A68FFF7A7
:102EA0008FFF034618460837BD4680BD80B485B005
:102EB00000AF78607B681B0C03F1804303F58E2321
:102EC000FB60FB68FA6811687A6892B2012000FA28
:102ED00002F20A431A601437BD465DF8047B70475E
:102EE00080B483B000AF78600B46FB70FB78002B9A
:102EF00006D07B681B6823F480427B681A6005E07B
:102F00007B681B6843F480427B681A600C37BD46BF
:102F10005DF8047B704700BF80B483B000AF786079
:102F20007B68DB6A18460C37BD465DF8047B70474A
:102F300080B483B000AF786039607B683A68DA6249
:102F40000C37BD465DF8047B704700BF80B483B08A
:102F500000AF786039607B681A6B3B68DB431A40CE
:102F60007B681A630C37BD465DF8047B704700BF71
:102F700080B483B000AF78600B46FB707B681B6841
:102F800023F00042FB78DB071A437B681A600C379A
:102F9000BD465DF8047B704780B483B000AF7860B5
:102FA0007B681B68DB0FDBB218460C37BD465DF84B
:102FB000047B704780B483B000AF78607B681B6887
:102FC00023F001027B681A600C37BD465DF8047B74
:102FD000704700BF80B483B000AF78607B681B6827
:102FE00043F001027B681A600C37BD465DF8047B34
:102FF000704700BF80B483B000AF786013460A46C4
:10300000FA70BB707B681B6823F44062FB78DB02BC
:1030100003F400631A43BB789B0203F480631A43F2
:103020007B681A600C37BD465DF8047B704700BFB3
:1030300080B483B000AF78607B681B78DA077B6868
:103040005B781B0703F0E0431A437B689B781B0403
:1030500003F47C131A437B68DB78DB0603F0006320
:103060001A437B681B799B0603F080631343184661
:103070000C37BD465DF8047B704700BF80B483B059
:1030800000AF78607B689B6B18460C37BD465DF8D7
:10309000047B704780B584B000AF78600023FB608C
:1030A0000AE00E4BFA6853F822207B689A4200D15E
:1030B00005E0FB680133FB60FB68022BF1D9FB687C
:1030C000022B05D90648A221064A074BFDF786FFC9
:1030D000FB6818461037BD4680BD00BF588300000E
:1030E000C875000070830000E075000080B584B0F2
:1030F00000AF78600B46FB707868FFF7CBFFF86095
:10310000034AFB681344FA781A701037BD4680BD35
:10311000CC00FF1F80B588B002AFF860B9607A605C
:10312000BB68002B05D15848AF21584A584BFDF7D2
:1031300055FFF868FFF7AEFF0246564B53F82230B2
:103140001846FFF7B3FEF8680121FFF7C9FEF868DB
:10315000FFF740FFF8680121FFF70AFFFB681B68D3
:1031600023F08A4323F44C537B61BB689B7F9B070E
:1031700003F080427B691A43BB6893F820309B06BA
:1031800003F080631A43BB68DB7F1B0603F0807388
:103190001A43BB6893F821301B0203F440731A43AF
:1031A000FB681A60BB681A7FBB685B7FF8681146D2
:1031B0001A4600F0BDF8BB681A78BB685B68F8680F
:1031C00011461A467B6800F0D9F80346002B05D15A
:1031D0002D48C8212D4A304BFDF700FFBB681B78F6
:1031E000FA6802339B0013445B6823F0FE437B6163
:1031F000BB681B78BA689268013AD20602F0F041C7
:103200007A691143BA68127B920602F08062114318
:10321000BA68527B520602F000721143BA68927B80
:10322000120602F080720A43F96802339B000B44D5
:103230005A60BB681B78BA6812690092F868194630
:1032400001227B6800F092F9BB681B78BA6852696A
:103250000092F868194602227B6800F087F9BB6883
:103260001B78BA6892690092F868194603227B6855
:1032700000F07CF9F8680021FFF738FFF868FFF7E5
:1032800099FE1837BD4680BDC875000084830000D4
:1032900004760000648300001476000080B582B0DC
:1032A00000AF78607B68002B05D11D48DF211D4AE7
:1032B0001D4BFDF793FE7B6800221A707B681B4A4A
:1032C0005A607B6808229A607B6800221A737B68C8
:1032D00000225A737B6800229A737B684FF47A72DB
:1032E0001A617B684FF47A725A617B684FF47A7284
:1032F0009A617B6801221A777B6801225A777B6882
:1033000000229A777B680022DA777B68002283F8B4
:1033100020207B68002283F821200837BD4680BD2D
:10332000C8750000948300000476000020A1070007
:1033300080B485B000AF786013460A46FA70BB705F
:103340007B681B68FB60BB78012B07D1FB781B04F3
:1033500003F47C13FA681343FB6007E0FB781B045B
:1033600003F47C13DB43FA681340FB607B68FA6864
:103370001A601437BD465DF8047B704780B590B085
:1033800000AFF8607A603B600B46FB72F868FFF7AD
:1033900003FE034683F00103DBB2002B01D00023C0
:1033A00071E07B68FB614FF0FF333B620023BB633E
:1033B00000233B630123BB6200237B620023FB638A
:1033C00041E000237B6335E00123FB6229E03B6899
:1033D000FA6A02FB03F22E4BF96B53F821302D49A8
:1033E000786B51F8201001FB03F3B2FBF3F3BB61E0
:1033F000FA69BB699A4211D3FA69BB69D31A7B6136
:103400003A6A7B699A4209D97B693B62FB6BBB6371
:103410007B6B3B63BB697B62FB6ABB62FB6A01330C
:10342000FB62FB6A022B02D83B6A002BCFD17B6B7D
:1034300001337B637B6B0F2B02D83B6A002BC3D11C
:10344000FB6B0133FB63FB6B032B02D83B6A002B46
:10345000B7D1FB7AFA6802339B0013445A680E4BCB
:1034600013403B61FB7ABA6A013AD1073A691143CA
:10347000BA6B120411433A6B0A43F96802339B009A
:103480000B445A607B6A18464037BD4680BD00BF7A
:10349000B8820000C8820000F0FFFC7F80B584B0D5
:1034A00000AFF8607A603B600B46FB72F868FFF78C
:1034B00073FD0346002B56D03B7E022B1ED0032B00
:1034C00037D0012B00D04EE0F87AFB7AFA6802334D
:1034D0009B0013445B6823F4400323F470437A6831
:1034E000920502F440021A433B681B039BB21A4345
:1034F000F968831C9B000B445A6034E0F87AFB7A2D
:10350000FA6802339B0013445B6823F4401323F4EE
:1035100070637A68120502F440121A433B681B027A
:1035200003F470631A43F968831C9B000B445A60D0
:1035300019E0F87AFB7AFA6802339B0013445B685F
:1035400023F4402323F0F0037A68920402F440222B
:103550001A433B681B01DBB21A43F968831C9B00CA
:103560000B445A6000BF1037BD4680BD80B590B097
:1035700002AFF8607B600B46FB721346BB72F868C3
:10358000FFF70AFD034683F00103DBB2002B01D0F5
:10359000002375E04FF0FF333B6203233B630F23AF
:1035A000BB62394A7B68B2FBF3F3384A396B52F895
:1035B000212002FB03F3364AB96A52F8212002FBAC
:1035C00003F39B087B62334A7B68B2FBF3F35B0037
:1035D000FB61FA693B6C9A420AD3FB7ABA7A009291
:1035E000F868194600220023FFF758FFFB6947E0FF
:1035F00000237B6334E00023FB6228E0224A7B68DF
:10360000B2FBF3F3214A796B52F8212002FB03F35A
:103610001F4AF96A52F8212002FB03F39B08BB61A1
:10362000BA693B6C9A420FD3BA693B6CD31A7B617F
:103630003A6A7B699A4207D97B693B627B6B3B6341
:10364000FB6ABB62BB697B62FB6A0133FB62FB6A9C
:103650000F2B02D83B6A002BD0D17B6B01337B63ED
:103660007B6B032B02D83B6A002BC4D1FB7ABA7A5E
:103670000092F86819463A6BBB6AFFF70FFF7B6A46
:1036800018463837BD4680BD00286BEE0883000021
:103690001883000000CA9A3B80B58EB000AF7860F6
:1036A00039603B68002B06D1A5484FF41571A54A37
:1036B000A54BFDF793FC0023FB860023FB83786872
:1036C000FFF7E8FC0346A14AD35C7B773B689B6825
:1036D000002B01D104231FE27868FFF77BFC786898
:1036E0009B49FFF733FC786801210122FFF782FC38
:1036F00078689849FFF71CFC3B68DB6803F0F0032F
:103700001B09012202FA03F3DBB2BB730023FB7334
:1037100000233B743B68DB68DBB203F00F03DBB2D2
:103720007B733B68DB6803F48013002B0CBF002322
:103730000123DBB23B7307F10C031846FFF778FC5B
:10374000B8610123FB733B68DB6803F40013002BB3
:103750000CBF00230123DBB23B7307F10C031846B7
:10376000FFF766FC78617B7B7A6802339B00134429
:103770005B6803F0F043DB0EDBB20133FB743B68A4
:103780001B683B633B685B68FB623B689B68BB6292
:103790003B689B687B627B681B6803F48053002B4B
:1037A00005D17B681B6803F40053002B02D0012372
:1037B0003B6214E07A68684B9A420ED07A68674B95
:1037C0009A4208D07A68664B9A4201D1012305E0FB
:1037D0004FF0FF3302E0012300E004233B627868EE
:1037E000FFF7E8FBFB7C082B00F2A980A2E0BB6A94
:1037F000012B4ED104E078684FF00071FFF798FB81
:103800007868FFF789FB034603F00073002BF2D0C2
:103810003B6B002B0AD03B6B1B781A467B691A4323
:103820007B685A633B6B01333B6304E07A7F7B69BF
:103830001A437B685A6378684FF00071FFF778FB92
:10384000BB6A013BBB6220E07868FFF765FB03467B
:1038500003F40033002B18D0FB6A002B0AD07868E1
:10386000FFF70CFC0346DAB2FB6A1A70FB6A0133FD
:10387000FB6202E07868FFF701FC7B6A013B7B6238
:1038800078684FF40031FFF753FB7B6A002BDBD1E4
:1038900050E004E078684FF00071FFF749FB78686A
:1038A000FFF73AFB034603F00073002BF2D03B6BAB
:1038B000002B0AD03B6B1B781A46BB691A437B6806
:1038C0005A633B6B01333B6304E07A7FBB691A4365
:1038D0007B685A63BB6A013BBB6278684FF000713A
:1038E000FFF726FB20E07868FFF716FB034603F49A
:1038F0000033002B18D0FB6A002B0AD07868FFF742
:10390000BDFB0346DAB2FB6A1A70FB6A0133FB6245
:1039100002E07868FFF7B2FB7B6A013B7B62786864
:103920004FF40031FFF704FB7A6ABB6AD21A3B6A94
:103930009A42D8D2BB6A002B7FF459AFEBE0E6E0A5
:10394000C8750000B083000038760000CC00FF1F6F
:1039500000000A9A00000ADA00C0024000D00240CB
:1039600000C00A40BB6A022B70D804E078684FF0B0
:103970000071FFF7DDFA7868FFF7CEFA034603F02F
:103980000073002BF2D03B6B002B13D03B6B1B78EA
:10399000FB863B6B01333B63BB6A012B0CD93B6B52
:1039A0001B781B029AB2FB8E1343FB863B6B0133E1
:1039B0003B6301E07B7FFB86FA8E7B691A437B6861
:1039C0005A6378684FF00071FFF7B2FA0023BB62C8
:1039D00038E07868FFF7A0FA034603F40033002BC1
:1039E00030D07868FFF74AFB0346FB837B6A012BE4
:1039F00016D0FB6A002B0FD0FB8BDAB2FB6A1A7071
:103A0000FB6A0133FB62FB8B1B0A9BB2DAB2FB6AD7
:103A10001A70FB6A0133FB627B6A023B7B620CE03B
:103A2000FB6A002B06D0FB8BDAB2FB6A1A70FB6ACA
:103A30000133FB627B6A013B7B6278684FF40031A3
:103A4000FFF776FA7B6A002BC3D160E004E0786868
:103A50004FF00071FFF76CFA7868FFF75DFA0346E4
:103A600003F00073002BF2D03B6B002B10D03B6BAC
:103A70001B78FB863B6B01333B633B6B1B781B0264
:103A80009AB2FB8E1343FB863B6B01333B6301E031
:103A90007B7FFB86FA8EBB691A437B685A63BB6ADD
:103AA000023BBB6278684FF00071FFF741FA27E0F4
:103AB0007868FFF731FA034603F40033002B1FD078
:103AC0007868FFF7DBFA0346FB83FB6A002B0FD015
:103AD000FB8BDAB2FB6A1A70FB6A0133FB62FB8B69
:103AE0001B0A9BB2DAB2FB6A1A70FB6A0133FB62F3
:103AF0007B6A023B7B6278684FF40031FFF718FA6B
:103B00007A6ABB6AD31A5A083B6A9A42D0D2BB6A15
:103B1000002B7FF427AF002318463837BD4680BD01
:103B200080B582B000AF786039607868FFF734FA0A
:103B30000346002B05D0084B1B6878683968984706
:103B400004E0064B1B68786839689847BFF34F8FCD
:103B50000837BD4680BD00BFC400FF1FC800FF1F5F
:103B600080B500AF084B1B68002B06D1074840F218
:103B7000E161074A074BFDF731FA034B1B68064822
:103B80001946FFF7CDFF80BDB800FF1FC8750000C4
:103B9000CC8300004C76000000C0024080B500AF2E
:103BA000084B5B68002B06D1074840F2E961074AE1
:103BB000074BFDF713FA034B5B6806481946FFF7FE
:103BC000AFFF80BDB800FF1FC8750000E483000090
:103BD0005C76000000D0024080B500AF084B9B68C7
:103BE000002B06D1074840F2F161074A074BFDF769
:103BF000F5F9034B9B6806481946FFF791FF80BD16
:103C0000B800FF1FC8750000FC8300006C76000040
:103C100000C00A4090B589B000AF78607B68002B87
:103C200006D1504840F24B314F4A504BFDF7D6F980
:103C30007B689B687A68127CDA777B68DB68002B8C
:103C40000DD17B681B68002B09D07B681C687B68E2
:103C50005B687868194601220023A0477EE07B68F4
:103C60009A687B681B7C5B01134403F5805318330F
:103C70001B687B617B689A687B681B7C5B011344D3
:103C800003F5805318339B889BB203F08003002B0D
:103C90000CBF00230123FB747B68DB687A69D31AAD
:103CA0007B617B695B09FB60FB7C002B02D0FB68BE
:103CB000FB760EE0FB68002B04D0FB68DBB2013B17
:103CC000DBB205E07B681B7DDBB2DBB2013BDBB224
:103CD000FB76FA7E7B685B7CDBB25BB29A4212D1E8
:103CE0007B68DB7CDAB27B681B7DDBB252B25BB2F5
:103CF0009A4205D17B68DB7CDBB25BB2FB6113E0EF
:103D00000023FB6110E0FA7E7B685B7CDBB25BB278
:103D1000D31AFB61FB69002B06DA7B681B7DDBB2E3
:103D20005BB2FA691344FB61FA7E7B685A747B6864
:103D3000DB7CDBB2DAB2FB69DBB2D31ADBB2DAB21C
:103D40007B68DA747B681B68002B07D07B681C6873
:103D50007B685968FB69FA7C7868A0472437BD46C0
:103D600090BD00BF7C7600001484000074770000D2
:103D700080B500AF034B1B681846FFF74BFFBFF33E
:103D80004F8F80BDD000FF1F80B500AF034B5B6835
:103D90001846FFF73FFFBFF34F8F80BDD000FF1FD6
:103DA00080B500AF034B9B681846FFF733FFBFF3A6
:103DB0004F8F80BDD000FF1F80B500AF034BDB6885
:103DC0001846FFF727FFBFF34F8F80BDD000FF1FBE
:103DD00080B500AF034B1B691846FFF71BFFBFF30D
:103DE0004F8F80BDD000FF1F80B500AF034B5B69D4
:103DF0001846FFF70FFFBFF34F8F80BDD000FF1FA6
:103E000080B500AF034B9B691846FFF703FFBFF374
:103E10004F8F80BDD000FF1F80B500AF034BDB6923
:103E20001846FFF7F7FEBFF34F8F80BDD000FF1F8E
:103E300080B500AF034B1B6A1846FFF7EBFEBFF3DC
:103E40004F8F80BDD000FF1F80B500AF034B5B6A72
:103E50001846FFF7DFFEBFF34F8F80BDD000FF1F76
:103E600080B500AF034B9B6A1846FFF7D3FEBFF344
:103E70004F8F80BDD000FF1F80B500AF034BDB6AC2
:103E80001846FFF7C7FEBFF34F8F80BDD000FF1F5E
:103E900080B500AF034B1B6B1846FFF7BBFEBFF3AB
:103EA0004F8F80BDD000FF1F80B500AF034B5B6B11
:103EB0001846FFF7AFFEBFF34F8F80BDD000FF1F46
:103EC00080B500AF034B9B6B1846FFF7A3FEBFF313
:103ED0004F8F80BDD000FF1F80B500AF034BDB6B61
:103EE0001846FFF797FEBFF34F8F80BDD000FF1F2E
:103EF00080B485B000AF78607B681B0C03F1804311
:103F000003F58E23FB60FB68FA6811687A6892B249
:103F1000012000FA02F20A431A601437BD465DF828
:103F2000047B704780B584B000AF78600023FB60ED
:103F300007E00C4A7B689A4200D105E0FB68013338
:103F4000FB60FB68002BF4D0FB68002B05D0064813
:103F50004F21064A064BFDF741F8FB68184610371B
:103F6000BD4680BD00C00040C07800002484000031
:103F7000DC78000080B584B000AF786039603B68C1
:103F8000002B05D179485621794A7A4BFDF726F85E
:103F90003B681B78052B05D974485721744A764B2A
:103FA000FDF71CF83B685B783F2B05D96F4858211B
:103FB0006F4A724BFDF712F80023FB600023BB60D1
:103FC0007868FFF7AFFF4FF082531846FFF790FF76
:103FD0000023FB6026E07968FA6813465B0013440F
:103FE0009B000B4400225A607968FA6813465B0014
:103FF00013449B000B441B6899B27868FA68134617
:104000005B0013449B00034419607968FA68134607
:104010005B0013449B000B44083300221A60FB68CA
:104020000133FB60FB68052BD5D97B68BA681A663B
:104030003B681B78FB603B685B68BB607968FA682B
:1040400013465B0013449B000B44BA681A600123BB
:10405000BB603B681B7B1B02BA681343BB603B68B9
:104060009B681B04BA681343BB607968FA681346FF
:104070005B0013449B000B44BA685A603B685B7B4F
:10408000DB00BB603B689B7B1B01BA681343BB60D2
:104090003B68DB7B5B01BA681343BB603B68DB7C3E
:1040A0009B01BA681343BB603B681B7C1B02BA6868
:1040B0001343BB603B681B7D5B02BA681343BB6064
:1040C0003B685B789B02BA681343BB603B685B7DCF
:1040D0001B04BA681343BB603B689B7D9B04BA68B2
:1040E0001343BB603B68DB7D1B05BA681343BB60B1
:1040F0003B685B7C9B05BA681343BB603B689B7C59
:10410000DB05BA681343BB607968FA6813465B0045
:1041100013449B000B440833BA681A603B681B7E4B
:104120001B07BB603B685B7E1B06BA681343BB6022
:104130003B689B7E1B05BA681343BB603B68DB7E14
:104140001B04BA681343BB603B681B7F1B03BA6840
:104150001343BB607B68BA681A66FB68002B02D009
:104160007B6801225A601037BD4680BDC0780000D0
:1041700038840000047900001479000034790000CC
:1041800080B483B000AF78607B6800221A707B68CF
:1041900000221A737B6800225A737B6800229A738C
:1041A0007B680022DA737B6801221A747B68002224
:1041B0005A747B6800229A747B6800221A757B68A7
:1041C00000225A757B6800229A757B680022DA7596
:1041D0007B680122DA747B6800221A767B680022F1
:1041E0005A767B6800229A767B680022DA767B68B2
:1041F00000221A770C37BD465DF8047B704700BF7C
:1042000080B500AF0A4B1B68002B06D1094840F669
:104210001601094A094BFCF7E1FE094B1B68044AE9
:104220001268084811469847BFF34F8F80BD00BF02
:104230001001FF1F5079000048840000387C000006
:104240001401FF1F0040024080B485B000AFF86049
:10425000B9601346FB71FB79002B05D1BB680122C5
:104260009A40FB689A6004E0BB6801229A40FB68B0
:104270005A601437BD465DF8047B704780B584B042
:1042800000AFF860B9601346FB71FB79F868B96854
:104290001A46FFF7D9FF1037BD4680BD80B584B000
:1042A00000AFF860B9607A607B68002B05D11448D4
:1042B0005F21144A144BFCF791FE7B681B78002B9E
:1042C0000AD1FB685A69BB68012101FA03F3DB4399
:1042D0001A40FB685A610FE07B685B78F868B96840
:1042E0001A46FFF7CBFFFB685A69BB68012101FA48
:1042F00003F31A43FB685A611037BD4680BD00BF07
:104300004C7C000060840000887C000080B485B094
:1043100000AF78607B681B0C03F1804303F58E23AC
:10432000FB60FB68FA6811687A6892B2012000FAB3
:1043300002F20A431A601437BD465DF8047B7047E9
:1043400080B483B000AF786039603B6803F4805379
:10435000002B09D07B689B79DAB23B681B0ADBB281
:104360001343DAB27B689A713B6803F48043002BF5
:1043700009D07B689B79DAB23B681B0ADBB2134336
:10438000DAB27B689A713B68DAB27B68DA700C3714
:10439000BD465DF8047B704780B584B000AF78609F
:1043A0000023FB600AE00E4BFA6853F822207B687A
:1043B0009A4200D105E0FB680133FB60FB68022BE9
:1043C000F1D9FB68022B05D90648B921064A074BEB
:1043D000FCF704FEFB6818461037BD4680BD00BFE1
:1043E000F0840000907C000008850000A87C00009C
:1043F00080B485B000AF786039600023FB603B6813
:1044000003F01003002B06D07B681022DA7040F214
:104410004F43FB6007E03B6803F00103002B02D031
:1044200040F24E43FB60FB6818461437BD465DF80A
:10443000047B704780B582B000AF786039607B68DC
:10444000DB78DBB203F01003002B06D17B689B788E
:10445000DBB203F02003002B05D0084B1B68786803
:104460003968984704E0064B1B68786839689847B4
:10447000BFF34F8F0837BD4680BD00BF2401FF1F2B
:104480002801FF1F80B586B000AFF860B9607A6080
:10449000BB68002B02D07B68002B06D12F484FF45D
:1044A000FD712F4A2F4BFCF799FDF868FFF774FF59
:1044B00002462D4B53F822301846FFF727FFFB68C2
:1044C00000221A70FB6800225A70FB6800229A7062
:1044D000FB68FF22DA70FB6800225A71FB685022E9
:1044E0009A71FB680022DA71FB689B78DBB203F0FB
:1044F0007F03DAB2FB689A70F86845F21201FFF7A1
:104500001FFFBB685B68F86819467A6800F054F8CA
:10451000FB689B79FB75FB7D03F07F03FB75BB6834
:104520005B78DB01DAB2FB7D1343FB75FB7D23F087
:104530000F03FB75BB681B7A03F00F03DAB2FB7D38
:104540001343FB75FB68FA7D9A71BB681B78DB012E
:10455000DAB2FB689A701837BD4680BD907C0000C7
:1045600018850000CC7C0000FC84000080B582B07F
:1045700000AF78607B68002B06D10B4840F24321E6
:104580000A4A0B4BFCF72AFD7B680A4A5A607B6893
:1045900000225A707B6800221A727B6801221A700E
:1045A0000837BD4680BD00BF907C00002885000014
:1045B000E87C0000A086010080B48DB000AFF860F8
:1045C000B9607A604FF0FF33FB620023BB620023C7
:1045D0007B62002387F823303FE097F823300122E5
:1045E00002FA03F3FB61002387F822302CE097F8EE
:1045F0002220264B33F81230FA6902FB03F37A6863
:10460000B2FBF3F3BB61BA68BB699A4203D9BA68DB
:10461000BB69D31A02E0BA69BB68D31A7B617A69B5
:10462000FB6A9A420BD297F82330BB6297F822308C
:104630007B627B69FB627B69002B00D108E097F805
:104640002230013387F8223097F822303F2BCED921
:1046500097F82330013387F8233097F82330022B63
:1046600002D8FB6A002BB8D1BB6ADBB29B01DAB27D
:104670007B6ADBB203F03F03DBB21343DAB2FB68C1
:104680005A703437BD465DF8047B70477084000073
:1046900080B584B000AF786013460A46FA70BB70EC
:1046A0000023FB60786800F091F8B860BB6803F005
:1046B0002003002B03D040F24C43FB6014E07B68E6
:1046C0009B78DBB243F03003DAB27B689A70FB78F8
:1046D0005B00DAB2BB78012B01D1012300E000239B
:1046E0001343DAB27B681A71FB6818461037BD466F
:1046F00080BD00BF80B586B000AF786013460A4623
:10470000FA70BB7000237B61786800F05FF8F86096
:104710000623FB74FB6803F02003002B0AD07B68A0
:104720009B78DBB203F02003002B03D140F24C4313
:104730007B6127E07B685B78FB72FB7A03F03F03C9
:10474000DAB27B685A707B689B78DBB243F0140363
:10475000DAB27B689A707B68FA7A5A7000E000BF20
:10476000FB7C5A1EFA74002BF9D1FB785B00DAB29D
:10477000BB78012B01D1012300E000231343DAB2FF
:104780007B681A717B6918461837BD4680BD00BF2B
:1047900080B485B000AF78600023FB607B689B78B5
:1047A000DBB223F03803DAB27B689A7000BF7B6813
:1047B000DB78DBB203F02003002BF8D1FB6818464E
:1047C0001437BD465DF8047B704700BF80B485B0E8
:1047D00000AF78607B68DB78DBB2FB607B689B793D
:1047E000DBB203F04003002B03D0FB6843F48043AB
:1047F000FB607B689B79DBB203F01003002B03D0D6
:10480000FB6843F48053FB60FB6818461437BD46D1
:104810005DF8047B704700BF80B586B000AFF860DC
:10482000B9607A603B6000237B610023FB7400BFAA
:10483000FB68DB78DBB2DBB25BB2002BF8DAFB683B
:104840000222DA70FB689B78DBB243F01003DAB225
:10485000FB689A7030E0BB685A1CBA601A78FB6833
:104860001A7100BFFB68DB78DBB203F00203002B98
:10487000F8D0FB68DB78FB74FB680222DA70FB7C03
:1048800003F01003002B05D0FB681022DA7040F211
:104890004F437B61FB7C03F00103002B08D07B6856
:1048A000002B05D0FB680122DA7040F24E437B6199
:1048B0007B69002B00D004E07B685A1E7A60002BD5
:1048C000C9D17B69002B04D13B6803F00403002BA2
:1048D00004D07A6940F24E439A4206D1FB68022224
:1048E000DA70F868FFF754FF78617B69184618376B
:1048F000BD4680BD80B586B000AFF860B9607A6013
:104900003B6000237B610023FB74FB7CDBB2013343
:10491000DBB2FB7400BFFB68DB78DBB2DBB25BB2FF
:10492000002BF8DAFB680222DA70FB689B78DBB2B6
:1049300023F01803DAB2FB689A707B68012B07D169
:10494000FB689B78DBB243F00803DAB2FB689A702D
:10495000FB681B79DBB2FB7431E000BFFB68DB78DE
:10496000DBB203F00203002BF8D0FB680222DA70FE
:104970007B68002B11D13B6803F00403002B04D1AA
:10498000F868FFF705FF786107E0FB689B78DBB20A
:1049900043F01003DAB2FB689A707B68012B07D1F1
:1049A000FB689B78DBB243F00803DAB2FB689A70CD
:1049B000BB685A1CBA60FA681279D2B21A707B6866
:1049C0005A1E7A60002BC8D17B6918461837BD463D
:1049D00080BD00BF80B584B000AF786039603B68AF
:1049E000002B06D184484FF48061844A844BFCF745
:1049F000F5FA3B685B79FB730023BB60786845F28E
:104A00001201FFF79DFC00BF7B68DB78DBB2DBB2F5
:104A10005BB2002BF8DA3B681B7B002B05D03B68B0
:104A20005B79012B01D10023FB733B681B6803F00A
:104A30000103002B04D0FB7B012B1AD10423D7E008
:104A40003B681B6803F00203002B09D03B681A790E
:104A5000FB7B786811461A46FFF74CFEB86008E009
:104A60003B681A79FB7B786811461A46FFF710FEFF
:104A7000B8603B681B6803F00103002B24D1BB68BE
:104A8000002B01D0BB68B3E000BF7B68DB78DBB2F2
:104A900003F00203002BF8D07B68DB78DBB2786888
:104AA0001946FFF7A5FCB860BB68002B0CD0BA68AC
:104AB00040F24E439A4205D140F25143BB607868C0
:104AC000FFF766FEBB6893E03B681B7B002B6AD058
:104AD0007B680222DA703B681B7B013BDAB23B68E1
:104AE0001A733B689A683B681B7BDB0022FA03F36E
:104AF000DAB27B681A7100BF7B68DB78DBB203F047
:104B00000203002BF8D07B68DB78DBB278681946AB
:104B1000FFF76EFCB860BB68002B09D0BA6840F2A2
:104B20004E439A4202D17868FFF732FEBB685FE0DD
:104B30003B681B7B002B02D0BB68002BC8D03B68B6
:104B40005B79012B2FD17B680222DA703B681B79DD
:104B5000786819460122FFF7CDFDB860BB68002BCD
:104B600001D0BB6844E000BF7B68DB78DBB203F0B8
:104B70000203002BF8D07B68DB78DBB2786819463B
:104B8000FFF736FCB860BB68002B0CD0BA6840F267
:104B90004E439A4205D140F25143BB607868FFF71B
:104BA000F7FDBB6824E03B685B79002B0DD13B68C7
:104BB0005B69002B09D03B6819693B685A693B68FF
:104BC0001B687868FFF728FEB8603B685B79012BAB
:104BD0000DD13B685B69002B09D03B6819693B68C4
:104BE0005A693B681B687868FFF784FEB860BB6849
:104BF00018461037BD4680BD907C000044850000FB
:104C0000F87C000080B500AF034B1B6803481946D1
:104C1000FFF710FC80BD00BF1801FF1F00600640B9
:104C200080B500AF034B5B6803481946FFF702FCF1
:104C300080BD00BF1801FF1F0070064080B500AFA7
:104C4000034B9B6803481946FFF7F4FB80BD00BF88
:104C50001801FF1F00600E4080B500AF0A4B1B68B3
:104C6000002B06D1094840F28B51094A094BFCF749
:104C7000B5F9094B1B68044A126808481146984761
:104C8000BFF34F8F80BD00BF2C01FF1F7C7D000054
:104C900060850000708000003001FF1F00100B4095
:104CA00080B485B000AF78607B681B0C03F1804353
:104CB00003F58E23FB60FB68FA6811687A6892B28C
:104CC000012000FA02F20A431A601437BD465DF86B
:104CD000047B704780B584B000AF78600623BB606A
:104CE0000023FB600AE00F4BFA6853F822207B6830
:104CF0009A4200D106E0FB680133FB60FA68BB68AA
:104D00009A42F0D3FA68BB689A4205D30648A521B7
:104D1000064A074BFCF762F9FB6818461037BD4698
:104D200080BD00BF7885000080800000A88500005D
:104D30009880000080B588B000AFF860B9607A60F4
:104D4000BB68002B05D15D48D0215D4A5D4BFCF767
:104D500045F9BB681B68002B05D15848D121584A3A
:104D6000594BFCF73BF9FA68584B9A4220D0FA6845
:104D7000574B9A421AD0FA68564B9A4214D0FA68A6
:104D8000554B9A420ED0FA68544B9A4208D0FA68B2
:104D9000534B9A4201D101230BE04FF0FF3308E05F
:104DA000012306E0012304E0012302E0082300E0E0
:104DB0000823BA685279934205DA4048D321404A21
:104DC000484BFCF70BF9FA68404B9A4220D0FA683E
:104DD0003F4B9A421AD0FA683E4B9A4214D0FA6876
:104DE0003D4B9A420ED0FA683C4B9A4208D0FA6882
:104DF0003B4B9A4201D101230BE04FF0FF3308E017
:104E0000012306E0012304E0012302E0082300E07F
:104E10000823BA689279934205DA2848D421284AAF
:104E2000314BFCF7DBF80023FB8300237B77002367
:104E3000BB61BB681B681B017A68B2FBF3F3FB83A1
:104E4000FB8B002B01D10123FB8300237B617B685B
:104E50005A00BB681B68B2FBF3F39AB2FB8B19468E
:104E6000C902CB1A5B019BB213447B827B685A0058
:104E7000FB8B59017B8A0B44B2FBF3F37B61BB686C
:104E80001A687B699A4204D2BB681B687A69D31A94
:104E900003E0BB681A687B69D31ABB61BB681A68F8
:104EA000124BA3FB02135A0913465B001A44BB6959
:104EB0009A421DD240F2F533B3E000BF808000007B
:104EC000BC850000BC800000C480000000A006403B
:104ED00000B0064000C0064000D0064000A00E40D2
:104EE00000B00E40DC8000001C8100001F85EB51EB
:104EF000F868FFF7EFFE02464C4B53F82230184695
:104F0000FFF7CEFEFB68DB78DBB223F00C03DAB2EE
:104F1000FB68DA70FB681B78DBB223F01F03DAB2A0
:104F2000FB8B1B0A9BB2DBB21343DAB2FB681A702D
:104F3000FB8BDAB2FB685A70FB689B7ADBB223F01A
:104F40001F03DAB27B8ADBB203F01F03DBB2134329
:104F5000DAB2FB689A72FB689B78DBB223F0170326
:104F60007B77BB685B7A9B00DBB203F00403DAB2A9
:104F70007B7F13437B77BB681B79002B07D0BB6813
:104F80001A797B7F1343DBB243F010037B77FB6816
:104F90007A7F9A70BB685A79FB68DA74BB689A7931
:104FA000FB685A75FB681B7CDBB263F07703DAB2EF
:104FB000FB681A74FB685B7CDBB263F03F03DAB218
:104FC000FB685A74BB68DB79002B07D0FB685B7BFE
:104FD000DBB243F00803DAB2FB685A73BB681B7A92
:104FE000002B07D0FB685B7BDBB243F00103DAB236
:104FF000FB685A73FB68DB787B77BB689B7A002B76
:1050000003D07B7F43F008037B77BB68DB7A002B00
:1050100003D07B7F43F004037B77FB687A7FDA70F1
:10502000002318462037BD4680BD00BF9085000094
:1050300080B582B000AF78607B68002B06D1134842
:1050400040F26F11124A134BFBF7C8FF7B684FF415
:10505000E1321A607B6800221A717B6800225A7163
:105060007B6801229A717B680022DA717B680022DA
:105070001A727B6800225A727B6800229A727B68DF
:105080000022DA720837BD4680BD00BF8080000074
:10509000C8850000BC80000080B485B000AF786097
:1050A0007B681B79DBB21A467B685B79DBB21B023B
:1050B0001343FB607B681B7BDBB21B04FA68134362
:1050C000FB607B689B7CDBB21B06FA681343FB60CA
:1050D000FB6818461437BD465DF8047B704700BF77
:1050E00080B485B000AFF860B9607A600DE000BFB1
:1050F000FB681B79DBB2DBB25BB2002BF8DABB6872
:105100005A1CBA601A78FB68DA717B685A1E7A609A
:10511000002BECD11437BD465DF8047B704700BF0F
:1051200080B586B000AFF860B9607A60BB68002BCC
:1051300006D1214840F25321204A214BFBF74EFF74
:1051400030E023E0F868FFF7A7FF78617B6903F0A0
:105150000803002B02D040F2F13329E07B6903F011
:105160000403002B02D040F2F23321E07B6903F00C
:105170000203002B02D040F2F33319E07B6903F005
:105180000103002B02D04FF47D7311E0FB689B7D7F
:10519000DBB2002BD6D0BB685A1CBA60FA68D27951
:1051A000D2B21A707B685A1E7A60002BC9D10023D4
:1051B00018461837BD4680BD80800000E08500009D
:1051C0006C81000080B500AF044B1B68044A126874
:1051D000044811469847BFF34F8F80BD4C01FF1F15
:1051E0003401FF1F00A0064080B500AFFFF7EAFFC3
:1051F000BFF34F8F80BD00BF80B500AF044B1B686D
:10520000044A5268044811469847BFF34F8F80BD47
:105210004C01FF1F3401FF1F00B0064080B500AFF6
:10522000FFF7EAFFBFF34F8F80BD00BF80B500AF2F
:10523000044B1B68044A9268044811469847BFF320
:105240004F8F80BD4C01FF1F3401FF1F00C006407F
:1052500080B500AFFFF7EAFFBFF34F8F80BD00BFFF
:1052600080B500AF044B1B68044AD268044811465D
:105270009847BFF34F8F80BD4C01FF1F3401FF1FC4
:1052800000D0064080B500AFFFF7EAFFBFF34F8FB5
:1052900080BD00BF80B500AF044B1B68044A126993
:1052A000044811469847BFF34F8F80BD4C01FF1F44
:1052B0003401FF1F00A00E4080B500AFFFF7EAFFEA
:1052C000BFF34F8F80BD00BF80B500AF044B1B689C
:1052D000044A5269044811469847BFF34F8F80BD76
:1052E0004C01FF1F3401FF1F00B00E4080B500AF1E
:1052F000FFF7EAFFBFF34F8F80BD00BF80B582B0DC
:1053000000AFFDF705FC786004484FF4E13101225D
:105310007B68FBF777FE0837BD4680BD00A00E40D6
:1053200080B400AF044B03F582530433034A1A6080
:10533000BD465DF8047B7047007004400000071311
:1053400080B483B000AF47F230537B6000E000BF11
:105350007B685A1E7A60002BF9D10C37BD465DF888
:10536000047B704780B500AFFFF7DAFF0021002211
:105370000123084611461A46FDF7A0FC002200232F
:1053800010461946054AFDF77DFD0548FDF7D4FB9B
:10539000044B4FF0A0721A6080BD00BF4153000063
:1053A000F48500000800FF1F80B485B000AF78606E
:1053B0007B681B0C03F1804303F58E23FB60FB68C5
:1053C000FA6811687A6892B2012000FA02F20A4380
:1053D0001A601437BD465DF8047B704780B485B011
:1053E00000AFF860B9601346FB71FB68BA6853F808
:1053F000223023F4E062FB791B0203F4E06342EA0B
:105400000301FB68BA6843F822101437BD465DF803
:10541000047B704780B485B000AFF860B960134674
:10542000FB71FB79002B05D1BB6801229A40FB6818
:105430009A6004E0BB6801229A40FB685A60143706
:10544000BD465DF8047B704780B582B000AF012394
:105450003B7100237B71BA48FFF7A6FFB948FFF7FD
:10546000A3FFB948FFF7A0FFB848FFF79DFFB84872
:10547000FFF79AFFB74800210722FFF7AFFFB548B3
:1054800001210722FFF7AAFFB2480C210122FFF7F2
:10549000A5FFB0480D210122FFF7A0FFAD480E2166
:1054A0000222FFF79BFFAB480F210222FFF796FF76
:1054B000A84810210222FFF791FFA64811210222DD
:1054C000FFF78CFFA34813210122FFF787FFA148B4
:1054D00002210722FFF782FF9E481D210122FFF7CC
:1054E0007DFF9C4803210722FFF778FF994805219B
:1054F0000122FFF773FF974806210122FFF76EFF95
:10550000944807210122FFF769FF934800210122F7
:10551000FFF764FF904801210122FFF75FFF8E48EB
:105520000A210522FFF75AFF8B480B210522FFF7BE
:1055300055FF894810210522FFF750FF86481121A9
:105540000522FFF74BFF844812210522FFF746FF93
:10555000814813210522FFF741FF7F4802210222E3
:10556000FFF73CFF7C4803210222FFF737FF7A4810
:1055700006210522FFF732FF774807210522FFF7B2
:105580002DFF754808210522FFF728FF72480921E1
:105590000522FFF723FF714800210522FFF71EFFB8
:1055A0006E4801210522FFF719FF6C480A210522E8
:1055B000FFF714FF69480B210522FFF70FFF67482B
:1055C0000E210522FFF70AFF64480F210522FFF78D
:1055D00005FF624802210522FFF700FF5F48032113
:1055E0000522FFF7FBFE5D4804210522FFF7F6FECA
:1055F0005A4805210522FFF7F1FE584806210522E9
:10560000FFF7ECFE554807210522FFF7E7FE534858
:1056100008210522FFF7E2FE504809210522FFF785
:10562000DDFE4F4800210522FFF7D8FE4C4801213E
:105630000522FFF7D3FE4A480C210122FFF7CEFED8
:105640003B1D48480C211A46FEF728FE45480C2110
:105650000122FFF7DFFE42480D210122FFF7BEFEC7
:105660003F480E210122FFF7B9FE3B1D3D480E21A8
:105670001A46FEF713FE3B480E210122FFF7CAFE31
:1056800037480F210122FFF7A9FE3B1D35480F21A6
:105690001A46FEF703FE33480F210122FFF7BAFE38
:1056A0002F4802210522FFF799FE2D4803210522EC
:1056B000FFF794FE2A4804210522FFF78FFE2848B1
:1056C00005210522FFF78AFE254806210522FFF75E
:1056D00085FE234808210322FFF780FE2048092188
:1056E0000322FFF77BFE204800210622FFF776FE0B
:1056F0001D4801210622FFF771FE1B4818210322D5
:10570000FFF76CFE184819210322FFF767FE1648C1
:1057100004210122FFF762FE134805210122FFF751
:105720005DFE1249114B03F5805304331B6823F0CF
:10573000E00201F5805304331A600837BD4680BD8E
:10574000090038100A0038100B0038100C0038100F
:105750000D0038100090044000A0044000B0044048
:1057600000C00440C0F00F4000D00440007004406E
:1057700080B400AF0B4B0B4AD2F8882042F4700281
:10578000C3F88820084B4CF22052DA81064B4DF6C4
:105790002812DA81044B4FF4E9721A80BD465DF895
:1057A000047B704700ED00E00020054070B52DED52
:1057B000048BB0EE408AF0EE608A294E8AB000F089
:1057C00053F896F90030B0EE409AF0EE609A01334B
:1057D0000FD0B0EE480AF0EE680A00F011F940B1BF
:1057E0000024002551EC180B22462B46FBF77EFBCC
:1057F00038B9B0EE490AF0EE690A0AB0BDEC048B84
:1058000070BD184B36780193012200238DED048B77
:105810008DED028B009208936EB9CDE9064568467E
:1058200000F018F988B1089BA3B99DED060B0AB0EA
:10583000BDEC048B70BD2046294622462B46FBF763
:105840000DFA022ECDE90601E9D100F005F9212378
:105850000360E8E700F000F9089B0360E5E700BF9C
:105860000C00FF1FFC8500002DE9F84353EC102BC2
:1058700023F00044240D614D2405AC422DED028B34
:10588000B0EE408AF0EE608A194610EE100A00F081
:105890009480002B74DD1F157DD0A7F2FF37C1F374
:1058A0001301FA0741F480115FD4C30F4FF0000CCD
:1058B00003EB410342007F10654616204FF40011B0
:1058C0006C189C424FEAD2764FEA420202DC1B1B64
:1058D00065188C44013806EB43034FEA5101EFD1C0
:1058E000804620264FF0004109E023D0D40F013E2E
:1058F0004FEA510104EB43034FEA42021ED0AB4290
:1059000001EB0804F1DD04F00049B9F1004F04EBAC
:10591000010809D0A9465B1B944288BF03F1FF33FD
:10592000121B08444D46E1E7B8F1000FF2DB05F128
:105930000109F0E79442E6D91D46D7E71A4319D189
:1059400046084FEA6C0101F17F511CF0010F01F58F
:10595000001118BF46F0004601EB0753324643ECF6
:10596000102BBDEC028BBDE8F883C30F03EB4101A4
:1059700040009AE7431C2ED000F001031844DFE7F3
:1059800023F000411143ECD063BB1F46C10A153F11
:1059900040050029FAD011F480131FD14900CC0230
:1059A00003F10103FAD5C3F10102C3F1200420FA87
:1059B00004F42143174498406FE751EC100BFBF7B8
:1059C00023F853EC182BFAF76DFEBDEC028B41EC7B
:1059D000100BBDE8F8830CF1010CB2E72024012282
:1059E0000023E4E751EC100B0B46FAF759FE024690
:1059F0000B46FBF733F941EC100BB2E70000F07FE8
:105A000053EC102B33F0004110B408D00F48A1F52F
:105A1000801484420AD804205DF8044B7047002AA1
:105A20000CBF022003205DF8044B7047B1F5801FC6
:105A300001D20320F7E70648814201D00020F2E7B7
:105A4000D2F1010038BF0020EDE700BFFFFFDF7F8C
:105A50000000F07F00207047014B1868704700BFBE
:105A60007000FF1F08B5074B044613B10021AFF3C8
:105A70000080054B1868836A03B19847204601F0FF
:105A8000CDF800BF0000000008860000074B10B5ED
:105A90001C6824B1A36913B9204600F047FD2046D5
:105AA0006168BDE8104000F0E5BD00BF7000FF1F59
:105AB00070B50E4B0E4DED1AAD1000241E46AC42D3
:105AC00004D056F8242090470134F8E702F0E8FDAE
:105AD000084D094BED1AAD1000241E46AC4204D00F
:105AE00056F8242090470134F8E770BDC0860000C6
:105AF000C0860000C4860000C08600000244034641
:105B0000934202D003F8011BFAE770470FB40A4B27
:105B100013B51C6824B1A36913B9204600F006FD33
:105B200005AB2046A168049A019300F09FF802B0EB
:105B3000BDE8104004B070477000FF1F70B50E46FE
:105B4000054618B183690BB900F0F0FCAC68A38975
:105B5000190701D5236983B92846214600F064FB63
:105B600058B14FF0FF3070BD002B0EDB236816F8E4
:105B7000012C1A70236801332360A36816F8012BE7
:105B8000013BA360002AEFD117E0A269934209DB31
:105B9000236816F8012C1A70236819780A29EAD1AB
:105BA000284602E016F8011C2846224600F0E8FAD2
:105BB000B0F1FF3250425041D2E7002B16DAA26911
:105BC000934208DB23680A221A70236819789142ED
:105BD00010D1284601E028460A21224600F0D0FADA
:105BE000B0F1FF335842584130B1BAE723680A2276
:105BF0001A702368013323600A2070BD024B0146EE
:105C00001868FFF79BBF00BF7000FF1F034613F823
:105C1000012B002AFBD1181A013870479368013B09
:105C2000002B10B5936005DA9469A34208DBCBB270
:105C30000A2B05D01368581C10601970C8B210BD2B
:105C4000BDE8104000F09CBAF8B505460E46144673
:105C5000D718BC4208D0284614F8011B3246FFF77B
:105C6000DDFF431CF5D100E00020F8BD2DE9F04335
:105C70009DB00D4617460393064618B183690BB9CC
:105C800000F054FC734B9D4201D1756808E0724BE3
:105C90009D4201D1B56803E0704B9D4208BFF56895
:105CA000AB8918070AD52B6943B100230993202338
:105CB0008DF8293030238DF82A3038E030462946D7
:105CC00000F0B2FA0028F0D04FF0FF30BFE0039AA6
:105CD000111D12680391002A70DB079201342378AA
:105CE0002E2B7DD05E4F21783846032200F03CFDFC
:105CF00030B1C71B049B4020B840034304930134D8
