:1000000000000120D904000025050000290500009A
:10001000210500002105000021050000000000006E
:100020000000000000000000000000002D0500009E
:10003000210500000000000031050000350500002A
:10004000390500003D0500004105000045050000A0
:10005000490500004D050000510500005505000050
:10006000590500005D050000610500006505000000
:10007000690500006D0500007105000075050000B0
:100080007905000021050000210500002105000080
:1000900021050000210500002105000021050000C8
:1000A0007D05000081050000850500008905000030
:1000B0008D05000091050000210500009505000058
:1000C000990500009D050000A1050000A5050000A0
:1000D000A9050000AD050000B105000021050000E4
:1000E0002105000021050000210500002105000078
:1000F0002105000021050000210500002105000068
:100100002105000021050000210500002105000057
:100110002105000021050000210500002105000047
:100120002105000021050000210500002105000037
:100130002105000021050000210500002105000027
:1001400021050000B5050000B9050000BD0500004F
:10015000C1050000C50500002105000021050000C3
:100160002105000021050000C9050000CD050000A3
:10017000D1050000D5050000D9050000DD0500000F
:10018000E1050000E5050000210500002105000053
:1001900021050000210500002105000021050000C7
:1001A00021050000210500002105000021050000B7
:1001B00021050000210500002105000021050000A7
:1001C0002105000021050000210500002105000097
:1003F000210500002105000021050000FFFFFFFF8F
:10040000FFFFFFFFFFFFFFFFFFFFFFFFFEFFFFFFFD
:1004100010B5054C237833B9044B13B10448AFF33E
:1004200000800123237010BD7400FF1F0000000036
:100430007879000008B5064B1BB106480649AFF3B2
:1004400000800648036813B1054B03B1984708BD07
:1004500000000000787900007800FF1F7000FF1F87
:1004600000000000154B002B08BF134B9D46A3F561
:10047000803A00218B460F461348144A121A05F0A1
:1004800010F90F4B002B00D098470E4B002B00D0DB
:1004900098470020002104000D000D48002802D0DC
:1004A0000C48AFF3008005F0CDF82000290000F0E3
:1004B000DBFD05F0B3F800BF0000080000000120DC
:1004C00000000000000000007400FF1F4C16FF1F1A
:1004D000000000000000000072B60A480A490160EE
:1004E0000A6882F30888094880470949094A0A4B83
:1004F0009A42BEBF51F8040B42F8040BF8E762B60B
:100500000648804708ED00E000000000E1550000CB
:10051000A07900000000FF1F7400FF1F65040000A9
:10052000FFF7FEBF304800473048004730480047DB
:1005300030480047304800473048004730480047BF
:1005400030480047304800473048004730480047AF
:10055000304800473048004730480047304800479F
:10056000304800473048004730480047304800478F
:10057000304800473048004730480047304800477F
:10058000304800473048004730480047304800476F
:10059000304800473048004730480047304800475F
:1005A000304800473048004730480047304800474F
:1005B000304800473048004730480047304800473F
:1005C000304800473048004730480047304800472F
:1005D0002F4800472E4800472D4800472C48004729
:1005E0002B4800472B48004725050000290500003F
:1005F0002D0500003105000035050000553F0000C5
:100600006D3F0000853F00009D3F0000B53F0000AA
:10061000CD3F0000E53F0000FD3F00001540000019
:100620002D400000454000005D4000007540000086
:100630008D400000A5400000BD40000021050000E5
:10064000314200004D420000453D0000813D000068
:1006500085420000CD4200001D530000210500002E
:1006600051530000210500008553000021050000C2
:10067000B953000021050000BD3D0000ED5300000E
:1006800021050000215400002105000069420000FE
:10069000D54000008D4D000080B586B002AFF860F7
:1006A000B9607A603B607B68009304483968FA68F7
:1006B000BB6800F029F800BEFDE700BF60650000E0
:1006C00080B584B000AFF860B9603B601346FB7141
:1006D000FB79002B05D109486921094A094BFFF72D
:1006E000DBFFFB79F8681946BA683B6800F05AF9F5
:1006F000034618461037BD4680BD00BFA065000008
:10070000E0730000C46500000FB480B5A4B000AF72
:100710000023C7F88C300023C7F888303A1D8023A7
:10072000104600211A4604F0BCFF07F19C03C7F8ED
:1007300084303B1DD7F89800D7F884101A460B4B2D
:1007400000F086FAC7F88C00D7F88C303A1D1046B6
:10075000194600F041F9C7F88800D7F888301846E4
:100760009037BD46BDE8804004B070477107000077
:1007700080B586B000AFF860B9603B601346FB718E
:1007800000237B6100237B611BE0BB681B68013396
:100790007F2B08D9BB681B68F868194600F01CF964
:1007A000BB6800221A60BB681B68FA681344FA79B8
:1007B0001A70BB681B685A1CBB681A607B690133DE
:1007C0007B617A693B689A42DFDB1837BD4680BDA2
:1007D00080B584B000AFF860B9607A60BB68002B68
:1007E00002D14FF0FF330EE0FB68012B05D0FB6810
:1007F000022B02D04FF0FF3305E07B68B868194642
:1008000000F0EAF87B6818461037BD4680BD00BF8F
:1008100080B584B000AFF860B9607A60FB68002BE7
:1008200002D04FF0FF3305E07B68B868194600F04E
:1008300013F9034618461037BD4680BD80B483B017
:1008400000AF78600B46FB70FB78002B08D07B680C
:10085000DB78DBB243F00803DAB27B68DA7007E0DA
:100860007B68DB78DBB223F00803DAB27B68DA70EE
:100870000C37BD465DF8047B704700BF80B483B081
:1008800000AF78600B46FB70FB78002B08D07B68CC
:10089000DB78DBB243F00403DAB27B68DA7007E09E
:1008A0007B68DB78DBB223F00403DAB27B68DA70B2
:1008B0000C37BD465DF8047B704700BF80B588B03B
:1008C00000AFF860B9607A603B60FB68002B05D12F
:1008D0001948F021194A1A4BFFF7DEFEFB681A7916
:1008E000184B1A71FB681A68164B1A60154B1B7966
:1008F000012B01D0062B1CD107F11403184604F07C
:1009000031FCBB687B610F4B1A6807F1140310467A
:1009100019467A6804F0A8FA0A4B1B6818460121A8
:10092000FFF78CFF074B1B6818460121FFF7A6FF56
:1009300000BF2037BD4680BDF0650000F0730000A9
:10094000086600009000FF1F80B586B000AFF86019
:10095000B9601346FB7100237B61114B1B79012B9E
:1009600001D0062B13D1FB79002B07D00C4B1B6851
:100970001846F968BA6804F04DFC0BE0084B1B6898
:100980001846F968BA6804F065FC786102E0012352
:100990007B6100BF7B6918461837BD4680BD00BF2C
:1009A0009000FF1F80B586B000AFF8607A603B60B2
:1009B0000B46FB72FB683B61FB7A3B7507F110034A
:1009C000184679683A680023FFF778FF0023184635
:1009D0001837BD4680BD00BF80B582B000AF7860DB
:1009E00039607B68002B06D1074840F23F11074A67
:1009F000074BFFF751FE7868396800F00BF80346A3
:100A000018460837BD4680BD14660000F873000024
:100A10002C66000080B584B000AF78603960002398
:100A2000FB733B68002B11D07B68002B0ED0012399
:100A3000FB73FB7B002B09D0786839680122FFF734
:100A400083FF0346002B01D000233B603B68184620
:100A50001037BD4680BD00BF80B584B000AF786060
:100A600039607B68002B06D126484FF4B271264AC4
:100A7000264BFFF711FE0023FB600023FB6027E0FD
:100A8000FB687A681344184600F042F80346002BCE
:100A900002D04FF0FF3330E0FB687A6813441B78D4
:100AA0000D2B05D0FB687A6813441B780A2B0CD1F8
:100AB000FB68002B08D1FB687A68134400221A7087
:100AC0004FF0FF33FB6000E006E0FB680133FB60A2
:100AD000FA683B689A42D3D3FA683B689A4205D1D8
:100AE000FB687A68134400221A7005E0FB68013342
:100AF0007A68134400221A70FB6818461037BD4606
:100B000080BD00BF14660000047400002C66000065
:100B100080B582B000AF7860786801210022FFF7CD
:100B200013FF0346002B01D0012300E000231846E9
:100B30000837BD4680BD00BF80B48DB000AFF860FF
:100B4000B9607A603B600023FB61FB68BB61BB69F5
:100B50005A1CBA6100221A707B68002B36D0BB6821
:100B60001B68FB62FB6A002B07D1BB6930221A703D
:100B7000FB690133FB61FB6964E023E0FA6A3B68CF
:100B800092FBF3F37B617B693A6802FB03F3FA6A39
:100B9000D31ABB62BB6A002B06DABB6A3B623B6AB4
:100BA000C3F13003BB6202E0BB6A3033BB627B69D6
:100BB000FB62BB695A1CBA61BA6AD2B21A70FB698D
:100BC0000133FB61FB6A002BD8D13AE0BB681B689C
:100BD0007B627B6A002B07D1BB6930221A70FB69EC
:100BE0000133FB61FB692DE028E03B687A6AB2FBC8
:100BF000F3F33B613B683A6902FB03F37A6AD31A69
:100C00003B623B6A092B03D83B6A30333B620AE004
:100C100097F83830002B01D0412300E061233A6A75
:100C200013440A3B3B623B697B62BB695A1CBA6155
:100C30003A6AD2B21A70FB690133FB617B6A002BFE
:100C4000D3D1FB6918463437BD465DF8047B704745
:100C500090B59DB002AFF860B9607A603B60002348
:100C60003B660023FB650023BB61002387F84A3005
:100C700000233B61FB687B66A7E17B6C252B0BD0D7
:100C80007B6CDBB207F118025BB23C6878681146F6
:100C90001A460123A04795E1012387F84B30002332
:100CA0007B650023BB651CE07B6E01337B667B6E3E
:100CB0001B785BB27B647B6C2F2B0DDD7B6C392B3F
:100CC0000ADC7A6D13469B0013445B001A467B6C6A
:100CD0001344303B7B6504E07B6E013B7B66012364
:100CE000BB65BB6D002BDFD006233B657B6E0133FC
:100CF0007B667B6E1B785BB22E2B25D100233B6578
:100D00000023BB651CE07B6E01337B667B6E1B782A
:100D10005BB27B647B6C2F2B0DDD7B6C392B0ADC8B
:100D20003A6D13469B0013445B001A467B6C1344D8
:100D3000303B3B6504E07B6E013B7B660123BB657A
:100D4000BB6D002BDFD002E07B6E013B7B667B6ED0
:100D500001337B667B6E1B785BB27B647B6C642BA0
:100D60001BD07B6C692B18D07B6C662B15D07B6CF1
:100D7000462B12D07B6C782B0FD07B6C582B0CD071
:100D80007B6C6F2B09D07B6C622B06D07B6C702B3D
:100D900003D07B6C752B40F0C7807B6C642B02D03A
:100DA0007B6C692B17D1BB681A1DBA601B687B610D
:100DB00007F11C0207F1140397F84B10009110463D
:100DC000194601220A23FFF7B7FEF86507F11C0256
:100DD000FB6D13443B667B6C582B02D07B6C782BED
:100DE0001DD17B6C782B02D1002387F84B30BB6878
:100DF0001A1DBA601B683B6107F11C0207F1100362
:100E000097F84B1000911046194600221023FFF767
:100E100093FEF86507F11C02FB6D13443B667B6C87
:100E20006F2B08D07B6C622B05D07B6C702B02D0B3
:100E30007B6C752B58D1BB681A1DBA601B683B616F
:100E40007B6C623B132B3BD801A252F823F000BF0E
:100E5000A90E0000C10E0000C10E0000C10E00006E
:100E6000C10E0000C10E0000C10E0000C10E000046
:100E7000C10E0000C10E0000C10E0000C10E000036
:100E8000C10E0000A10E0000B10E0000C10E000056
:100E9000C10E0000C10E0000C10E0000B90E00001E
:100EA000082387F84A300BE0022387F84A3007E02E
:100EB000102387F84A3003E00A2387F84A3000BF3E
:100EC00097F84A3007F11C0107F1100297F84B0020
:100ED0000090084611460022FFF72EFEF86507F144
:100EE0001C02FB6D13443B66FB6D7A6DD31A07F150
:100EF00018023C68786811462022A0473B6E002B00
:100F000011D00CE03B6E5A1E3A661B7807F11802AE
:100F10005BB23C68786811461A460123A0473B6ED5
:100F20001B78002BEED14DE07B6C632B12D1BB689C
:100F30001A1DBA601B68DBB25BB23B643B6CDBB270
:100F400007F118025BB23C68786811461A46012323
:100F5000A04737E07B6C732B29D1BB681A1DBA60A0
:100F60001B68FB64FB6C002B2CD0F86C04F022FC9B
:100F70000346FB65FB6D7A6DD31A07F118023C68D6
:100F8000786811462022A0470CE0FB6C5A1CFA64DA
:100F90001B7807F118025BB23C68786811461A4664
:100FA0000123A047FB6C1B78002BEED10AE07B6C81
:100FB000DBB207F118025BB23C68786811461A464A
:100FC0000123A0477B6E01337B667B6E1B785BB28F
:100FD0007B647B6C002B7FF450AEBB6918466C378A
:100FE000BD4690BD80B483B000AF786039607B6847
:100FF0003A685A600C37BD465DF8047B704700BF05
:1010000080B582B000AF7860396078683968FFF7E2
:10101000E9FF0837BD4680BD80B483B000AF78607B
:1010200039607B683A689A600C37BD465DF8047B8E
:10103000704700BF80B582B000AF786039607868D3
:101040003968FFF7E9FF0837BD4680BD80B483B03B
:1010500000AF786039607B683A68DA600C37BD466B
:101060005DF8047B704700BF80B586B000AF04F028
:1010700091FA04F029FA04F0DBF907F108031846A5
:1010800004F070F84FF4E133BB600123BB7401231B
:10109000FB7407F10803404819464FF0A07203F0B3
:1010A000E3FE01233B7100237B713B1D3B4816216E
:1010B0001A4603F05DF83B1D384817211A4603F025
:1010C00057F836484FF48001FFF79AFF33484FF442
:1010D0000001FFF7AFFF324804F064FB7323FB7598
:1010E00097F91730613B122B50D801A252F823F028
:1010F0003D110000591100008D1100008D110000FC
:101100008D1100008D1100008D1100006D11000087
:101110008D1100008D1100008D1100008D11000057
:101120008D1100008D1100008D1100008D11000047
:101130008D1100008D11000061110000194804F0AC
:10114000B9FA16484FF48001FFF780FF13484FF4B7
:101150000001FFF77BFF1DE0134804F0ABFA19E034
:10116000124804F0A7FA00F059F813E0104804F010
:10117000A1FA104804F09EFA0F4804F09BFA0F48B9
:1011800004F098FA0E4804F095FA03E00D4804F0D4
:1011900091FA00BFA2E700BF00A0064040F00F4058
:1011A000446600005C66000074660000846600000F
:1011B00098660000B0660000CC660000E0660000A3
:1011C000F46600000867000080B586B002AF786062
:1011D00039600023FB603B68009378680C490D4A36
:1011E000082303F041FDF860FA6840F2A4639A42D4
:1011F000F1D0FB68002B03D1074B1B68002B01D0FB
:101200000123FB60FB6818461037BD4680BD00BF58
:101210001016FF1F440BFF1F9800FF1F80B596B0EC
:1012200000AF3A4B7B653A4B3B653B4600221A6068
:10123000043300221A60043300221A6004330022AF
:101240001A60043300221A600433002387F84F30F9
:10125000302387F84E303B6D00221A703B6D02221E
:101260005A703B6D02229A703B6D80225A603B6D32
:1012700080229A602748396D03F0FEF97B6D254A7C
:101280001A60002002F0CAF902467B6D5A607B6D3D
:10129000214A9A62786D01F01BFBB864BB6C002B8D
:1012A00003D01E48B96CFFF72FFA786D1C49022253
:1012B000052301F0C1FCB864BB6C002B03D01948B6
:1012C000B96CFFF721FA786D17490222052301F066
:1012D0003FFC0346002B02D01448FFF715FA786D47
:1012E0000221052201F01CFD0346002B02D010480C
:1012F000FFF70AFA074801F00FFC0E48FFF704FA5F
:1013000000BF18465837BD4680BD00BF640BFF1FA5
:101310006C0BFF1F00100B40C9110000206700007C
:101320004401FF1F44670000100CFF1F746700009A
:1013300098670000C067000080B483B000AF786099
:101340007B685B6A18460C37BD465DF8047B7047C6
:1013500080B483B000AF78600B46FB707B689B6AFB
:1013600023F00602FB785B0003F006031A437B6858
:101370009A620C37BD465DF8047B704780B582B039
:1013800000AF78600B46FB707B68002B06D10A48E3
:101390004FF48771094A0A4BFFF77EF97B6818689A
:1013A0007B68996A7B681A6BFB7801F019FD03462C
:1013B00018460837BD4680BDC8670000807500002C
:1013C000E067000080B582B000AF78607B68002BDA
:1013D00006D10B4840F215110A4A0B4BFFF75CF996
:1013E0007B6819687B689A6A7B681B6B08461146A4
:1013F0001A4601F055FD034618460837BD4680BD24
:10140000C867000028750000E067000080B582B062
:1014100000AF78607B68002B06D10B484FF48E71CB
:101420000A4A0B4BFFF738F97B6819687B689A6AA0
:101430007B681B6B084611461A4601F097FD034670
:1014400018460837BD4680BDC867000060740000BC
:10145000E067000080B582B000AF78607B68002B49
:1014600006D10A4840F22311094A0A4BFFF714F942
:101470007B681A687B689B6A1046194601F0D8FDA4
:10148000034618460837BD4680BD00BFC867000048
:1014900074750000E067000080B582B000AF78602E
:1014A0007B68002B06D10A484FF49571094A0A4B14
:1014B000FFF7F2F87B681A687B689B6A104619464A
:1014C00001F000FE034618460837BD4680BD00BF48
:1014D000C867000040750000E067000080B582B07A
:1014E00000AF786039607B68002B06D10A4840F273
:1014F00031110A4A0A4BFFF7CFF87B681A687B68FC
:101500009B6A104619463A6801F034FE03461846B5
:101510000837BD4680BD00BFC867000034740000B6
:10152000E067000080B58CB000AF78607B68002B6E
:1015300006D124484FF49C71234A244BFFF7ACF8A2
:101540000023BB620023FB6207F1080300221A603C
:10155000043300221A60043300221A60043300228C
:101560001A60043300221A60043300221A60043324
:1015700000221A60043300221A6004330323BB6084
:101580000023FB6008237B7407F10803FB62002340
:10159000BB627B689B6A7A68116807F1280208467B
:1015A000114698470346002B05D17B691A0C7B68CE
:1015B0001A63002301E040F2097318463037BD4634
:1015C00080BD00BFC867000014740000E067000021
:1015D00080B594B000AFF860B9607A603B60FB689A
:1015E000002B06D145484FF4A771454A454BFFF7FC
:1015F00053F8BB6D002B06D1404840F24F11404AD2
:10160000414BFFF749F80023BB640023FB6407F15B
:10161000280300221A60043300221A6004330022D7
:101620001A60043300221A60043300221A60043363
:1016300000221A60043300221A60043300221A6068
:10164000043307F1140300221A60043300221A60E5
:10165000043300221A60043300221A60043300228B
:101660001A6004330623BB62BB68DB0763F07F4369
:10167000FB62FA6A7B689B000F2101FA03F3DB43EC
:101680001340FB62FA6A7B689B00396801FA03F336
:101690001343FB62012387F831304023BB610123F0
:1016A000FB61BB6D3B62BB69F8681946FFF716FF2B
:1016B0000346002B02D040F20A731AE007F1280318
:1016C000FB6407F11403BB64FB689B6AFA6811684A
:1016D00007F148020846114698470346002B04D1FB
:1016E0007A6B0A4B1340002B02D040F2097300E0E2
:1016F000002318465037BD4680BD00BFC8670000B4
:1017000020740000E0670000E86700000800F9FFAF
:1017100080B584B000AF786039607B68002B06D15B
:10172000494840F27111494A494BFEF7B5FF3B6801
:10173000002B06D144484FF4B971444A454BFEF79B
:10174000ABFF7B689833FB603B681B681B0FDAB20A
:10175000FB681A703B681B6803F070631B0EDAB2FB
:10176000FB685A703B681B6803F40003DB0DDBB2B7
:10177000002B06D0FB685B8843F001039AB2FB683C
:101780005A803B681B6803F4E0031B0DDAB2FB6868
:101790001A713B681B6803F470231B0CDAB2FB68F8
:1017A0005A713B681B6803F40043DB0BDBB2002B70
:1017B00006D0FB685B8843F002039AB2FB685A804C
:1017C0003B681B6803F4F0439B0ADAB2FB689A712A
:1017D0003B681B68DBB203F00303DAB2FB68DA7123
:1017E0003B685A68FB689A60FB685B78012B08D0FD
:1017F000022B0AD0002B00D016E07B6801225A632E
:1018000012E07B6802225A630EE07B6804225A636E
:101810007B68B3F89A3003F00203002B03D07B6897
:1018200008225A63FFE700BF7B6893F89D3003F0FE
:101830000403002B05D07B689B6B43F004027B689C
:101840009A631037BD4680BDC8670000447400002D
:10185000E0670000F067000080B59AB000AF7860E4
:101860007B68002B06D1534840F2A111524A534BDA
:10187000FEF712FF0023BB640023FB6407F128037B
:1018800000221A60043300221A60043300221A6016
:10189000043300221A60043300221A600433002249
:1018A0001A60043300221A60043300221A600433E1
:1018B00007F1140300221A60043300221A60043373
:1018C00000221A60043300221A60043300221A60D6
:1018D00004330023FB6000233B617868FFF796FD2B
:1018E0000346002B02D040F215735FE03323BB6246
:1018F000012387F831300023FB620823BB610123F9
:10190000FB6107F10C033B6207F11403BB6407F1B1
:101910002803FB647B689B6A7A68116807F14802B8
:101920000846114698470346002B04D17A6B244B96
:101930001340002B02D040F2097337E07B685B7ADA
:10194000012B0FD0022B02D0002B1DD019E0FB6819
:101950007B667B6E1BBAFB603B693B663B6E1BBACA
:101960003B6112E0FB68FB65FB6D5BBABB65BB6D61
:10197000FB603B697B657B6D5BBA3B653B6D3B61A7
:1019800003E04FF4E16311E000BF7B6803F15C0208
:1019900007F10C0310461946082203F079FE07F1FF
:1019A0000C0378681946FFF7B3FE00231846683722
:1019B000BD4680BDC867000054740000E0670000A9
:1019C0000800F9FF80B59EB002AF78607B68002BFD
:1019D00006D14C484FF4EC714B4A4C4BFEF75CFE81
:1019E00007F10C024023104600211A4603F059FE6D
:1019F0007B685B6B002B06D07B68B3F8803003F408
:101A00008063002B02D140F20C7376E007F10C03E7
:101A100000937868002100220123FFF7D9FD0346D7
:101A2000002B02D040F2167367E07B685B7A012BD3
:101A30000FD0022B02D0002B1DD019E0BB69FB6632
:101A4000FB6E1BBABB61FB69BB66BB6E1BBAFB615D
:101A500012E0BB697B667B6E5BBA3B663B6EBB612B
:101A6000FB69FB65FB6D5BBABB65BB6DFB6103E0AE
:101A70004FF4E16341E000BFBB6903F48033002B06
:101A800005D0FB6903F07063B3F1706F02D140F2CF
:101A90000C7332E007F10C030093786801210022F7
:101AA0000123FFF795FD0346002B02D040F2167389
:101AB00023E07B685B7A012B0AD0022B02D0002B3B
:101AC00011D00DE0FB697B657B6D1BBAFB610BE000
:101AD000FB693B653B6D5BBAFB64FB6CFB6103E040
:101AE0004FF4E16309E000BFFB6903F07063B3F1F9
:101AF000807F01D0012300E0002318467037BD46E7
:101B000080BD00BFC867000078740000E067000077
:101B100080B58CB000AF78600B46FB707B68002B03
:101B200006D12F4840F221212E4A2F4BFEF7B4FD5B
:101B30000023BB620023FB6207F1080300221A6046
:101B4000043300221A60043300221A600433002296
:101B50001A60043300221A60043300221A6004332E
:101B600000221A60043300221A6004337868FFF7F9
:101B70004DFC0346002B02D040F215732BE00623E8
:101B8000BB6001237B74FB78012B02D0042B03D0B4
:101B900005E00023FB6004E00223FB6001E0042376
:101BA00019E007F10803FB620023BB627B689B6AB4
:101BB0007A68116807F128020846114698470346DB
:101BC000002B04D17A69094B1340002B02D040F25C
:101BD000097300E0002318463037BD4680BD00BFC2
:101BE000C86700008C740000E06700000800F9FF7F
:101BF00080B584B000AF786039607B68002B06D177
:101C0000794840F24621794A794BFEF745FD3B6819
:101C1000002B06D1744840F24721744A754BFEF7F9
:101C20003BFD7B687C33FB603B680C331B689B0F80
:101C3000DAB2FB681A703B680C331B6803F47F034D
:101C40001B0CDAB2FB685A703B680C331B6803F458
:101C50007F431B0ADAB2FB689A703B680C331B683F
:101C6000DAB2FB68DA703B6808331B681B0D9AB266
:101C7000FB689A803B6808331B6803F470231B0CD5
:101C8000DAB2FB689A713B6808331B6803F40043BF
:101C9000002B06D0FB681B8943F001039AB2FB6856
:101CA0001A813B6808331B6803F48043002B06D07D
:101CB000FB681B8943F001039AB2FB681A813B68F9
:101CC00008331B6803F40053002B06D0FB681B8904
:101CD00043F004039AB2FB681A813B6808331B681F
:101CE00003F48053002B06D0FB681B8943F00803E4
:101CF0009AB2FB681A81FB681B78002B02D0012B7B
:101D00007AD0A3E03B6808331B68C3F309039A0049
:101D1000FB68DA60FB68DA683B6804331B689B0F7A
:101D20001A43FB68DA603B6804331B6803F06053B6
:101D3000DB0EDAB2FB681A743B6804331B6803F0ED
:101D4000E0631B0EDAB2FB685A743B6804331B680D
:101D500003F460031B0DDAB2FB689A743B6804332A
:101D60001B6803F4E0139B0CDAB2FB68DA743B687F
:101D700004331B6803F46033DB0BDAB2FB681A75BB
:101D8000FB68DB685A1CFB681B7D02339A407B684A
:101D9000C3F8A420FB689B7901229A407B68C3F8B2
:101DA000A8207B68D3F8A830B3F5007F1BD07B68F0
:101DB000D3F8A4307A68D2F8A82002FB03F27B683B
:101DC000C3F8A4207B684FF40072C3F8A8207B6896
:101DD000D3F8A4207B68D3F8A830B2FBF3F27B6879
:101DE000C3F8A42032E031E0C8670000A07400000E
:101DF000E0670000F86700007B684FF40072C3F8EA
:101E0000A8203B6808331B6803F03F031A04FB68F3
:101E1000DA60FB68DA683B6804331B681B0C1A4302
:101E2000FB68DA60FB68DA684FF6FE739A4205D900
:101E30007B689B6B43F010027B689A63FB68DB68EE
:101E400001339A027B68C3F8A42000BF3B680433C7
:101E50001B6803F480439B0BDBB2002B06D0FB68AE
:101E60001B8943F010039AB2FB681A813B68043364
:101E70001B6803F47E53DB09DAB2FB685A753B68D2
:101E800004331B68DBB203F07F03DAB2FB689A7598
:101E90003B681B6803F0E0539B0EDAB2FB68DA750F
:101EA0003B681B6803F070739B0DDAB2FB681A760F
:101EB0003B681B6803F400135B0DDBB2002B06D0FC
:101EC000FB681B8943F040039AB2FB681A813B68A8
:101ED0001B6803F40043DB0BDBB2002B06D0FB686E
:101EE0001B8943F080039AB2FB681A813B681B6828
:101EF00003F480439B0BDBB2002B06D0FB681B89ED
:101F000043F480739AB2FB681A813B681B6803F440
:101F100000535B0BDBB2002B06D0FB681B8943F43C
:101F200000739AB2FB681A813B681B6803F4805304
:101F30001B0BDBB2002B06D0FB681B8943F48063CC
:101F40009AB2FB681A813B681B6803F440639B0AE2
:101F5000DAB2FB685A761037BD4680BD80B58CB0CA
:101F600000AF78607B68002B06D12C4840F2AB2193
:101F70002B4A2C4BFEF790FB0023BB620023FB6235
:101F800007F1080300221A60043300221A600433A8
:101F900000221A60043300221A60043300221A60FF
:101FA000043300221A60043300221A600433002232
:101FB0001A6004330923BB607B681B6B1B04FB6046
:101FC00003237B7407F10803FB620023BB627B6879
:101FD0009B6A7A68116807F12802084611469847FB
:101FE0000346002B13D17B6803F14C0207F1080371
:101FF0000C3310461946102203F04AFB07F1080380
:102000000C3378681946FFF7F3FD002301E040F236
:10201000097318463037BD4680BD00BFC867000051
:10202000B0740000E067000080B584B000AF786055
:1020300039607B68002B06D135484FF43171354A41
:10204000354BFEF729FB3B68002B06D1304840F2A8
:10205000C521304A314BFEF71FFB7B686833FB60BC
:102060003B680C331B681B0EDAB2FB681A703B68C6
:102070000C331B6823F07F4323F0FF031B0A9AB243
:10208000FB685A803B680C331B68DAB2FB681A7134
:102090003B6808331B681B0EDAB2FB685A713B6859
:1020A00008331B6803F47F031B0CDAB2FB689A71D8
:1020B0003B6808331B6803F47F431B0ADAB2FB68F2
:1020C000DA713B6808331B68DAB2FB681A723B6846
:1020D00004331B681B0EDAB2FB685A723B68043388
:1020E0001B681A02FB68DA60FB68DA683B681B68E9
:1020F0001B0E1A43FB68DA603B681A68084B1340F2
:102100001B0A9AB2FB681A821037BD4680BD00BF19
:10211000C8670000BC740000E067000000680000B1
:1021200000FF0F0080B58CB000AF78607B68002B9B
:1021300006D12B4840F2DD212A4A2B4BFEF7ACFAA0
:102140000023BB620023FB6207F1080300221A6030
:10215000043300221A60043300221A600433002280
:102160001A60043300221A60043300221A60043318
:1021700000221A60043300221A6004330223BB6079
:102180000023FB6003237B7407F10803FB62002339
:10219000BB627B689B6A7A68116807F1280208466F
:1021A000114698470346002B13D17B6803F13C028C
:1021B00007F108030C3310461946102203F068FAA1
:1021C00007F108030C3378681946FFF72DFF002349
:1021D00001E040F2097318463037BD4680BD00BFAC
:1021E000C8670000CC740000E067000080B58EB0C6
:1021F00000AF786039607B68002B06D1354840F22B
:10220000F521354A354BFEF747FA0023BB62002320
:10221000FB6207F1080300221A60043300221A60EF
:10222000043300221A60043300221A6004330022AF
:102230001A60043300221A60043300221A60043347
:1022400000221A6004334FF47A733B632923BB6086
:102250003B68FB6004237B7432E07868FFF7D6F8B4
:102260000346002B02D040F215732FE007F108035C
:10227000FB620023BB627B689B6A7A68116807F186
:1022800028020846114698470346002B02D040F228
:1022900009731BE07B69002B10DA7B6903F0804334
:1022A000002B05D07B689B6B43F002027B689A632E
:1022B00000237B637A697B685A6606E005237B63AB
:1022C0003B6B5A1E3A63002BC7D17B6B18463837DD
:1022D000BD4680BDC8670000DC740000E0670000F8
:1022E00080B58CB000AF78607B68002B06D12648A3
:1022F00040F22131254A264BFEF7CEF90023BB627E
:102300000023FB6207F1080300221A600433002255
:102310001A60043300221A60043300221A60043366
:1023200000221A60043300221A60043300221A606B
:10233000043300221A6004330823BB604FF4D573C2
:10234000FB6009237B7407F10803FB620023BB6277
:102350007B689B6A7A68116807F128020846114673
:1023600098470346002B02D040F2097307E07B69CF
:10237000DBB2AA2B02D040F20C7300E00023184617
:102380003037BD4680BD00BFC8670000047500003F
:10239000E067000080B594B000AFF860B9607A6083
:1023A0003B60FB68002B06D1694840F23D31694A29
:1023B000694BFEF771F9BB68002B06D1644840F207
:1023C0003E31644A654BFEF767F9BB6D002B06D1C1
:1023D0005F4840F23F315F4A614BFEF75DF93B6871
:1023E000002B06D15A484FF450715A4A5D4BFEF704
:1023F00053F93B68B3F5007F06D0554840F24131B0
:10240000544A594BFEF748F90023BB640023FB6490
:1024100007F1280300221A60043300221A600433F3
:1024200000221A60043300221A60043300221A606A
:10243000043300221A60043300221A60043300229D
:102440001A60043307F1140300221A6004330022D7
:102450001A60043300221A60043300221A60043325
:1024600000221A600433FB689B6B03F00203002B0D
:1024700003D03B68B3F5007F0FD1FB68D3F8A820E9
:102480003B689A4209D3FB68DA693B689A4204D3F5
:102490003B6803F00303002B02D040F20C7352E0C0
:1024A000F868FEF78FFF0346002B02D04FF4E3637A
:1024B00049E03B68BB61BB6DFB61BB683B621223BB
:1024C000BB62FB69012B01D11123BB627B68FB62FC
:1024D000FB689B6B03F00203002B04D1FB6ABA6913
:1024E00002FB03F3FB62012387F8313007F1280375
:1024F000FB6407F11403BB64FB689B6AFA6811680C
:1025000007F148020846114698470346002B04D1BC
:102510007A6B164B1340002B02D040F2097312E085
:10252000FB69012B0ED93B7D83F00103DBB2002B4D
:1025300008D0F868FEF7B0FF0346002B02D040F247
:10254000177300E0002318465037BD4680BD00BF1A
:10255000C867000020750000E06700000868000000
:10256000106800001C680000286800000800F9FFDF
:1025700080B594B000AFF860B9607A603B60FB68EA
:10258000002B06D16A4840F27A316A4A6A4BFEF75C
:1025900083F8BB68002B06D1654840F27B31654A61
:1025A000664BFEF779F8BB6D002B06D160484FF4FF
:1025B0005F71604A624BFEF76FF83B68002B06D1F3
:1025C0005B4840F27D315B4A5E4BFEF765F83B6845
:1025D000B3F5007F06D0564840F27E31554A5A4B3B
:1025E000FEF75AF80023BB640023FB6407F12803BD
:1025F00000221A60043300221A60043300221A6099
:10260000043300221A60043300221A6004330022CB
:102610001A60043300221A60043300221A60043363
:1026200007F1140300221A60043300221A600433F5
:1026300000221A60043300221A60043300221A6058
:102640000433FB689B6B03F00203002B03D03B6851
:10265000B3F5007F0FD1FB68D3F8A8203B689A42FE
:1026600009D3FB68DA693B689A4204D33B6803F0FC
:102670000303002B02D040F20C7354E000BFFB6850
:102680001B681846FEF758FE034603F08073002BC4
:10269000F5D03B68BB61BB6DFB61BB687B621923F6
:1026A000BB62FB69012B01D11823BB627B68FB6213
:1026B000FB689B6B03F00203002B04D1FB6ABA6931
:1026C00002FB03F3FB62012387F8313007F1280393
:1026D000FB6407F11403BB64FB689B6AFA6811682A
:1026E00007F148020846114698470346002B04D1DB
:1026F0007A6B164B1340002B02D040F2097312E0A4
:10270000FB69012B0ED93B7D83F00103DBB2002B6B
:1027100008D0F868FEF7C0FE0346002B02D040F256
:10272000177300E0002318465037BD4680BD00BF38
:10273000C867000054750000E067000008680000EA
:10274000106800001C680000286800000800F9FFFD
:1027500080B590B000AFF860B9607A60FB68002B7C
:1027600006D1564840F2B531554A564BFDF794FF15
:102770007B68002B06D1514840F2B631504A524B8B
:10278000FDF78AFF00233B6300237B6307F11003FF
:1027900000221A60043300221A60043300221A60F7
:1027A000043300221A60043300221A60043300222A
:1027B0001A60043300221A60043300221A600433C2
:1027C00000BFFB681B681846FEF7B6FD034603F022
:1027D0008073002BF5D0BB68FB63FA6B7B681344F6
:1027E000013BBB63FB689B6B03F00203002B05D12D
:1027F000FB6B5B02FB63BB6B5B02BB6320233B6138
:10280000FB6B7B6101237B7607F110037B63002365
:102810003B63FB689B6AFA68116807F1300208465F
:10282000114698470346002B04D1FA69274B134001
:10283000002B02D040F209733CE021233B61BB6BCB
:102840007B6107F110037B6300233B63FB689B6A9A
:10285000FA68116807F130020846114698470346A6
:10286000002B04D1FA69194B1340002B02D040F21F
:1028700009731FE026233B6100237B6102237B76E3
:1028800007F110037B6300233B63FB689B6AFA68D4
:10289000116807F130020846114698470346002B9D
:1028A00004D1FA69094B1340002B02D040F209739E
:1028B00000E0002318464037BD4680BDC8670000D1
:1028C00060750000E0670000106800000800F9FF74
:1028D00080B584B000AF78607B68002B06D1864855
:1028E00040F2F531854A864BFDF7D6FE7B681B68C2
:1028F000002B06D1804840F2F631804A814BFDF72B
:10290000CBFE7B689B6A002B06D17B4840F2F731F7
:102910007A4A7D4BFDF7C0FE0023FB600023BB60BD
:102920007B681B7A002B02D04FF4E163E0E07B6808
:102930001A687B685B6810461946744A01F09EFF6E
:1029400002467B68DA627B681B681846642102F0E5
:1029500055F87868FEF77EFD0346002B02D040F262
:102960001373C5E07B681A687B68143310461946F8
:1029700001F040FF7B685B6A03F08073002B03D09B
:10298000FB6843F44013FB607868FFF7A9FC03463B
:10299000002B0AD1FB6843F08043FB607B689B6B94
:1029A00043F008027B689A6308E07868FEF752FDFE
:1029B0000346002B02D040F2137399E07868F9685F
:1029C000FFF714FCB860BB68052B02D14FF4E1633C
:1029D0008EE0BB68002B02D040F2147388E0786868
:1029E000FFF7A0FB0346002B02D040F20D737FE0FF
:1029F0007868FEF797FD0346002B02D040F20E7375
:102A000076E07868FFF7AAFA0346002B02D040F27E
:102A10000F736DE078680121FEF7B0FC0346002BD0
:102A200002D04FF4E26363E07868FEF715FF0346D7
:102A3000002B02D040F211735AE07B681A687B6861
:102A40005B6810461946324A01F018FF02467B685F
:102A5000DA627B685B6A03F01003002B15D07B6899
:102A60009B6B03F00403002B0FD078680421FFF761
:102A70004FF80346002B02D040F2127338E07B6817
:102A80001B6818460121FEF763FC7B685B6A03F450
:102A90000013002B20D07868FEF794FFB860BB6865
:102AA000002B07D0BA6840F20C739A4202D040F271
:102AB0001B731DE0BB68002B0CD17B681A687B6818
:102AC0005B6810461946134A01F0D8FE02467B683F
:102AD000DA6201E00023BB6078684FF40071FEF712
:102AE000FDFC0346002B02D040F20A73BB600023BA
:102AF00018461037BD4680BDC86700006C750000E1
:102B0000E06700005468000064680000801A060056
:102B100040787D0180F0FA0280B582B000AF786025
:102B20007B68002B06D1074840F27941064A074BE3
:102B3000FDF7B2FD78680021FEF720FC0837BD469E
:102B400080BD00BFC867000090750000E06700000E
:102B500080B58CB002AFF860B9607A603B60FB680A
:102B6000002B06D12F484FF491612F4A2F4BFDF7D0
:102B700093FDBB68002B06D12A4840F289412A4ABE
:102B80002B4BFDF789FD3B68002B06D1254840F211
:102B90008A41254A274BFDF77FFD3A687B681A4436
:102BA000FB68D3F8A4309A4201D9042335E03B688E
:102BB0003B620023FB612CE0FB681A6A3B6A9A4285
:102BC00008D2FB681B6A3A6AD31A3B62FB681B6A2D
:102BD0007B6203E03B6A7B6200233B62FB695B0232
:102BE000BA681344BB617A68FB6913447A6A00923D
:102BF000F868B9691A464FF40073FFF7CBFB7861A8
:102C00007B69002B01D07B6907E0FA697B6A13447A
:102C1000FB613B6A002BCFD1002318462837BD4605
:102C200080BD00BFC86700009C750000E067000021
:102C3000086800001068000080B58CB002AFF86032
:102C4000B9607A603B60FB68002B06D12F4840F2E8
:102C5000B5412F4A2F4BFDF71FFDBB68002B06D156
:102C60002A4840F2B6412A4A2B4BFDF715FD3B6836
:102C7000002B06D1254840F2B741254A274BFDF7E6
:102C80000BFD0023FB613A687B681A44FB68D3F8AC
:102C9000A4309A4201D9042333E03B683B622CE024
:102CA000FB681A6A3B6A9A4208D2FB681B6A3A6A56
:102CB000D31A3B62FB681B6A7B6203E03B6A7B6260
:102CC00000233B62FB695B02BA681344BB617A680C
:102CD000FB6913447A6A0092F868B9691A464FF49E
:102CE0000073FFF745FC78617B69002B01D07B699D
:102CF00007E0FA697B6A1344FB613B6A002BCFD182
:102D0000002318462837BD4680BD00BFC8670000B5
:102D1000AC750000E0670000086800001068000063
:102D200080B588B000AFF860B9607A60FB68002BAE
:102D300006D1274840F2E141264A274BFDF7ACFC7B
:102D40007B68002B06D1224840F2E241214A234B06
:102D5000FDF7A2FC0023BB617A68BB681A44FB68DC
:102D6000D3F8A4309A4201D904232DE07B687B611B
:102D700026E0FB6893F891305A1C7B699A4209D28D
:102D8000FB6893F891300133FB617A69FB69D31AD0
:102D90007B6103E07B69FB6100237B61BA68BB69EF
:102DA0001344F8681946FA69FFF7D2FC38613B69A9
:102DB000002B01D03B6907E0BA69FB691344BB6192
:102DC0007B69002BD5D1002318462037BD4680BD36
:102DD000C8670000BC750000E067000010680000D4
:102DE00080B58EB000AFF860B9607A60FB70BB68E8
:102DF000002B05D126482721264A274BFDF74CFCFE
:102E000000233B6300237B6307F1100300221A6059
:102E1000043300221A60043300221A6004330022B3
:102E20001A60043300221A60043300221A6004334B
:102E300000221A60043300221A60043307233B6126
:102E4000FB78002B05D07B681B047B6101237B761C
:102E500003E000237B6100237B7607F110037B6393
:102E600000233B6307F13002BB68F86811469847BE
:102E70000346002B04D1FA69084B1340002B02D003
:102E800040F2097300E0002318463837BD4680BD84
:102E900078680000CC750000946800000800F9FF15
:102EA00080B58EB000AFF860B9607A60BB68002B67
:102EB00005D12A4845212A4A2A4BFDF7EDFB00237C
:102EC0003B6300237B6307F1100300221A60043385
:102ED00000221A60043300221A60043300221A60B0
:102EE000043300221A60043300221A6004330022E3
:102EF0001A60043300221A6004330D233B617B689F
:102F00001B047B6101237B7607F110037B630023A5
:102F10003B6307F13002BB68F868114698470346E7
:102F2000002B04D1FA69104B1340002B02D040F261
:102F300009730EE0FB6903F48073002B08D0FB6972
:102F400003F4F0535B0A072B02D000BF002300E01C
:102F5000DAE718463837BD4680BD00BF7868000004
:102F6000E0750000946800000800F9FF80B58EB09D
:102F700000AFF860B9607A60BB68002B05D12848C3
:102F80006321284A284BFDF787FB00233B6300237E
:102F90007B6307F1100300221A60043300221A60D9
:102FA000043300221A60043300221A600433002222
:102FB0001A60043300221A60043300221A600433BA
:102FC00000221A60043337233B6100237B617B6856
:102FD0001B047B6101237B7607F110037B630023D5
:102FE0003B6307F13002BB68F86811469847034617
:102FF000002B04D1FA690D4B1340002B02D040F294
:10300000097308E0FB6903F02003002B02D140F2B2
:103010000C7300E0002318463837BD4680BD00BF62
:1030200078680000F8750000946800000800F9FF57
:1030300080B58CB000AF786039603B68002B05D15B
:103040001D4895211D4A1E4BFDF726FB0023BB6240
:103050000023FB6207F1080300221A6004330022F8
:103060001A60043300221A60043300221A60043309
:1030700000221A60043300221A60043300221A600E
:10308000043300221A6004330023BB6007F10803F5
:10309000FB620023BB6207F128023B687868114697
:1030A00098470346002B02D040F2097300E000234A
:1030B00018463037BD4680BD78680000187600009D
:1030C0009468000080B58CB000AF786039603B68D0
:1030D000002B05D12348A821234A244BFDF7DCFA15
:1030E0000023BB620023FB6207F1080300221A6081
:1030F000043300221A60043300221A6004330022D1
:103100001A60043300221A60043300221A60043368
:1031100000221A60043300221A6004330C23BB60BF
:103120000023FB6003233B7402237B7407F1080335
:10313000FB620023BB6207F128023B6878681146F6
:1031400098470346002B04D17A69094B1340002BA2
:1031500002D040F2097300E0002318463037BD4624
:1031600080BD00BF786800002876000094680000E9
:103170000800F9FF80B58EB000AFF860B9607A60E2
:10318000BB68002B05D12248BE21224A224BFDF705
:1031900083FA00233B6300237B6307F110030022C3
:1031A0001A60043300221A60043300221A600433C8
:1031B00000221A60043300221A60043300221A60CD
:1031C000043300221A60043300221A6004331023EF
:1031D0003B617B687B6101237B7607F110037B6396
:1031E00000233B6307F13002BB68F868114698473B
:1031F0000346002B04D1FA69084B1340002B02D080
:1032000040F2097300E0002318463837BD4680BD00
:103210007868000040760000946800000800F9FF1C
:1032200080B483B000AF7860074B074A126822F47D
:1032300040217A68920402F440220A431A600C3753
:10324000BD465DF8047B70470070044080B483B0D5
:1032500000AF78600A490A4B03F5805304331B68BA
:1032600023F480327B681B0403F480331A4301F596
:10327000805304331A600C37BD465DF8047B7047F9
:103280000070044080B485B000AF786039607B681E
:103290001B78FB73FB7B03F05F03FB733B681A78BF
:1032A000FB7B1343FB737B68FA7B1A701437BD46B4
:1032B0005DF8047B704700BF80B485B000AF7860D4
:1032C0000B46FB707B681B78FB73FB7B23F00F03C3
:1032D000FB73FA7BFB781343FB737B68FA7B1A70F2
:1032E0001437BD465DF8047B704700BF80B582B0DF
:1032F00000AF174B1B7BDBB203F00103002B02D0A6
:10330000012B0ED01BE0134B1B68002B05D112487C
:10331000EC21124A124BFDF7BFF90E4B1B687B6084
:1033200010E0104B1B68002B05D10B48F1210B4A14
:103330000D4BFDF7B1F90B4B1B687B6002E00023DE
:103340007B6000BF7B6818460837BD4680BD00BF64
:10335000004006403C16FF1FA068000054760000A5
:10336000B86800003816FF1FC468000080B582B03E
:1033700000AFFFF7BBFF78607B68002B01D17B6853
:103380004AE0274B1B78DBB203F03803DB08FB7005
:10339000FB787A6822FA03F37B60214B5B78DBB21F
:1033A00003F030031B09BB701D4B1B7BDBB203F02A
:1033B00001037B70BB78002B2DD07B78002B2AD1AA
:1033C000FB78072B24D801A151F823F0ED3300003E
:1033D000ED330000ED330000ED330000ED3300006D
:1033E000ED330000F5330000033400007B685B0917
:1033F0007B6010E07A680B4BA3FB02131B097B6018
:1034000009E07A68084BA3FB0213DB087B6002E04B
:1034100000237B6000BF7B6818460837BD4680BD2F
:1034200000400640CDCCCCCCABAAAAAA80B400AF59
:103430000C4B9B79DBB203F00103002B02D10A4B4A
:103440001B6809E0094B1A68064B1B7ADBB203F0D4
:103450000E035B0822FA03F31846BD465DF8047BB1
:10346000704700BF004006400000FF1F0400FF1F20
:1034700080B500AF074B9B79DBB203F010031B094B
:10348000002B03D1FFF772FF034601E0024B1B68DC
:10349000184680BD004006400000FF1F80B500AF09
:1034A000FFF724FF0346184680BD00BF80B485B0F7
:1034B00000AF78607A6849F697039A4202D80023F1
:1034C000FB7308E07A68074B9A4202D80123FB732A
:1034D00001E00223FB73FB7B18461437BD465DF801
:1034E000047B704700127A0080B500AF0B4B1B784D
:1034F000DBB2DBB25BB2002B0DDA094B1B68002B91
:1035000006D1084840F26D11074A084BFDF7C4F890
:10351000034B1B6800E00023184680BD00500640A6
:103520003C16FF1FA06800006C760000B868000021
:1035300080B582B000AF194B1B6803F440239B0C8D
:10354000022B0FD0032B1CD0002B1ED1FFF7CCFF7A
:103550000346B3F5004F02D14FF4004300E00023CF
:103560007B6015E00E4B1B68002B06D10D4840F226
:1035700081110D4A0D4BFDF78FF8094B1B687B60DD
:1035800006E04FF47A737B6002E000237B6000BFAB
:103590007B6818460837BD4680BD00BF00700440F8
:1035A0003816FF1FA068000084760000C468000081
:1035B00080B582B000AF0E4B03F5805304331B6817
:1035C00003F480331B0C002B02D0012B04D007E046
:1035D00000F00CF9786006E000F06CF9786002E029
:1035E00000237B6000BF7B6818460837BD4680BD5E
:1035F0000070044080B500AF00F0C6F80246064BEC
:1036000003F5825304331B6803F070631B0E013310
:10361000B2FBF3F3184680BD0070044080B584B05F
:1036200000AF0346FB71FB79132B00F2898001A2E6
:1036300052F823F08536000085360000A1360000E0
:10364000C1360000E13600004137000001370000BC
:1036500009370000113700004137000041370000F2
:1036600019370000213700002937000031370000EA
:10367000413700004137000041370000413700006A
:103680003937000000F080F80246314B03F58253D1
:1036900004331B681B0F0133B2FBF3F3FB6052E0F2
:1036A00000F072F802462A4B03F5825304331B687C
:1036B00003F070631B0E0133B2FBF3F3FB6042E0D7
:1036C00000F062F80246224B03F5825304331B6874
:1036D00003F470031B0D0133B2FBF3F3FB6032E024
:1036E00000F052F802461A4B03F5825304331B686C
:1036F00003F470231B0C0133B2FBF3F3FB6022E0F5
:10370000FFF756FFF8601EE0FFF712FFF8601AE0BF
:10371000FFF7EAFEF86016E000F0B4F8F86012E097
:1037200000F09EF8F8600EE000F060F8F8600AE043
:1037300000F0C0F8F86006E04FF47A73FB6002E036
:103740000023FB6000BFFB6818461037BD4680BDF4
:103750000070044080B582B000AF7860094B7A6891
:10376000526803F5825304331A607B681B7818464D
:10377000FFF76CFD7B685B781846FFF751FD083753
:10378000BD4680BD0070044080B582B000AF164BCE
:103790009B79DBB203F00C039B083B603B68032B77
:1037A0001AD801A252F823F0C1370000C93700002F
:1037B000D1370000B937000000F07CF878600EE0E7
:1037C00000F014F878600AE0FFF730FE786006E059
:1037D000FFF78CFD786002E000237B6000BF7B6810
:1037E00018460837BD4680BD0040064080B582B00F
:1037F00000AF194B5B78DBB203F00203002B06D15C
:10380000154B9B79DBB203F02003002B01D0002382
:103810001DE0FFF72DFE78607B68002B01D17B68EF
:1038200015E00D4BDB78DBB203F060035B09FB7046
:10383000094BDB78DBB2DB09BB70F978BA78074B50
:1038400049000A4433F812307A6802FB03F3184641
:103850000837BD4680BD00BF004006409C76000092
:1038600080B500AF064B1B78DBB203F00203002BE0
:1038700001D1002302E0FFF7D9FD0346184680BDC1
:103880000040064080B582B000AFFFF7F1FD7860E0
:103890007B68002B08D0FFF777FF0346DA087B68C8
:1038A0009A4201D37B6800E0002318460837BD46E2
:1038B00080BD00BF80B582B000AF184B9B79DBB2F2
:1038C00003F04003002B01D1002322E0FFF7E6FDC7
:1038D00078607B68002B06D1114840F27A21114AAA
:1038E000114BFCF7D9FE0D4B1B79DBB203F01F0324
:1038F00001337A68B2FBF3F37B60084B5B79DBB290
:1039000003F01F0303F118027B6802FB03F37B60E3
:103910007B6818460837BD4680BD00BF00400640A2
:10392000A0680000AC760000D468000080B485B0C8
:1039300000AF0346FB71174B1B7BDBB203F00102A8
:10394000FB799A4202D00123FB7301E00023FB7351
:10395000104B104A127BD2B222F00102D1B2FA7996
:1039600002F00102D2B20A43D2B21A73FB7B002BDF
:1039700009D040F2DC53BB6000E000BFBB685A1EB8
:10398000BA60002BF9D1002318461437BD465DF804
:10399000047B70470040064080B485B000AF1346FA
:1039A0000246FA710A46BA717B713B4B9B79DBB2D6
:1039B00003F00C039B08FB60374B9B79DBB203F0F1
:1039C0000103FB72344B1B7ADBB203F00E035B087E
:1039D000BB727A79BB7A9A422CD0FB7A012B19D12F
:1039E000FB68012B06D02C4B1B78DBB203F00203E3
:1039F000002B0FD0284B284A5278D2B222F0010275
:103A0000D2B25A7000BF244B9B79DBB203F00103A2
:103A1000002BF8D1204B204A127AD2B222F02F028A
:103A2000D1B27A795200D2B202F00E02D2B20A4377
:103A3000D2B21A72184B184A5278D2B222F001024E
:103A4000D1B2BA7902F00102D2B20A43D2B25A70AC
:103A5000114B114A1278D2B222F00302D1B2FA7994
:103A60000A43D2B21A70FB68012B04D0FB7903F031
:103A70000203002B08D000BF074B9B79DBB203F099
:103A80000102BB799A42F7D1002318461437BD468C
:103A90005DF8047B704700BF0040064080B584B0ED
:103AA00000AF78607B68002B06D11D4840F23A31A8
:103AB0001C4A1D4BFCF7F0FD0023FB737B685B7811
:103AC00003F01F03DAB2FB7B1343FB73174BFA7B44
:103AD0001A71164B154A5279D2B222F01F02D1B296
:103AE0007A68927802F01F02D2B20A43D2B25A71B7
:103AF0000E4B0E4A1279D1B27A6812780A43D2B2CA
:103B000042F04002D2B21A7100BF084B9B79DBB27F
:103B100003F04003002BF8D01037BD4680BD00BF36
:103B2000A0680000C0760000E06800000040064089
:103B300080B584B000AF78607B681B681846FFF7DB
:103B4000B5FC0346FB737B681B791A481946FFF7DF
:103B5000B3FB7B68063317481946FFF793FB164BF8
:103B6000154A5278D2B222F03C02D1B2FA7B12014D
:103B7000D2B202F03002D2B20A43D1B27A6852799C
:103B80000A43D2B25A707B685B79002B0ED0094B86
:103B90001B78DBB2DBB25BB2002B07DA00BF064B4F
:103BA0009B79DBB203F00203002BF8D01037BD463F
:103BB00080BD00BF005006400040064080B582B086
:103BC00000AF03463960FB713B68002B06D12548E6
:103BD00040F2C651244A254BFCF75EFD244B244A93
:103BE0005278D2B222F00202D2B25A70204B204A4E
:103BF0001278D2B202F03B02D2B262F07F02D2B2AD
:103C00001A7000BF1A4B9B79DBB203F01C03082B20
:103C1000F8D1174B164A5279D2B222F04002D2B2F2
:103C20005A7100BF124B9B79DBB203F02003002BCB
:103C3000F8D13868FFF732FF0D4B0D4A5279D2B2F6
:103C400042F04002D2B25A7100BF094B9B79DBB2FD
:103C500003F02003002BF8D0002318460837BD4698
:103C600080BD00BFA0680000D4760000E0680000BE
:103C70000040064080B582B000AF0B463A60024675
:103C8000FA71BB713B68002B06D113484FF4CE612B
:103C9000124A134BFCF700FDFB791846FFF746FE6E
:103CA000BB7918463968FFF789FF0E4B0D4A127829
:103CB000D2B202F03F02D2B21A7000BF094B9B7918
:103CC000DBB203F00C039B08032BF7D1002318464B
:103CD0000837BD4680BD00BFA0680000E876000040
:103CE000E06800000040064080B483B000AF786018
:103CF0007B681B68DB0FDBB218460C37BD465DF8EE
:103D0000047B704780B582B000AF78603960786816
:103D1000FFF7EAFF0346002B05D0084B1B687868C5
:103D20003968984704E0064B1B68786839689847FB
:103D3000BFF34F8F0837BD4680BD00BFA800FF1FEF
:103D4000AC00FF1F80B500AF084B1B68002B06D1ED
:103D5000074840F2E161074A074BFCF79DFC034B23
:103D60001B6806481946FFF7CDFF80BD9C00FF1F6A
:103D7000E8680000FC7600006C69000000C00240AA
:103D800080B500AF084B5B68002B06D1074840F2B6
:103D9000E961074A074BFCF77FFC034B5B68064869
:103DA0001946FFF7AFFF80BD9C00FF1FE8680000C9
:103DB000147700007C69000000D0024080B500AF9D
:103DC000084B9B68002B06D1074840F2F161074A77
:103DD000074BFCF761FC034B9B6806481946FFF74D
:103DE00091FF80BD9C00FF1FE86800002C77000059
:103DF0008C69000000C00A4090B589B000AF7860BF
:103E00007B68002B06D1504840F24B314F4A504B53
:103E1000FCF742FC7B689B687A68127CDA777B68E7
:103E2000DB68002B0DD17B681B68002B09D07B68F9
:103E30001C687B685B687868194601220023A047EC
:103E40007EE07B689A687B681B7C5B01134403F50A
:103E5000805318331B687B617B689A687B681B7C86
:103E60005B01134403F5805318339B889BB203F026
:103E70008003002B0CBF00230123FB747B68DB68ED
:103E80007A69D31A7B617B695B09FB60FB7C002B41
:103E900002D0FB68FB760EE0FB68002B04D0FB68C9
:103EA000DBB2013BDBB205E07B681B7DDBB2DBB242
:103EB000013BDBB2FB76FA7E7B685B7CDBB25BB2FC
:103EC0009A4212D17B68DB7CDAB27B681B7DDBB265
:103ED00052B25BB29A4205D17B68DB7CDBB25BB24B
:103EE000FB6113E00023FB6110E0FA7E7B685B7CE2
:103EF000DBB25BB2D31AFB61FB69002B06DA7B688D
:103F00001B7DDBB25BB2FA691344FB61FA7E7B680E
:103F10005A747B68DB7CDBB2DAB2FB69DBB2D31AA2
:103F2000DBB2DAB27B68DA747B681B68002B07D0DF
:103F30007B681C687B685968FB69FA7C7868A047D5
:103F40002437BD4690BD00BF9C6900004477000047
:103F5000946A000080B500AF034B1B681846FFF75A
:103F60004BFFBFF34F8F80BDB000FF1F80B500AF88
:103F7000034B5B681846FFF73FFFBFF34F8F80BDD1
:103F8000B000FF1F80B500AF034B9B681846FFF7DA
:103F900033FFBFF34F8F80BDB000FF1F80B500AF70
:103FA000034BDB681846FFF727FFBFF34F8F80BD39
:103FB000B000FF1F80B500AF034B1B691846FFF729
:103FC0001BFFBFF34F8F80BDB000FF1F80B500AF58
:103FD000034B5B691846FFF70FFFBFF34F8F80BDA0
:103FE000B000FF1F80B500AF034B9B691846FFF779
:103FF00003FFBFF34F8F80BDB000FF1F80B500AF40
:10400000034BDB691846FFF7F7FEBFF34F8F80BD08
:10401000B000FF1F80B500AF034B1B6A1846FFF7C7
:10402000EBFEBFF34F8F80BDB000FF1F80B500AF28
:10403000034B5B6A1846FFF7DFFEBFF34F8F80BD6F
:10404000B000FF1F80B500AF034B9B6A1846FFF717
:10405000D3FEBFF34F8F80BDB000FF1F80B500AF10
:10406000034BDB6A1846FFF7C7FEBFF34F8F80BDD7
:10407000B000FF1F80B500AF034B1B6B1846FFF766
:10408000BBFEBFF34F8F80BDB000FF1F80B500AFF8
:10409000034B5B6B1846FFF7AFFEBFF34F8F80BD3E
:1040A000B000FF1F80B500AF034B9B6B1846FFF7B6
:1040B000A3FEBFF34F8F80BDB000FF1F80B500AFE0
:1040C000034BDB6B1846FFF797FEBFF34F8F80BDA6
:1040D000B000FF1F80B500AF0A4B1B68002B06D154
:1040E000094840F61601094A094BFCF7D5FA094B75
:1040F0001B68044A1268084811469847BFF34F8F5F
:1041000080BD00BFF000FF1FE06B0000547700008F
:10411000C86E0000F400FF1F0040024080B485B06C
:1041200000AFF860B9601346FB71FB79002B05D135
:10413000BB6801229A40FB689A6004E0BB680122D8
:104140009A40FB685A601437BD465DF8047B70479F
:1041500080B584B000AFF860B9601346FB71FB799D
:10416000F868B9681A46FFF7D9FF1037BD4680BD19
:1041700080B584B000AFF860B9607A607B68002BCE
:1041800005D114485F21144A144BFCF785FA7B686B
:104190001B78002B0AD1FB685A69BB68012101FA20
:1041A00003F3DB431A40FB685A610FE07B685B78DE
:1041B000F868B9681A46FFF7CBFFFB685A69BB6815
:1041C000012101FA03F31A43FB685A611037BD4617
:1041D00080BD00BFDC6E00006C770000186F00002F
:1041E00080B582B000AF786039607B68DB78DBB285
:1041F00003F01003002B06D17B689B78DBB203F041
:104200002003002B05D0084B1B6878683968984755
:1042100004E0064B1B68786839689847BFF34F8FF6
:104220000837BD4680BD00BF0401FF1F0801FF1F06
:1042300080B500AF034B1B6803481946FFF7D0FF5A
:1042400080BD00BFF800FF1F0060064080B500AFD2
:10425000034B5B6803481946FFF7C2FF80BD00BFF0
:10426000F800FF1F0070064080B500AF034B9B684D
:1042700003481946FFF7B4FF80BD00BFF800FF1FD9
:1042800000600E4080B500AF0A4B1B68002B06D1C2
:1042900009484FF49561094A094BFCF7FDF9094BB0
:1042A0001B68044A1268084811469847BFF34F8FAD
:1042B00080BD00BF4016FF1F206F00007C7700000C
:1042C000646F00000C01FF1F00F0024080B500AFDA
:1042D0000A4B5B68002B06D1094840F2B341094AFA
:1042E000094BFCF7D9F9094B1B68044A5268084886
:1042F00011469847BFF34F8F80BD00BF4016FF1F88
:10430000206F000098770000786F00001001FF1FF9
:1043100000F0024080B483B000AF0346FB7197F910
:104320000730002B10DB0B4B97F907205209F97966
:1043300001F01F01012000FA01F1203243F82210A0
:10434000BFF34F8FBFF36F8F0C37BD465DF8047B13
:10435000704700BF00E100E080B485B000AF786036
:104360007B681B0C03F1804303F58E23FB60FB6825
:10437000FA6811687A6892B2012000FA02F20A43E0
:104380001A601437BD465DF8047B704780B582B073
:1043900000AF0346FB7197F9073013F1800F01D18D
:1043A000012305E097F907301846FFF7B3FF002314
:1043B00018460837BD4680BD80B483B000AF786032
:1043C00039607B685A6B3B681A437B685A630C37C9
:1043D000BD465DF8047B704780B483B000AF786061
:1043E00039607B685A6B3B68DB431A407B685A63D1
:1043F0000C37BD465DF8047B704700BF80B483B0C6
:1044000000AF786039607B689A6B3B681A437B68C1
:104410009A630C37BD465DF8047B704780B483B067
:1044200000AF786039607B689A6B3B68DB431A4069
:104430007B689A630C37BD465DF8047B704700BF0C
:1044400080B483B000AF78607B685B6A18460C3735
:10445000BD465DF8047B704780B584B000AF7860DE
:104460000023FB7302E0FB7B0133FB73FB7B002B20
:1044700003D1094A7B689A42F5D1FB7B002B05D01A
:104480000648FB21064A074BFCF706F9FB7B18465A
:104490001037BD4680BD00BF00100B40B06F00005C
:1044A000B4770000C86F000080B584B000AF7860BA
:1044B0000B46FB707B689B6A03F00803002B0CBF64
:1044C00000230123FB7278681249FFF785FF7868A3
:1044D0001049FFF7A3FF7868FFF7BEFF51235BB2D7
:1044E0001846FFF753FF0C4BFB60FB7A002B03D001
:1044F000FB6843F0C003FB607868F968FFF75CFF76
:10450000FB78002B03D07868F968FFF777FF103746
:10451000BD4680BD3F017F113B007F1180B58AB051
:1045200000AFF860B9607A60FB7000237B6207F12E
:10453000100300221A60043300221A6004330022A0
:104540001A60043300221A60043300221A60043314
:10455000BB685B7A092B44D801A252F823F000BF54
:10456000E345000089450000934500009D4500009B
:10457000A7450000B1450000BB450000C54500004F
:10458000CF450000D94500007B6A43F4D0137B621D
:1045900028E07B6A43F4D8137B6223E07B6A43F410
:1045A00010237B621EE07B6A43F400337B6219E0D8
:1045B0007B6A43F400337B6214E07B6A43F4D013DC
:1045C0007B620FE07B6A43F4D8137B620AE07B6A6C
:1045D00043F4D0137B6205E07B6A43F4D0137B6223
:1045E00000E000BFBB681B7A032B03D17B6A43F456
:1045F00040037B627B68002B29D07B6A43F4001365
:104600007B62FB78002B03D07B6A43F001037B6263
:104610007B68DB68002B03D07B6A43F010037B626E
:104620007B689B68012B0BD97B6A43F022037B627A
:104630007B681B78002B03D07B6A43F004037B620A
:104640007B685B683B617B689B687B6103E0002360
:104650003B6100237B61BB685B68BB61BB681B6817
:10466000FB617B6A3B6207F11003F868194600F0B2
:10467000EBF92837BD4680BD80B584B000AF7860C7
:1046800039603B68002B06D13F4840F20F313F4A6A
:104690003F4BFCF701F83B689B78012B06D13A4869
:1046A00040F21131394A3B4BFBF7F6FF3B689B6800
:1046B000002B03D03B689B68802B06D9324840F220
:1046C0001331324A344BFBF7E7FF3B685B68002B42
:1046D00003D03B685B68802B06D92B484FF44571AB
:1046E0002A4A2E4BFBF7D8FF7868FFF7B5FE2C4B14
:1046F0001846FFF731FE78684FF08071642200F0B1
:1047000051F87B689B6AFB607B685B6CBB60FB68F5
:1047100023F44E73FB603B681B78002B03D0FB68CF
:1047200043F00803FB603B685B781B0103F0300239
:104730003B689B781B0203F440731343FA681343EE
:10474000FB60BB6803F0FF23BB603B685B68DAB2C9
:104750003B689B681B0403F47F031343BA6813434D
:10476000BB607B68BA685A647B68FA689A627B6847
:10477000DB6A43F007027B68DA6278680021FFF7A2
:1047800093FE1037BD4680BDB06F0000C8770000B3
:104790000C700000147000003C7000008C70000071
:1047A0001100301080B485B000AFF860B9607A6055
:1047B000FB68DA6ABB6803F0E0631A43FB68DA62FD
:1047C00006E07B68002B00D108E07B68013B7B6042
:1047D000FB68DA6ABB681340002BF2D17B68002BC0
:1047E0000CBF00230123DBB218461437BD465DF829
:1047F000047B704780B586B000AF786039603B6855
:10480000002B06D11A4840F256311A4A1A4BFBF7D0
:1048100043FF7B68D3F8FC307B617B681B6C3B619A
:104820007B69DAB23B681A607B6903F47F431A0A3A
:104830003B685A603B6903F4E0231B0CFB60FB6898
:104840004FF400729A403B689A603B684FF6FF72E3
:10485000DA603B6903F0F8723B681A613B681B69D8
:1048600043F030023B681A611837BD4680BD00BF77
:10487000B06F0000D4770000D870000080B58AB017
:1048800000AFF860B9607A60BB68002B06D157486A
:104890004FF45D71564A574BFBF7FEFE7B68002BC9
:1048A00003D07A68BB689A4206D9504840F2753105
:1048B0004F4A514BFBF7F0FE00237B6200233B6223
:1048C0000023FB6100237B610023BB61BA687B6826
:1048D000B2FBF3F37B627B6A002B44D0BA687B6A3D
:1048E000B2FBF3F27B689A4202D97B6A01337B62A6
:1048F0007B6A102B2DD97B6A1B09FB6102E0FB69E7
:104900000133FB614FF48073FA69B3FBF2F2F9698A
:1049100001FB02F29B1A002BF1D1FB69012BEED0B7
:104920007A6AFB69B2FBF3F33B6202E03B6A013354
:104930003B623B6AFA6902FB03F27B6A9A42F5D357
:10494000BA683B6AB2FBF3F2FB69B2FBF3F3BB61FB
:104950000FE07B6A3B620023FB61BA683B6AB2FBF3
:10496000F3F3BB6105E000233B620023FB61BB68FE
:10497000BB613B6A002B02D03B6A013B3B62FB6997
:10498000002B02D0FB695B08FB61FB68DB6A23F04C
:104990000802FB68DA62FB68DB6A7B617B6923F4EF
:1049A0007F2323F47F637B613B6A1B01DAB2FB69DF
:1049B0001B029BB21A437B69134343F460237B6160
:1049C000FB687A69DA6200BFFB685B6A03F0080380
:1049D000002BF9D0FB68DB6A43F00802FB68DA625F
:1049E000BB6918462837BD4680BD00BFB06F0000C8
:1049F000E8770000E4700000F870000080B483B035
:104A000000AF786039607B68DB6A43F000627B68E6
:104A1000DA6206E03B68002B00D108E03B68013B0E
:104A20003B607B68DB6A03F00063002BF2D13B68DC
:104A3000002B0CBF00230123DBB218460C37BD4608
:104A40005DF8047B704700BF80B582B000AF78602E
:104A500039603B68002B06D1204840F2DA31204A09
:104A6000204BFBF719FE3B681B68B3F5005F06D3CC
:104A70001A4840F2DB311A4A1B4BFBF70DFE3B682C
:104A80005B68B3F5803F06D314484FF47771144A3E
:104A9000164BFBF701FE7B685B6803F460423B68E2
:104AA0001B68C3F30C013B685B681B040B431A4390
:104AB0007B685A603B689A687B689A603B68DB68F1
:104AC0001B0603F07C523B681969094B0B401A43E3
:104AD0007B68DA600837BD4680BD00BFB06F00005C
:104AE000F87700000C7000002C710000807100004D
:104AF0003700FB0080B58AB000AFF8607A603B6099
:104B00000B46FB7200237B623B6B3B627B68002B96
:104B100002D03B68002B05D1FB7A012B0BD0FB7A2E
:104B2000022B08D03B6B002B05D07B6B002B02D0F7
:104B3000FB7A012B02D104237B628CE0FB7A022BEF
:104B400008D13B6A03F00303002B03D04FF4D56375
:104B50007B6280E0FB7A002B7CD0022B00D07AE0D5
:104B60007B6B03F00303002B04D07B6B23F0030368
:104B700004337B637A6B3A4BA3FB0213DB0B0133E9
:104B8000BB613B689B00DA08BB699A4202D20323EF
:104B90007B6260E07B687B610023FB6147E03A6BEE
:104BA0003B6AD31A1A467B6B1344B3F5803F1ED27F
:104BB000FB69DB007A6913443A6A5A60FB69DB00DF
:104BC0007A691344396B3A6A8A1A11467A6B0A4435
:104BD00012041A60FB69DB007A691344FA69D20097
:104BE00079690A44126842F023021A601CE0FB69EA
:104BF000DB007A6913443A6A5A60FB69DB007A6920
:104C00001344184A1A60FB69DB007A691344FA6995
:104C1000D20079690A44126842F021021A603B6AA4
:104C200003F57F43FC333B62FB690133FB61FA69A7
:104C3000BB699A42B3D3FB6800221A607A68FB68AA
:104C40009A65F8683021FFF7E9FBF8683021FFF733
:104C5000C3FB00E000BF7B6A18462837BD4680BD15
:104C6000018000800000FCFF80B58AB002AFF860D0
:104C7000B9607A603B60BB6A002B06D140484FF4B4
:104C8000A661404A404BFBF707FDFB689B6A03F4B3
:104C900040731B0AFB770023BB61BB6A5B687B61C7
:104CA000BB6A1B683B617B69002B07D03B69002B0B
:104CB00006D03B699B68B3F5803F01D304235BE0DA
:104CC000F868FFF7BDFB034603F00103002B0AD190
:104CD0003B69002B0AD0F868FFF7B2FB034603F0EC
:104CE0000203002B02D040F2A46345E03B69002B95
:104CF0002FD07B68002B2CD03B69DB68002B02D0C7
:104D00003B69DB6801E03B691B693A699268396974
:104D1000496801FB02F1FA7F00930191F86811469E
:104D20007A683B68FFF7E6FEB861BB69B3F5D56FFB
:104D30000AD10023FB77F8683021FFF75FFBF868A2
:104D40003021FFF739FB04E0BB69002B01D0BB69C0
:104D500012E0BB687A695A60BB683A691A60BB683E
:104D600000229A60BB680022DA60FB7FF8687969EC
:104D70003A69FFF7D3FB002318462037BD4680BDB4
:104D8000B06F0000107800008472000080B500AFA2
:104D90000A4B1B68002B06D1094840F28B51094A87
:104DA000094BFBF779FC094B1B68044A1268084859
:104DB00011469847BFF34F8F80BD00BF1401FF1FFE
:104DC000B06F00002C780000A47200001801FF1FD3
:104DD00000100B4080B485B000AF78607B681B0C7E
:104DE00003F1804303F58E23FB60FB68FA681168CA
:104DF0007A6892B2012000FA02F20A431A6014376C
:104E0000BD465DF8047B704780B584B000AF786024
:104E10000623BB600023FB600AE00F4BFA6853F8DF
:104E200022207B689A4200D106E0FB680133FB60D8
:104E3000FA68BB689A42F0D3FA68BB689A4205D315
:104E40000648A521064A074BFBF726FCFB681846D7
:104E50001037BD4680BD00BF44780000B47200002A
:104E600074780000CC72000080B588B000AFF860A4
:104E7000B9607A60BB68002B05D15D48D0215D4ADE
:104E80005D4BFBF709FCBB681B68002B05D158483C
:104E9000D121584A594BFBF7FFFBFA68584B9A420D
:104EA00020D0FA68574B9A421AD0FA68564B9A4269
:104EB00014D0FA68554B9A420ED0FA68544B9A4275
:104EC00008D0FA68534B9A4201D101230BE04FF00E
:104ED000FF3308E0012306E0012304E0012302E0A0
:104EE000082300E00823BA685279934205DA404863
:104EF000D321404A484BFBF7CFFBFA68404B9A421C
:104F000020D0FA683F4B9A421AD0FA683E4B9A4238
:104F100014D0FA683D4B9A420ED0FA683C4B9A4244
:104F200008D0FA683B4B9A4201D101230BE04FF0C5
:104F3000FF3308E0012306E0012304E0012302E03F
:104F4000082300E00823BA689279934205DA2848DA
:104F5000D421284A314BFBF79FFB0023FB8300231E
:104F60007B770023BB61BB681B681B017A68B2FBBF
:104F7000F3F3FB83FB8B002B01D10123FB83002385
:104F80007B617B685A00BB681B68B2FBF3F39AB283
:104F9000FB8B1946C902CB1A5B019BB213447B827F
:104FA0007B685A00FB8B59017B8A0B44B2FBF3F3FD
:104FB0007B61BB681A687B699A4204D2BB681B6834
:104FC0007A69D31A03E0BB681A687B69D31ABB619C
:104FD000BB681A68124BA3FB02135A0913465B0005
:104FE0001A44BB699A421DD240F2F533B3E000BFC8
:104FF000B472000088780000F0720000F8720000BF
:1050000000A0064000B0064000C0064000D00640A8
:1050100000A00E4000B00E4010730000507300005E
:105020001F85EB51F868FFF7EFFE02464C4B53F833
:1050300022301846FFF7CEFEFB68DB78DBB223F0A8
:105040000C03DAB2FB68DA70FB681B78DBB223F082
:105050001F03DAB2FB8B1B0A9BB2DBB21343DAB23B
:10506000FB681A70FB8BDAB2FB685A70FB689B7A9C
:10507000DBB223F01F03DAB27B8ADBB203F01F033B
:10508000DBB21343DAB2FB689A72FB689B78DBB23F
:1050900023F017037B77BB685B7A9B00DBB203F0DE
:1050A0000403DAB27B7F13437B77BB681B79002B49
:1050B00007D0BB681A797B7F1343DBB243F0100340
:1050C0007B77FB687A7F9A70BB685A79FB68DA74E1
:1050D000BB689A79FB685A75FB681B7CDBB263F08E
:1050E0007703DAB2FB681A74FB685B7CDBB263F0AF
:1050F0003F03DAB2FB685A74BB68DB79002B07D038
:10510000FB685B7BDBB243F00803DAB2FB685A73DF
:10511000BB681B7A002B07D0FB685B7BDBB243F0DC
:105120000103DAB2FB685A73FB68DB787B77BB68F4
:105130009B7A002B03D07B7F43F008037B77BB680F
:10514000DB7A002B03D07B7F43F004037B77FB6883
:105150007A7FDA70002318462037BD4680BD00BF35
:105160005C78000080B582B000AF78607B68002B6F
:1051700006D1134840F26F11124A134BFBF78CFA19
:105180007B684FF4E1321A607B6800221A717B68F9
:1051900000225A717B6801229A717B680022DA71C1
:1051A0007B6800221A727B6800225A727B68002298
:1051B0009A727B680022DA720837BD4680BD00BF54
:1051C000B472000094780000F072000080B485B0E2
:1051D00000AF78607B681B79DBB21A467B685B792D
:1051E000DBB21B021343FB607B681B7BDBB21B043F
:1051F000FA681343FB607B689B7CDBB21B06FA6892
:105200001343FB60FB6818461437BD465DF8047B0A
:10521000704700BF80B485B000AFF860B9607A60B5
:105220000DE000BFFB681B79DBB2DBB25BB2002B89
:10523000F8DABB685A1CBA601A78FB68DA717B68C6
:105240005A1E7A60002BECD11437BD465DF8047B02
:10525000704700BF80B586B000AFF860B9607A6073
:10526000BB68002B06D1214840F25321204A214B34
:10527000FBF712FA30E023E0F868FFF7A7FF786148
:105280007B6903F00803002B02D040F2F13329E0E0
:105290007B6903F00403002B02D040F2F23321E0DB
:1052A0007B6903F00203002B02D040F2F33319E0D4
:1052B0007B6903F00103002B02D04FF47D7311E0F2
:1052C000FB689B7DDBB2002BD6D0BB685A1CBA6052
:1052D000FA68D279D2B21A707B685A1E7A60002BB3
:1052E000C9D1002318461837BD4680BDB4720000EE
:1052F000AC780000A073000080B500AF044B1B68C1
:10530000044A1268044811469847BFF34F8F80BD86
:105310003401FF1F1C01FF1F00A0064080B500AF35
:10532000FFF7EAFFBFF34F8F80BD00BF80B500AF2E
:10533000044B1B68044A5268044811469847BFF35F
:105340004F8F80BD3401FF1F1C01FF1F00B00640BE
:1053500080B500AFFFF7EAFFBFF34F8F80BD00BFFE
:1053600080B500AF044B1B68044A9268044811469C
:105370009847BFF34F8F80BD3401FF1F1C01FF1FF3
:1053800000C0064080B500AFFFF7EAFFBFF34F8FC4
:1053900080BD00BF80B500AF044B1B68044AD268D3
:1053A000044811469847BFF34F8F80BD3401FF1F5B
:1053B0001C01FF1F00D0064080B500AFFFF7EAFFD9
:1053C000BFF34F8F80BD00BF80B500AF044B1B689B
:1053D000044A1269044811469847BFF34F8F80BDB5
:1053E0003401FF1F1C01FF1F00A00E4080B500AF5D
:1053F000FFF7EAFFBFF34F8F80BD00BF80B500AF5E
:10540000044B1B68044A5269044811469847BFF38D
:105410004F8F80BD3401FF1F1C01FF1F00B00E40E5
:1054200080B500AFFFF7EAFFBFF34F8F80BD00BF2D
:1054300080B582B000AFFEF7DDF8786004484FF425
:10544000E13101227B68FBF73BF90837BD4680BD9F
:1054500000B00E4080B400AF044B03F58253043318
:10546000034A1A60BD465DF8047B70470070044033
:105470000000071380B483B000AF7860034B7A68F4
:105480001A600C37BD465DF8047B70473C16FF1F61
:1054900080B483B000AF0346FB710A4B094A12780F
:1054A000D2B222F03802D1B2FA79D200D2B202F0EE
:1054B0003802D2B20A43D2B21A700C37BD465DF838
:1054C000047B70470040064080B500AFFFF7C2FF85
:1054D0000F48FEF72DFB0F4B1846FFF7CBFF0221BD
:1054E00000220023084611461A46FEF755FA00230B
:1054F0001846FFF7CDFF002318460021064AFEF7A5
:10550000B9FB0648FEF726F9054B064A1A6080BD2E
:10551000D478000000127A00C8780000CC7800002F
:105520000800FF1F000E270780B485B000AF786029
:105530007B681B0C03F1804303F58E23FB60FB6843
:10554000FA6811687A6892B2012000FA02F20A43FE
:105550001A601437BD465DF8047B704780B485B08F
:1055600000AFF860B9601346FB71FB68BA6853F886
:10557000223023F4E062FB791B0203F4E06342EA89
:105580000301FB68BA6843F822101437BD465DF882
:10559000047B704780B500AF0D48FFF7C5FF0D488D
:1055A00008210322FFF7DAFF0A4809210322FFF747
:1055B000D5FF0948FFF7B8FF08480C210222FFF782
:1055C000CDFF06480D210222FFF7C8FF80BD00BFB6
:1055D0000C00381000C0044009003810009004404E
:1055E00080B400AF0B4B0B4AD2F8882042F4700213
:1055F000C3F88820084B4CF22052DA81064B4DF656
:105600002812DA81044B4FF4E9721A80BD465DF826
:10561000047B704700ED00E00020054008B5074B13
:10562000044613B10021AFF30080054B1868836A6C
:1056300003B19847204600F091FF00BF0000000032
:10564000E078000070B50E4B0E4DED1AAD10002441
:105650001E46AC4204D056F8242090470134F8E7A7
:1056600002F08AF9084D094BED1AAD1000241E46D0
:10567000AC4204D056F8242090470134F8E770BDBE
:1056800098790000987900009C79000098790000D2
:1056900010B50023934203D0CC5CC4540133F9E726
:1056A00010BD02440346934202D003F8011BFAE7FF
:1056B000704700000FB40A4B13B51C6824B1A369EE
:1056C00013B9204600F0F4FC05AB2046A168049A0B
:1056D000019300F09FF802B0BDE8104004B070479D
:1056E0006C00FF1F70B50E46054618B183690BB9F3
:1056F00000F0DEFCAC68A389190701D5236983B9E2
:105700002846214600F064FB58B14FF0FF3070BDD1
:10571000002B0EDB236816F8012C1A702368013366
:105720002360A36816F8012B013BA360002AEFD188
:1057300017E0A269934209DB236816F8012C1A705E
:10574000236819780A29EAD1284602E016F8011CD4
:105750002846224600F0E8FAB0F1FF3250425041AC
:10576000D2E7002B16DAA269934208DB23680A22EB
:105770001A7023681978914210D1284601E0284612
:105780000A21224600F0D0FAB0F1FF3358425841C6
:1057900030B1BAE723680A221A7023680133236004
:1057A0000A2070BD024B01461868FFF79BBF00BF7F
:1057B0006C00FF1F034613F8012B002AFBD1181AB7
:1057C000013870479368013B002B10B5936005DAF0
:1057D0009469A34208DBCBB20A2B05D01368581C8E
:1057E00010601970C8B210BDBDE8104000F09CBA3E
:1057F000F8B505460E461446D718BC4208D02846D0
:1058000014F8011B3246FFF7DDFF431CF5D100E021
:105810000020F8BD2DE9F0439DB00D4617460393D7
:10582000064618B183690BB900F042FC734B9D42E8
:1058300001D1756808E0724B9D4201D1B56803E063
:10584000704B9D4208BFF568AB8918070AD52B69D4
:1058500043B10023099320238DF8293030238DF89C
:105860002A3038E03046294600F0B2FA0028F0D05D
:105870004FF0FF30BFE0039A111D12680391002A18
:1058800070DB0792013423782E2B7DD05E4F217878
:105890003846032200F0C4FC30B1C71B049B4020F3
:1058A000B840034304930134217858488DF82810F8
:1058B0000622671C00F0B4FC002800F08A80544BDC
:1058C000002B7DD1039B073323F007030833039399
:1058D000099B434409933B461C4613F8012B1AB914
:1058E000B4EB07090ED002E0252AF5D1F8E73046DF
:1058F00029463A464B46FFF77BFF013076D0099B9D
:105900004B4409932378002B70D000234FF0FF32D3
:1059100004930793059206938DF853301A9304F17C
:1059200001094C463B4F21783846052200F078FCAF
:1059300009F10109049B28B1C71B0120B8400343AA
:105940000493EEE7D90644BF20228DF853201A07AE
:1059500044BF2B228DF8532022782A2A8BD0079B14
:10596000214605E0524243F002030792049389E77F
:105970000C4601312278303A092A03D80A2000FB6C
:105980000323F5E707937EE763782A2B0AD1039B6D
:105990001A1D1B680392002B04F10204B8BF4FF0DC
:1059A000FF330BE0611C00230C4601312278303AB2
:1059B000092A03D80A2000FB0323F5E7059365E7CE
:1059C00003AB0093304604A92A46134BAFF3008083
:1059D00007E003AB0093304604A92A460E4B00F0C3
:1059E0008FF8B0F1FF3F80467FF472AFAB895B0662
:1059F0003FF53EAF09981DB0BDE8F083187900006F
:105A00003879000058790000EA780000EE7800004C
:105A100000000000E4780000F15700002DE9F84391
:105A200015461F468A680B69DDF820809A42A8BF98
:105A300013462B6091F8432006460C460AB1013309
:105A40002B602368990602D52B6802332B602368EC
:105A500013F006091DD094F843302268003318BFB4
:105A6000012392061FD5E1185A1C302081F843000B
:105A7000224494F8451082F84310023313E0304674
:105A8000394604F119020123C047013007D009F15A
:105A90000109E2682B68D31A9945F0DBDBE74FF088
:105AA000FF30BDE8F8833046394604F14302C04771
:105AB0000130F4D023682A68E16803F00603042B60
:105AC00008BFC2EB01052369A2680CBF25EAE57592
:105AD00000259A42C4BFC3EB0203ED184FF0000942
:105AE000A9450ADA3046394604F11A020123C047B3
:105AF0000130D4D009F10109F2E70020BDE8F883B4
:105B00002DE9FF470E7E0C9D6E2E80460C46914679
:105B10009A4601F1430000F0A58011D8632E22D0EF
:105B200009D8002E00F0AF80582E40F0BF8081F8D9
:105B300045607B4A4FE0642E1ED0692E1CD0B5E034
:105B4000732E00F0A48009D86F2E2BD0702E40F059
:105B5000AD800B6843F020030B6038E0752E21D038
:105B6000782E34D0A2E02B681A1D1B682A6001F140
:105B7000420781F842309DE022682B6812F0800FC6
:105B800003D01A1D2A601D6805E05106F9D51A1DBB
:105B90002A60B3F90050002D39DA2D236D4284F8C4
:105BA000433034E022682B6812F0800F03D01A1DB6
:105BB0002A601D6804E05206F9D51A1D2A601D8866
:105BC000237E574A6F2B14BF0A2308231BE0782338
:105BD000544A84F845302368296813F0800F01F196
:105BE00004062E6001D00D6802E05F06FBD50D882B
:105BF000DE0744BF43F0200323601DB9236823F070
:105C0000200323601023002184F8431001E0444A5C
:105C10000A236668A660002E03DB216821F00401D8
:105C2000216005B96EB104F14201B5FBF3F603FB47
:105C300016550F46555D01F801593546002EF4D131
:105C400000E00746082B0AD12368DD0707D5626804
:105C500023699A4203DC302307F8013C013FC01B53
:105C600020612CE009682B68626911F0800F04D074
:105C7000191D29601B681A6005E04906F8D5191D31
:105C800029601B681A8000232361074617E02B68F0
:105C90001A1D2A601F683846FFF78CFD6368206173
:105CA000984288BF23612369636005E004F14207DD
:105CB00084F8426001232361002384F84330CDF847
:105CC00000A04046214603AA4B46FFF7A7FE01303D
:105CD00002D14FF0FF301FE0404649463A46236963
:105CE000D0470130F5D023689B0705D4E068039BBB
:105CF0009842B8BF18460FE00025E268039BD31A0C
